{"abi":[{"inputs":[{"internalType":"string","name":"id","type":"string"},{"internalType":"string","name":"brandName","type":"string"}],"name":"createManufacturer","outputs":[],"stateMutability":"nonpayable","type":"function"},{"inputs":[{"internalType":"string","name":"brandName","type":"string"}],"name":"getManufacturerInstance","outputs":[{"internalType":"address","name":"","type":"address"}],"stateMutability":"view","type":"function"},{"inputs":[{"internalType":"string","name":"","type":"string"}],"name":"manufacturersField","outputs":[{"internalType":"string","name":"id","type":"string"},{"internalType":"address","name":"instance","type":"address"}],"stateMutability":"view","type":"function"}],"devdoc":{"kind":"dev","methods":{},"version":1},"evm":{"assembly":"    /* \"FakeProdIden.sol\":60:648  contract manufacturerFactory... */\n  mstore(0x40, 0x80)\n  callvalue\n  dup1\n  iszero\n  tag_1\n  jumpi\n  0x00\n  dup1\n  revert\ntag_1:\n  pop\n  dataSize(sub_0)\n  dup1\n  dataOffset(sub_0)\n  0x00\n  codecopy\n  0x00\n  return\nstop\n\nsub_0: assembly {\n        /* \"FakeProdIden.sol\":60:648  contract manufacturerFactory... */\n      mstore(0x40, 0x80)\n      callvalue\n      dup1\n      iszero\n      tag_1\n      jumpi\n      0x00\n      dup1\n      revert\n    tag_1:\n      pop\n      jumpi(tag_2, lt(calldatasize, 0x04))\n      shr(0xe0, calldataload(0x00))\n      dup1\n      0x08ac800c\n      eq\n      tag_3\n      jumpi\n      dup1\n      0x80b29bec\n      eq\n      tag_4\n      jumpi\n      dup1\n      0xc0900bea\n      eq\n      tag_5\n      jumpi\n    tag_2:\n      0x00\n      dup1\n      revert\n        /* \"FakeProdIden.sol\":488:645  function getManufacturerInstance(string memory brandName) public view returns (address)... */\n    tag_3:\n      tag_6\n      0x04\n      dup1\n      calldatasize\n      sub\n      dup2\n      add\n      swap1\n      tag_7\n      swap2\n      swap1\n      tag_8\n      jump\t// in\n    tag_7:\n      tag_9\n      jump\t// in\n    tag_6:\n      mload(0x40)\n      tag_10\n      swap2\n      swap1\n      tag_11\n      jump\t// in\n    tag_10:\n      mload(0x40)\n      dup1\n      swap2\n      sub\n      swap1\n      return\n        /* \"FakeProdIden.sol\":249:480  function createManufacturer(string memory id, string memory brandName) public ... */\n    tag_4:\n      tag_12\n      0x04\n      dup1\n      calldatasize\n      sub\n      dup2\n      add\n      swap1\n      tag_13\n      swap2\n      swap1\n      tag_14\n      jump\t// in\n    tag_13:\n      tag_15\n      jump\t// in\n    tag_12:\n      stop\n        /* \"FakeProdIden.sol\":183:240  mapping(string => manufacturer) public manufacturersField */\n    tag_5:\n      tag_16\n      0x04\n      dup1\n      calldatasize\n      sub\n      dup2\n      add\n      swap1\n      tag_17\n      swap2\n      swap1\n      tag_8\n      jump\t// in\n    tag_17:\n      tag_18\n      jump\t// in\n    tag_16:\n      mload(0x40)\n      tag_19\n      swap3\n      swap2\n      swap1\n      tag_20\n      jump\t// in\n    tag_19:\n      mload(0x40)\n      dup1\n      swap2\n      sub\n      swap1\n      return\n        /* \"FakeProdIden.sol\":488:645  function getManufacturerInstance(string memory brandName) public view returns (address)... */\n    tag_9:\n        /* \"FakeProdIden.sol\":567:574  address */\n      0x00\n        /* \"FakeProdIden.sol\":599:617  manufacturersField */\n      dup1\n        /* \"FakeProdIden.sol\":618:627  brandName */\n      dup3\n        /* \"FakeProdIden.sol\":599:628  manufacturersField[brandName] */\n      mload(0x40)\n      tag_22\n      swap2\n      swap1\n      tag_23\n      jump\t// in\n    tag_22:\n      swap1\n      dup2\n      mstore\n      0x20\n      add\n      mload(0x40)\n      dup1\n      swap2\n      sub\n      swap1\n      keccak256\n        /* \"FakeProdIden.sol\":599:637  manufacturersField[brandName].instance */\n      0x01\n      add\n      0x00\n      swap1\n      sload\n      swap1\n      0x0100\n      exp\n      swap1\n      div\n      0xffffffffffffffffffffffffffffffffffffffff\n      and\n        /* \"FakeProdIden.sol\":592:637  return manufacturersField[brandName].instance */\n      swap1\n      pop\n        /* \"FakeProdIden.sol\":488:645  function getManufacturerInstance(string memory brandName) public view returns (address)... */\n      swap2\n      swap1\n      pop\n      jump\t// out\n        /* \"FakeProdIden.sol\":249:480  function createManufacturer(string memory id, string memory brandName) public ... */\n    tag_15:\n        /* \"FakeProdIden.sol\":344:367  address newManufacturer */\n      0x00\n        /* \"FakeProdIden.sol\":378:396  new FakeProdIden() */\n      mload(0x40)\n      tag_25\n      swap1\n      tag_26\n      jump\t// in\n    tag_25:\n      mload(0x40)\n      dup1\n      swap2\n      sub\n      swap1\n      0x00\n      create\n      dup1\n      iszero\n      dup1\n      iszero\n      tag_27\n      jumpi\n      returndatasize\n      0x00\n      dup1\n      returndatacopy\n      revert(0x00, returndatasize)\n    tag_27:\n      pop\n        /* \"FakeProdIden.sol\":344:397  address newManufacturer = address(new FakeProdIden()) */\n      swap1\n      pop\n        /* \"FakeProdIden.sol\":440:472  manufacturer(id,newManufacturer) */\n      mload(0x40)\n      dup1\n      0x40\n      add\n      0x40\n      mstore\n      dup1\n        /* \"FakeProdIden.sol\":453:455  id */\n      dup5\n        /* \"FakeProdIden.sol\":440:472  manufacturer(id,newManufacturer) */\n      dup2\n      mstore\n      0x20\n      add\n        /* \"FakeProdIden.sol\":456:471  newManufacturer */\n      dup3\n        /* \"FakeProdIden.sol\":440:472  manufacturer(id,newManufacturer) */\n      0xffffffffffffffffffffffffffffffffffffffff\n      and\n      dup2\n      mstore\n      pop\n        /* \"FakeProdIden.sol\":408:426  manufacturersField */\n      0x00\n        /* \"FakeProdIden.sol\":427:436  brandName */\n      dup4\n        /* \"FakeProdIden.sol\":408:437  manufacturersField[brandName] */\n      mload(0x40)\n      tag_28\n      swap2\n      swap1\n      tag_23\n      jump\t// in\n    tag_28:\n      swap1\n      dup2\n      mstore\n      0x20\n      add\n      mload(0x40)\n      dup1\n      swap2\n      sub\n      swap1\n      keccak256\n        /* \"FakeProdIden.sol\":408:472  manufacturersField[brandName] = manufacturer(id,newManufacturer) */\n      0x00\n      dup3\n      add\n      mload\n      dup2\n      0x00\n      add\n      swap1\n      dup2\n      tag_29\n      swap2\n      swap1\n      tag_30\n      jump\t// in\n    tag_29:\n      pop\n      0x20\n      dup3\n      add\n      mload\n      dup2\n      0x01\n      add\n      exp(0x0100, 0x00)\n      dup2\n      sload\n      dup2\n      0xffffffffffffffffffffffffffffffffffffffff\n      mul\n      not\n      and\n      swap1\n      dup4\n      0xffffffffffffffffffffffffffffffffffffffff\n      and\n      mul\n      or\n      swap1\n      sstore\n      pop\n      swap1\n      pop\n      pop\n        /* \"FakeProdIden.sol\":333:480  {... */\n      pop\n        /* \"FakeProdIden.sol\":249:480  function createManufacturer(string memory id, string memory brandName) public ... */\n      pop\n      pop\n      jump\t// out\n        /* \"FakeProdIden.sol\":183:240  mapping(string => manufacturer) public manufacturersField */\n    tag_18:\n      0x00\n      dup2\n      dup1\n      mload\n      0x20\n      dup2\n      add\n      dup3\n      add\n      dup1\n      mload\n      dup5\n      dup3\n      mstore\n      0x20\n      dup4\n      add\n      0x20\n      dup6\n      add\n      keccak256\n      dup2\n      dup4\n      mstore\n      dup1\n      swap6\n      pop\n      pop\n      pop\n      pop\n      pop\n      pop\n      0x00\n      swap2\n      pop\n      swap1\n      pop\n      dup1\n      0x00\n      add\n      dup1\n      sload\n      tag_31\n      swap1\n      tag_32\n      jump\t// in\n    tag_31:\n      dup1\n      0x1f\n      add\n      0x20\n      dup1\n      swap2\n      div\n      mul\n      0x20\n      add\n      mload(0x40)\n      swap1\n      dup2\n      add\n      0x40\n      mstore\n      dup1\n      swap3\n      swap2\n      swap1\n      dup2\n      dup2\n      mstore\n      0x20\n      add\n      dup3\n      dup1\n      sload\n      tag_33\n      swap1\n      tag_32\n      jump\t// in\n    tag_33:\n      dup1\n      iszero\n      tag_34\n      jumpi\n      dup1\n      0x1f\n      lt\n      tag_35\n      jumpi\n      0x0100\n      dup1\n      dup4\n      sload\n      div\n      mul\n      dup4\n      mstore\n      swap2\n      0x20\n      add\n      swap2\n      jump(tag_34)\n    tag_35:\n      dup3\n      add\n      swap2\n      swap1\n      0x00\n      mstore\n      keccak256(0x00, 0x20)\n      swap1\n    tag_36:\n      dup2\n      sload\n      dup2\n      mstore\n      swap1\n      0x01\n      add\n      swap1\n      0x20\n      add\n      dup1\n      dup4\n      gt\n      tag_36\n      jumpi\n      dup3\n      swap1\n      sub\n      0x1f\n      and\n      dup3\n      add\n      swap2\n    tag_34:\n      pop\n      pop\n      pop\n      pop\n      pop\n      swap1\n      dup1\n      0x01\n      add\n      0x00\n      swap1\n      sload\n      swap1\n      0x0100\n      exp\n      swap1\n      div\n      0xffffffffffffffffffffffffffffffffffffffff\n      and\n      swap1\n      pop\n      dup3\n      jump\t// out\n    tag_26:\n      dataSize(sub_0)\n      dup1\n      dataOffset(sub_0)\n      dup4\n      codecopy\n      add\n      swap1\n      jump\t// out\n        /* \"#utility.yul\":7:82   */\n    tag_37:\n        /* \"#utility.yul\":40:46   */\n      0x00\n        /* \"#utility.yul\":73:75   */\n      0x40\n        /* \"#utility.yul\":67:76   */\n      mload\n        /* \"#utility.yul\":57:76   */\n      swap1\n      pop\n        /* \"#utility.yul\":7:82   */\n      swap1\n      jump\t// out\n        /* \"#utility.yul\":88:205   */\n    tag_38:\n        /* \"#utility.yul\":197:198   */\n      0x00\n        /* \"#utility.yul\":194:195   */\n      dup1\n        /* \"#utility.yul\":187:199   */\n      revert\n        /* \"#utility.yul\":211:328   */\n    tag_39:\n        /* \"#utility.yul\":320:321   */\n      0x00\n        /* \"#utility.yul\":317:318   */\n      dup1\n        /* \"#utility.yul\":310:322   */\n      revert\n        /* \"#utility.yul\":334:451   */\n    tag_40:\n        /* \"#utility.yul\":443:444   */\n      0x00\n        /* \"#utility.yul\":440:441   */\n      dup1\n        /* \"#utility.yul\":433:445   */\n      revert\n        /* \"#utility.yul\":457:574   */\n    tag_41:\n        /* \"#utility.yul\":566:567   */\n      0x00\n        /* \"#utility.yul\":563:564   */\n      dup1\n        /* \"#utility.yul\":556:568   */\n      revert\n        /* \"#utility.yul\":580:682   */\n    tag_42:\n        /* \"#utility.yul\":621:627   */\n      0x00\n        /* \"#utility.yul\":672:674   */\n      0x1f\n        /* \"#utility.yul\":668:675   */\n      not\n        /* \"#utility.yul\":663:665   */\n      0x1f\n        /* \"#utility.yul\":656:661   */\n      dup4\n        /* \"#utility.yul\":652:666   */\n      add\n        /* \"#utility.yul\":648:676   */\n      and\n        /* \"#utility.yul\":638:676   */\n      swap1\n      pop\n        /* \"#utility.yul\":580:682   */\n      swap2\n      swap1\n      pop\n      jump\t// out\n        /* \"#utility.yul\":688:868   */\n    tag_43:\n        /* \"#utility.yul\":736:813   */\n      0x4e487b7100000000000000000000000000000000000000000000000000000000\n        /* \"#utility.yul\":733:734   */\n      0x00\n        /* \"#utility.yul\":726:814   */\n      mstore\n        /* \"#utility.yul\":833:837   */\n      0x41\n        /* \"#utility.yul\":830:831   */\n      0x04\n        /* \"#utility.yul\":823:838   */\n      mstore\n        /* \"#utility.yul\":857:861   */\n      0x24\n        /* \"#utility.yul\":854:855   */\n      0x00\n        /* \"#utility.yul\":847:862   */\n      revert\n        /* \"#utility.yul\":874:1155   */\n    tag_44:\n        /* \"#utility.yul\":957:984   */\n      tag_85\n        /* \"#utility.yul\":979:983   */\n      dup3\n        /* \"#utility.yul\":957:984   */\n      tag_42\n      jump\t// in\n    tag_85:\n        /* \"#utility.yul\":949:955   */\n      dup2\n        /* \"#utility.yul\":945:985   */\n      add\n        /* \"#utility.yul\":1087:1093   */\n      dup2\n        /* \"#utility.yul\":1075:1085   */\n      dup2\n        /* \"#utility.yul\":1072:1094   */\n      lt\n        /* \"#utility.yul\":1051:1069   */\n      0xffffffffffffffff\n        /* \"#utility.yul\":1039:1049   */\n      dup3\n        /* \"#utility.yul\":1036:1070   */\n      gt\n        /* \"#utility.yul\":1033:1095   */\n      or\n        /* \"#utility.yul\":1030:1118   */\n      iszero\n      tag_86\n      jumpi\n        /* \"#utility.yul\":1098:1116   */\n      tag_87\n      tag_43\n      jump\t// in\n    tag_87:\n        /* \"#utility.yul\":1030:1118   */\n    tag_86:\n        /* \"#utility.yul\":1138:1148   */\n      dup1\n        /* \"#utility.yul\":1134:1136   */\n      0x40\n        /* \"#utility.yul\":1127:1149   */\n      mstore\n        /* \"#utility.yul\":917:1155   */\n      pop\n        /* \"#utility.yul\":874:1155   */\n      pop\n      pop\n      jump\t// out\n        /* \"#utility.yul\":1161:1290   */\n    tag_45:\n        /* \"#utility.yul\":1195:1201   */\n      0x00\n        /* \"#utility.yul\":1222:1242   */\n      tag_89\n      tag_37\n      jump\t// in\n    tag_89:\n        /* \"#utility.yul\":1212:1242   */\n      swap1\n      pop\n        /* \"#utility.yul\":1251:1284   */\n      tag_90\n        /* \"#utility.yul\":1279:1283   */\n      dup3\n        /* \"#utility.yul\":1271:1277   */\n      dup3\n        /* \"#utility.yul\":1251:1284   */\n      tag_44\n      jump\t// in\n    tag_90:\n        /* \"#utility.yul\":1161:1290   */\n      swap2\n      swap1\n      pop\n      jump\t// out\n        /* \"#utility.yul\":1296:1604   */\n    tag_46:\n        /* \"#utility.yul\":1358:1362   */\n      0x00\n        /* \"#utility.yul\":1448:1466   */\n      0xffffffffffffffff\n        /* \"#utility.yul\":1440:1446   */\n      dup3\n        /* \"#utility.yul\":1437:1467   */\n      gt\n        /* \"#utility.yul\":1434:1490   */\n      iszero\n      tag_92\n      jumpi\n        /* \"#utility.yul\":1470:1488   */\n      tag_93\n      tag_43\n      jump\t// in\n    tag_93:\n        /* \"#utility.yul\":1434:1490   */\n    tag_92:\n        /* \"#utility.yul\":1508:1537   */\n      tag_94\n        /* \"#utility.yul\":1530:1536   */\n      dup3\n        /* \"#utility.yul\":1508:1537   */\n      tag_42\n      jump\t// in\n    tag_94:\n        /* \"#utility.yul\":1500:1537   */\n      swap1\n      pop\n        /* \"#utility.yul\":1592:1596   */\n      0x20\n        /* \"#utility.yul\":1586:1590   */\n      dup2\n        /* \"#utility.yul\":1582:1597   */\n      add\n        /* \"#utility.yul\":1574:1597   */\n      swap1\n      pop\n        /* \"#utility.yul\":1296:1604   */\n      swap2\n      swap1\n      pop\n      jump\t// out\n        /* \"#utility.yul\":1610:1758   */\n    tag_47:\n        /* \"#utility.yul\":1708:1714   */\n      dup3\n        /* \"#utility.yul\":1703:1706   */\n      dup2\n        /* \"#utility.yul\":1698:1701   */\n      dup4\n        /* \"#utility.yul\":1685:1715   */\n      calldatacopy\n        /* \"#utility.yul\":1749:1750   */\n      0x00\n        /* \"#utility.yul\":1740:1746   */\n      dup4\n        /* \"#utility.yul\":1735:1738   */\n      dup4\n        /* \"#utility.yul\":1731:1747   */\n      add\n        /* \"#utility.yul\":1724:1751   */\n      mstore\n        /* \"#utility.yul\":1610:1758   */\n      pop\n      pop\n      pop\n      jump\t// out\n        /* \"#utility.yul\":1764:2189   */\n    tag_48:\n        /* \"#utility.yul\":1842:1847   */\n      0x00\n        /* \"#utility.yul\":1867:1933   */\n      tag_97\n        /* \"#utility.yul\":1883:1932   */\n      tag_98\n        /* \"#utility.yul\":1925:1931   */\n      dup5\n        /* \"#utility.yul\":1883:1932   */\n      tag_46\n      jump\t// in\n    tag_98:\n        /* \"#utility.yul\":1867:1933   */\n      tag_45\n      jump\t// in\n    tag_97:\n        /* \"#utility.yul\":1858:1933   */\n      swap1\n      pop\n        /* \"#utility.yul\":1956:1962   */\n      dup3\n        /* \"#utility.yul\":1949:1954   */\n      dup2\n        /* \"#utility.yul\":1942:1963   */\n      mstore\n        /* \"#utility.yul\":1994:1998   */\n      0x20\n        /* \"#utility.yul\":1987:1992   */\n      dup2\n        /* \"#utility.yul\":1983:1999   */\n      add\n        /* \"#utility.yul\":2032:2035   */\n      dup5\n        /* \"#utility.yul\":2023:2029   */\n      dup5\n        /* \"#utility.yul\":2018:2021   */\n      dup5\n        /* \"#utility.yul\":2014:2030   */\n      add\n        /* \"#utility.yul\":2011:2036   */\n      gt\n        /* \"#utility.yul\":2008:2120   */\n      iszero\n      tag_99\n      jumpi\n        /* \"#utility.yul\":2039:2118   */\n      tag_100\n      tag_41\n      jump\t// in\n    tag_100:\n        /* \"#utility.yul\":2008:2120   */\n    tag_99:\n        /* \"#utility.yul\":2129:2183   */\n      tag_101\n        /* \"#utility.yul\":2176:2182   */\n      dup5\n        /* \"#utility.yul\":2171:2174   */\n      dup3\n        /* \"#utility.yul\":2166:2169   */\n      dup6\n        /* \"#utility.yul\":2129:2183   */\n      tag_47\n      jump\t// in\n    tag_101:\n        /* \"#utility.yul\":1848:2189   */\n      pop\n        /* \"#utility.yul\":1764:2189   */\n      swap4\n      swap3\n      pop\n      pop\n      pop\n      jump\t// out\n        /* \"#utility.yul\":2209:2549   */\n    tag_49:\n        /* \"#utility.yul\":2265:2270   */\n      0x00\n        /* \"#utility.yul\":2314:2317   */\n      dup3\n        /* \"#utility.yul\":2307:2311   */\n      0x1f\n        /* \"#utility.yul\":2299:2305   */\n      dup4\n        /* \"#utility.yul\":2295:2312   */\n      add\n        /* \"#utility.yul\":2291:2318   */\n      slt\n        /* \"#utility.yul\":2281:2403   */\n      tag_103\n      jumpi\n        /* \"#utility.yul\":2322:2401   */\n      tag_104\n      tag_40\n      jump\t// in\n    tag_104:\n        /* \"#utility.yul\":2281:2403   */\n    tag_103:\n        /* \"#utility.yul\":2439:2445   */\n      dup2\n        /* \"#utility.yul\":2426:2446   */\n      calldataload\n        /* \"#utility.yul\":2464:2543   */\n      tag_105\n        /* \"#utility.yul\":2539:2542   */\n      dup5\n        /* \"#utility.yul\":2531:2537   */\n      dup3\n        /* \"#utility.yul\":2524:2528   */\n      0x20\n        /* \"#utility.yul\":2516:2522   */\n      dup7\n        /* \"#utility.yul\":2512:2529   */\n      add\n        /* \"#utility.yul\":2464:2543   */\n      tag_48\n      jump\t// in\n    tag_105:\n        /* \"#utility.yul\":2455:2543   */\n      swap2\n      pop\n        /* \"#utility.yul\":2271:2549   */\n      pop\n        /* \"#utility.yul\":2209:2549   */\n      swap3\n      swap2\n      pop\n      pop\n      jump\t// out\n        /* \"#utility.yul\":2555:3064   */\n    tag_8:\n        /* \"#utility.yul\":2624:2630   */\n      0x00\n        /* \"#utility.yul\":2673:2675   */\n      0x20\n        /* \"#utility.yul\":2661:2670   */\n      dup3\n        /* \"#utility.yul\":2652:2659   */\n      dup5\n        /* \"#utility.yul\":2648:2671   */\n      sub\n        /* \"#utility.yul\":2644:2676   */\n      slt\n        /* \"#utility.yul\":2641:2760   */\n      iszero\n      tag_107\n      jumpi\n        /* \"#utility.yul\":2679:2758   */\n      tag_108\n      tag_38\n      jump\t// in\n    tag_108:\n        /* \"#utility.yul\":2641:2760   */\n    tag_107:\n        /* \"#utility.yul\":2827:2828   */\n      0x00\n        /* \"#utility.yul\":2816:2825   */\n      dup3\n        /* \"#utility.yul\":2812:2829   */\n      add\n        /* \"#utility.yul\":2799:2830   */\n      calldataload\n        /* \"#utility.yul\":2857:2875   */\n      0xffffffffffffffff\n        /* \"#utility.yul\":2849:2855   */\n      dup2\n        /* \"#utility.yul\":2846:2876   */\n      gt\n        /* \"#utility.yul\":2843:2960   */\n      iszero\n      tag_109\n      jumpi\n        /* \"#utility.yul\":2879:2958   */\n      tag_110\n      tag_39\n      jump\t// in\n    tag_110:\n        /* \"#utility.yul\":2843:2960   */\n    tag_109:\n        /* \"#utility.yul\":2984:3047   */\n      tag_111\n        /* \"#utility.yul\":3039:3046   */\n      dup5\n        /* \"#utility.yul\":3030:3036   */\n      dup3\n        /* \"#utility.yul\":3019:3028   */\n      dup6\n        /* \"#utility.yul\":3015:3037   */\n      add\n        /* \"#utility.yul\":2984:3047   */\n      tag_49\n      jump\t// in\n    tag_111:\n        /* \"#utility.yul\":2974:3047   */\n      swap2\n      pop\n        /* \"#utility.yul\":2770:3057   */\n      pop\n        /* \"#utility.yul\":2555:3064   */\n      swap3\n      swap2\n      pop\n      pop\n      jump\t// out\n        /* \"#utility.yul\":3070:3196   */\n    tag_50:\n        /* \"#utility.yul\":3107:3114   */\n      0x00\n        /* \"#utility.yul\":3147:3189   */\n      0xffffffffffffffffffffffffffffffffffffffff\n        /* \"#utility.yul\":3140:3145   */\n      dup3\n        /* \"#utility.yul\":3136:3190   */\n      and\n        /* \"#utility.yul\":3125:3190   */\n      swap1\n      pop\n        /* \"#utility.yul\":3070:3196   */\n      swap2\n      swap1\n      pop\n      jump\t// out\n        /* \"#utility.yul\":3202:3298   */\n    tag_51:\n        /* \"#utility.yul\":3239:3246   */\n      0x00\n        /* \"#utility.yul\":3268:3292   */\n      tag_114\n        /* \"#utility.yul\":3286:3291   */\n      dup3\n        /* \"#utility.yul\":3268:3292   */\n      tag_50\n      jump\t// in\n    tag_114:\n        /* \"#utility.yul\":3257:3292   */\n      swap1\n      pop\n        /* \"#utility.yul\":3202:3298   */\n      swap2\n      swap1\n      pop\n      jump\t// out\n        /* \"#utility.yul\":3304:3422   */\n    tag_52:\n        /* \"#utility.yul\":3391:3415   */\n      tag_116\n        /* \"#utility.yul\":3409:3414   */\n      dup2\n        /* \"#utility.yul\":3391:3415   */\n      tag_51\n      jump\t// in\n    tag_116:\n        /* \"#utility.yul\":3386:3389   */\n      dup3\n        /* \"#utility.yul\":3379:3416   */\n      mstore\n        /* \"#utility.yul\":3304:3422   */\n      pop\n      pop\n      jump\t// out\n        /* \"#utility.yul\":3428:3650   */\n    tag_11:\n        /* \"#utility.yul\":3521:3525   */\n      0x00\n        /* \"#utility.yul\":3559:3561   */\n      0x20\n        /* \"#utility.yul\":3548:3557   */\n      dup3\n        /* \"#utility.yul\":3544:3562   */\n      add\n        /* \"#utility.yul\":3536:3562   */\n      swap1\n      pop\n        /* \"#utility.yul\":3572:3643   */\n      tag_118\n        /* \"#utility.yul\":3640:3641   */\n      0x00\n        /* \"#utility.yul\":3629:3638   */\n      dup4\n        /* \"#utility.yul\":3625:3642   */\n      add\n        /* \"#utility.yul\":3616:3622   */\n      dup5\n        /* \"#utility.yul\":3572:3643   */\n      tag_52\n      jump\t// in\n    tag_118:\n        /* \"#utility.yul\":3428:3650   */\n      swap3\n      swap2\n      pop\n      pop\n      jump\t// out\n        /* \"#utility.yul\":3656:4490   */\n    tag_14:\n        /* \"#utility.yul\":3744:3750   */\n      0x00\n        /* \"#utility.yul\":3752:3758   */\n      dup1\n        /* \"#utility.yul\":3801:3803   */\n      0x40\n        /* \"#utility.yul\":3789:3798   */\n      dup4\n        /* \"#utility.yul\":3780:3787   */\n      dup6\n        /* \"#utility.yul\":3776:3799   */\n      sub\n        /* \"#utility.yul\":3772:3804   */\n      slt\n        /* \"#utility.yul\":3769:3888   */\n      iszero\n      tag_120\n      jumpi\n        /* \"#utility.yul\":3807:3886   */\n      tag_121\n      tag_38\n      jump\t// in\n    tag_121:\n        /* \"#utility.yul\":3769:3888   */\n    tag_120:\n        /* \"#utility.yul\":3955:3956   */\n      0x00\n        /* \"#utility.yul\":3944:3953   */\n      dup4\n        /* \"#utility.yul\":3940:3957   */\n      add\n        /* \"#utility.yul\":3927:3958   */\n      calldataload\n        /* \"#utility.yul\":3985:4003   */\n      0xffffffffffffffff\n        /* \"#utility.yul\":3977:3983   */\n      dup2\n        /* \"#utility.yul\":3974:4004   */\n      gt\n        /* \"#utility.yul\":3971:4088   */\n      iszero\n      tag_122\n      jumpi\n        /* \"#utility.yul\":4007:4086   */\n      tag_123\n      tag_39\n      jump\t// in\n    tag_123:\n        /* \"#utility.yul\":3971:4088   */\n    tag_122:\n        /* \"#utility.yul\":4112:4175   */\n      tag_124\n        /* \"#utility.yul\":4167:4174   */\n      dup6\n        /* \"#utility.yul\":4158:4164   */\n      dup3\n        /* \"#utility.yul\":4147:4156   */\n      dup7\n        /* \"#utility.yul\":4143:4165   */\n      add\n        /* \"#utility.yul\":4112:4175   */\n      tag_49\n      jump\t// in\n    tag_124:\n        /* \"#utility.yul\":4102:4175   */\n      swap3\n      pop\n        /* \"#utility.yul\":3898:4185   */\n      pop\n        /* \"#utility.yul\":4252:4254   */\n      0x20\n        /* \"#utility.yul\":4241:4250   */\n      dup4\n        /* \"#utility.yul\":4237:4255   */\n      add\n        /* \"#utility.yul\":4224:4256   */\n      calldataload\n        /* \"#utility.yul\":4283:4301   */\n      0xffffffffffffffff\n        /* \"#utility.yul\":4275:4281   */\n      dup2\n        /* \"#utility.yul\":4272:4302   */\n      gt\n        /* \"#utility.yul\":4269:4386   */\n      iszero\n      tag_125\n      jumpi\n        /* \"#utility.yul\":4305:4384   */\n      tag_126\n      tag_39\n      jump\t// in\n    tag_126:\n        /* \"#utility.yul\":4269:4386   */\n    tag_125:\n        /* \"#utility.yul\":4410:4473   */\n      tag_127\n        /* \"#utility.yul\":4465:4472   */\n      dup6\n        /* \"#utility.yul\":4456:4462   */\n      dup3\n        /* \"#utility.yul\":4445:4454   */\n      dup7\n        /* \"#utility.yul\":4441:4463   */\n      add\n        /* \"#utility.yul\":4410:4473   */\n      tag_49\n      jump\t// in\n    tag_127:\n        /* \"#utility.yul\":4400:4473   */\n      swap2\n      pop\n        /* \"#utility.yul\":4195:4483   */\n      pop\n        /* \"#utility.yul\":3656:4490   */\n      swap3\n      pop\n      swap3\n      swap1\n      pop\n      jump\t// out\n        /* \"#utility.yul\":4496:4595   */\n    tag_53:\n        /* \"#utility.yul\":4548:4554   */\n      0x00\n        /* \"#utility.yul\":4582:4587   */\n      dup2\n        /* \"#utility.yul\":4576:4588   */\n      mload\n        /* \"#utility.yul\":4566:4588   */\n      swap1\n      pop\n        /* \"#utility.yul\":4496:4595   */\n      swap2\n      swap1\n      pop\n      jump\t// out\n        /* \"#utility.yul\":4601:4770   */\n    tag_54:\n        /* \"#utility.yul\":4685:4696   */\n      0x00\n        /* \"#utility.yul\":4719:4725   */\n      dup3\n        /* \"#utility.yul\":4714:4717   */\n      dup3\n        /* \"#utility.yul\":4707:4726   */\n      mstore\n        /* \"#utility.yul\":4759:4763   */\n      0x20\n        /* \"#utility.yul\":4754:4757   */\n      dup3\n        /* \"#utility.yul\":4750:4764   */\n      add\n        /* \"#utility.yul\":4735:4764   */\n      swap1\n      pop\n        /* \"#utility.yul\":4601:4770   */\n      swap3\n      swap2\n      pop\n      pop\n      jump\t// out\n        /* \"#utility.yul\":4776:4915   */\n    tag_55:\n        /* \"#utility.yul\":4865:4871   */\n      dup3\n        /* \"#utility.yul\":4860:4863   */\n      dup2\n        /* \"#utility.yul\":4855:4858   */\n      dup4\n        /* \"#utility.yul\":4849:4872   */\n      mcopy\n        /* \"#utility.yul\":4906:4907   */\n      0x00\n        /* \"#utility.yul\":4897:4903   */\n      dup4\n        /* \"#utility.yul\":4892:4895   */\n      dup4\n        /* \"#utility.yul\":4888:4904   */\n      add\n        /* \"#utility.yul\":4881:4908   */\n      mstore\n        /* \"#utility.yul\":4776:4915   */\n      pop\n      pop\n      pop\n      jump\t// out\n        /* \"#utility.yul\":4921:5298   */\n    tag_56:\n        /* \"#utility.yul\":5009:5012   */\n      0x00\n        /* \"#utility.yul\":5037:5076   */\n      tag_132\n        /* \"#utility.yul\":5070:5075   */\n      dup3\n        /* \"#utility.yul\":5037:5076   */\n      tag_53\n      jump\t// in\n    tag_132:\n        /* \"#utility.yul\":5092:5163   */\n      tag_133\n        /* \"#utility.yul\":5156:5162   */\n      dup2\n        /* \"#utility.yul\":5151:5154   */\n      dup6\n        /* \"#utility.yul\":5092:5163   */\n      tag_54\n      jump\t// in\n    tag_133:\n        /* \"#utility.yul\":5085:5163   */\n      swap4\n      pop\n        /* \"#utility.yul\":5172:5237   */\n      tag_134\n        /* \"#utility.yul\":5230:5236   */\n      dup2\n        /* \"#utility.yul\":5225:5228   */\n      dup6\n        /* \"#utility.yul\":5218:5222   */\n      0x20\n        /* \"#utility.yul\":5211:5216   */\n      dup7\n        /* \"#utility.yul\":5207:5223   */\n      add\n        /* \"#utility.yul\":5172:5237   */\n      tag_55\n      jump\t// in\n    tag_134:\n        /* \"#utility.yul\":5262:5291   */\n      tag_135\n        /* \"#utility.yul\":5284:5290   */\n      dup2\n        /* \"#utility.yul\":5262:5291   */\n      tag_42\n      jump\t// in\n    tag_135:\n        /* \"#utility.yul\":5257:5260   */\n      dup5\n        /* \"#utility.yul\":5253:5292   */\n      add\n        /* \"#utility.yul\":5246:5292   */\n      swap2\n      pop\n        /* \"#utility.yul\":5013:5298   */\n      pop\n        /* \"#utility.yul\":4921:5298   */\n      swap3\n      swap2\n      pop\n      pop\n      jump\t// out\n        /* \"#utility.yul\":5304:5727   */\n    tag_20:\n        /* \"#utility.yul\":5445:5449   */\n      0x00\n        /* \"#utility.yul\":5483:5485   */\n      0x40\n        /* \"#utility.yul\":5472:5481   */\n      dup3\n        /* \"#utility.yul\":5468:5486   */\n      add\n        /* \"#utility.yul\":5460:5486   */\n      swap1\n      pop\n        /* \"#utility.yul\":5532:5541   */\n      dup2\n        /* \"#utility.yul\":5526:5530   */\n      dup2\n        /* \"#utility.yul\":5522:5542   */\n      sub\n        /* \"#utility.yul\":5518:5519   */\n      0x00\n        /* \"#utility.yul\":5507:5516   */\n      dup4\n        /* \"#utility.yul\":5503:5520   */\n      add\n        /* \"#utility.yul\":5496:5543   */\n      mstore\n        /* \"#utility.yul\":5560:5638   */\n      tag_137\n        /* \"#utility.yul\":5633:5637   */\n      dup2\n        /* \"#utility.yul\":5624:5630   */\n      dup6\n        /* \"#utility.yul\":5560:5638   */\n      tag_56\n      jump\t// in\n    tag_137:\n        /* \"#utility.yul\":5552:5638   */\n      swap1\n      pop\n        /* \"#utility.yul\":5648:5720   */\n      tag_138\n        /* \"#utility.yul\":5716:5718   */\n      0x20\n        /* \"#utility.yul\":5705:5714   */\n      dup4\n        /* \"#utility.yul\":5701:5719   */\n      add\n        /* \"#utility.yul\":5692:5698   */\n      dup5\n        /* \"#utility.yul\":5648:5720   */\n      tag_52\n      jump\t// in\n    tag_138:\n        /* \"#utility.yul\":5304:5727   */\n      swap4\n      swap3\n      pop\n      pop\n      pop\n      jump\t// out\n        /* \"#utility.yul\":5733:5881   */\n    tag_57:\n        /* \"#utility.yul\":5835:5846   */\n      0x00\n        /* \"#utility.yul\":5872:5875   */\n      dup2\n        /* \"#utility.yul\":5857:5875   */\n      swap1\n      pop\n        /* \"#utility.yul\":5733:5881   */\n      swap3\n      swap2\n      pop\n      pop\n      jump\t// out\n        /* \"#utility.yul\":5887:6277   */\n    tag_58:\n        /* \"#utility.yul\":5993:5996   */\n      0x00\n        /* \"#utility.yul\":6021:6060   */\n      tag_141\n        /* \"#utility.yul\":6054:6059   */\n      dup3\n        /* \"#utility.yul\":6021:6060   */\n      tag_53\n      jump\t// in\n    tag_141:\n        /* \"#utility.yul\":6076:6165   */\n      tag_142\n        /* \"#utility.yul\":6158:6164   */\n      dup2\n        /* \"#utility.yul\":6153:6156   */\n      dup6\n        /* \"#utility.yul\":6076:6165   */\n      tag_57\n      jump\t// in\n    tag_142:\n        /* \"#utility.yul\":6069:6165   */\n      swap4\n      pop\n        /* \"#utility.yul\":6174:6239   */\n      tag_143\n        /* \"#utility.yul\":6232:6238   */\n      dup2\n        /* \"#utility.yul\":6227:6230   */\n      dup6\n        /* \"#utility.yul\":6220:6224   */\n      0x20\n        /* \"#utility.yul\":6213:6218   */\n      dup7\n        /* \"#utility.yul\":6209:6225   */\n      add\n        /* \"#utility.yul\":6174:6239   */\n      tag_55\n      jump\t// in\n    tag_143:\n        /* \"#utility.yul\":6264:6270   */\n      dup1\n        /* \"#utility.yul\":6259:6262   */\n      dup5\n        /* \"#utility.yul\":6255:6271   */\n      add\n        /* \"#utility.yul\":6248:6271   */\n      swap2\n      pop\n        /* \"#utility.yul\":5997:6277   */\n      pop\n        /* \"#utility.yul\":5887:6277   */\n      swap3\n      swap2\n      pop\n      pop\n      jump\t// out\n        /* \"#utility.yul\":6283:6558   */\n    tag_23:\n        /* \"#utility.yul\":6415:6418   */\n      0x00\n        /* \"#utility.yul\":6437:6532   */\n      tag_145\n        /* \"#utility.yul\":6528:6531   */\n      dup3\n        /* \"#utility.yul\":6519:6525   */\n      dup5\n        /* \"#utility.yul\":6437:6532   */\n      tag_58\n      jump\t// in\n    tag_145:\n        /* \"#utility.yul\":6430:6532   */\n      swap2\n      pop\n        /* \"#utility.yul\":6549:6552   */\n      dup2\n        /* \"#utility.yul\":6542:6552   */\n      swap1\n      pop\n        /* \"#utility.yul\":6283:6558   */\n      swap3\n      swap2\n      pop\n      pop\n      jump\t// out\n        /* \"#utility.yul\":6564:6744   */\n    tag_59:\n        /* \"#utility.yul\":6612:6689   */\n      0x4e487b7100000000000000000000000000000000000000000000000000000000\n        /* \"#utility.yul\":6609:6610   */\n      0x00\n        /* \"#utility.yul\":6602:6690   */\n      mstore\n        /* \"#utility.yul\":6709:6713   */\n      0x22\n        /* \"#utility.yul\":6706:6707   */\n      0x04\n        /* \"#utility.yul\":6699:6714   */\n      mstore\n        /* \"#utility.yul\":6733:6737   */\n      0x24\n        /* \"#utility.yul\":6730:6731   */\n      0x00\n        /* \"#utility.yul\":6723:6738   */\n      revert\n        /* \"#utility.yul\":6750:7070   */\n    tag_32:\n        /* \"#utility.yul\":6794:6800   */\n      0x00\n        /* \"#utility.yul\":6831:6832   */\n      0x02\n        /* \"#utility.yul\":6825:6829   */\n      dup3\n        /* \"#utility.yul\":6821:6833   */\n      div\n        /* \"#utility.yul\":6811:6833   */\n      swap1\n      pop\n        /* \"#utility.yul\":6878:6879   */\n      0x01\n        /* \"#utility.yul\":6872:6876   */\n      dup3\n        /* \"#utility.yul\":6868:6880   */\n      and\n        /* \"#utility.yul\":6899:6917   */\n      dup1\n        /* \"#utility.yul\":6889:6970   */\n      tag_148\n      jumpi\n        /* \"#utility.yul\":6955:6959   */\n      0x7f\n        /* \"#utility.yul\":6947:6953   */\n      dup3\n        /* \"#utility.yul\":6943:6960   */\n      and\n        /* \"#utility.yul\":6933:6960   */\n      swap2\n      pop\n        /* \"#utility.yul\":6889:6970   */\n    tag_148:\n        /* \"#utility.yul\":7017:7019   */\n      0x20\n        /* \"#utility.yul\":7009:7015   */\n      dup3\n        /* \"#utility.yul\":7006:7020   */\n      lt\n        /* \"#utility.yul\":6986:7004   */\n      dup2\n        /* \"#utility.yul\":6983:7021   */\n      sub\n        /* \"#utility.yul\":6980:7064   */\n      tag_149\n      jumpi\n        /* \"#utility.yul\":7036:7054   */\n      tag_150\n      tag_59\n      jump\t// in\n    tag_150:\n        /* \"#utility.yul\":6980:7064   */\n    tag_149:\n        /* \"#utility.yul\":6801:7070   */\n      pop\n        /* \"#utility.yul\":6750:7070   */\n      swap2\n      swap1\n      pop\n      jump\t// out\n        /* \"#utility.yul\":7076:7217   */\n    tag_60:\n        /* \"#utility.yul\":7125:7129   */\n      0x00\n        /* \"#utility.yul\":7148:7151   */\n      dup2\n        /* \"#utility.yul\":7140:7151   */\n      swap1\n      pop\n        /* \"#utility.yul\":7171:7174   */\n      dup2\n        /* \"#utility.yul\":7168:7169   */\n      0x00\n        /* \"#utility.yul\":7161:7175   */\n      mstore\n        /* \"#utility.yul\":7205:7209   */\n      0x20\n        /* \"#utility.yul\":7202:7203   */\n      0x00\n        /* \"#utility.yul\":7192:7210   */\n      keccak256\n        /* \"#utility.yul\":7184:7210   */\n      swap1\n      pop\n        /* \"#utility.yul\":7076:7217   */\n      swap2\n      swap1\n      pop\n      jump\t// out\n        /* \"#utility.yul\":7223:7316   */\n    tag_61:\n        /* \"#utility.yul\":7260:7266   */\n      0x00\n        /* \"#utility.yul\":7307:7309   */\n      0x20\n        /* \"#utility.yul\":7302:7304   */\n      0x1f\n        /* \"#utility.yul\":7295:7300   */\n      dup4\n        /* \"#utility.yul\":7291:7305   */\n      add\n        /* \"#utility.yul\":7287:7310   */\n      div\n        /* \"#utility.yul\":7277:7310   */\n      swap1\n      pop\n        /* \"#utility.yul\":7223:7316   */\n      swap2\n      swap1\n      pop\n      jump\t// out\n        /* \"#utility.yul\":7322:7429   */\n    tag_62:\n        /* \"#utility.yul\":7366:7374   */\n      0x00\n        /* \"#utility.yul\":7416:7421   */\n      dup3\n        /* \"#utility.yul\":7410:7414   */\n      dup3\n        /* \"#utility.yul\":7406:7422   */\n      shl\n        /* \"#utility.yul\":7385:7422   */\n      swap1\n      pop\n        /* \"#utility.yul\":7322:7429   */\n      swap3\n      swap2\n      pop\n      pop\n      jump\t// out\n        /* \"#utility.yul\":7435:7828   */\n    tag_63:\n        /* \"#utility.yul\":7504:7510   */\n      0x00\n        /* \"#utility.yul\":7554:7555   */\n      0x08\n        /* \"#utility.yul\":7542:7552   */\n      dup4\n        /* \"#utility.yul\":7538:7556   */\n      mul\n        /* \"#utility.yul\":7577:7674   */\n      tag_155\n        /* \"#utility.yul\":7607:7673   */\n      0xffffffffffffffffffffffffffffffffffffffffffffffffffffffffffffffff\n        /* \"#utility.yul\":7596:7605   */\n      dup3\n        /* \"#utility.yul\":7577:7674   */\n      tag_62\n      jump\t// in\n    tag_155:\n        /* \"#utility.yul\":7695:7734   */\n      tag_156\n        /* \"#utility.yul\":7725:7733   */\n      dup7\n        /* \"#utility.yul\":7714:7723   */\n      dup4\n        /* \"#utility.yul\":7695:7734   */\n      tag_62\n      jump\t// in\n    tag_156:\n        /* \"#utility.yul\":7683:7734   */\n      swap6\n      pop\n        /* \"#utility.yul\":7767:7771   */\n      dup1\n        /* \"#utility.yul\":7763:7772   */\n      not\n        /* \"#utility.yul\":7756:7761   */\n      dup5\n        /* \"#utility.yul\":7752:7773   */\n      and\n        /* \"#utility.yul\":7743:7773   */\n      swap4\n      pop\n        /* \"#utility.yul\":7816:7820   */\n      dup1\n        /* \"#utility.yul\":7806:7814   */\n      dup7\n        /* \"#utility.yul\":7802:7821   */\n      and\n        /* \"#utility.yul\":7795:7800   */\n      dup5\n        /* \"#utility.yul\":7792:7822   */\n      or\n        /* \"#utility.yul\":7782:7822   */\n      swap3\n      pop\n        /* \"#utility.yul\":7511:7828   */\n      pop\n      pop\n        /* \"#utility.yul\":7435:7828   */\n      swap4\n      swap3\n      pop\n      pop\n      pop\n      jump\t// out\n        /* \"#utility.yul\":7834:7911   */\n    tag_64:\n        /* \"#utility.yul\":7871:7878   */\n      0x00\n        /* \"#utility.yul\":7900:7905   */\n      dup2\n        /* \"#utility.yul\":7889:7905   */\n      swap1\n      pop\n        /* \"#utility.yul\":7834:7911   */\n      swap2\n      swap1\n      pop\n      jump\t// out\n        /* \"#utility.yul\":7917:7977   */\n    tag_65:\n        /* \"#utility.yul\":7945:7948   */\n      0x00\n        /* \"#utility.yul\":7966:7971   */\n      dup2\n        /* \"#utility.yul\":7959:7971   */\n      swap1\n      pop\n        /* \"#utility.yul\":7917:7977   */\n      swap2\n      swap1\n      pop\n      jump\t// out\n        /* \"#utility.yul\":7983:8125   */\n    tag_66:\n        /* \"#utility.yul\":8033:8042   */\n      0x00\n        /* \"#utility.yul\":8066:8119   */\n      tag_160\n        /* \"#utility.yul\":8084:8118   */\n      tag_161\n        /* \"#utility.yul\":8093:8117   */\n      tag_162\n        /* \"#utility.yul\":8111:8116   */\n      dup5\n        /* \"#utility.yul\":8093:8117   */\n      tag_64\n      jump\t// in\n    tag_162:\n        /* \"#utility.yul\":8084:8118   */\n      tag_65\n      jump\t// in\n    tag_161:\n        /* \"#utility.yul\":8066:8119   */\n      tag_64\n      jump\t// in\n    tag_160:\n        /* \"#utility.yul\":8053:8119   */\n      swap1\n      pop\n        /* \"#utility.yul\":7983:8125   */\n      swap2\n      swap1\n      pop\n      jump\t// out\n        /* \"#utility.yul\":8131:8206   */\n    tag_67:\n        /* \"#utility.yul\":8174:8177   */\n      0x00\n        /* \"#utility.yul\":8195:8200   */\n      dup2\n        /* \"#utility.yul\":8188:8200   */\n      swap1\n      pop\n        /* \"#utility.yul\":8131:8206   */\n      swap2\n      swap1\n      pop\n      jump\t// out\n        /* \"#utility.yul\":8212:8481   */\n    tag_68:\n        /* \"#utility.yul\":8322:8361   */\n      tag_165\n        /* \"#utility.yul\":8353:8360   */\n      dup4\n        /* \"#utility.yul\":8322:8361   */\n      tag_66\n      jump\t// in\n    tag_165:\n        /* \"#utility.yul\":8383:8474   */\n      tag_166\n        /* \"#utility.yul\":8432:8473   */\n      tag_167\n        /* \"#utility.yul\":8456:8472   */\n      dup3\n        /* \"#utility.yul\":8432:8473   */\n      tag_67\n      jump\t// in\n    tag_167:\n        /* \"#utility.yul\":8424:8430   */\n      dup5\n        /* \"#utility.yul\":8417:8421   */\n      dup5\n        /* \"#utility.yul\":8411:8422   */\n      sload\n        /* \"#utility.yul\":8383:8474   */\n      tag_63\n      jump\t// in\n    tag_166:\n        /* \"#utility.yul\":8377:8381   */\n      dup3\n        /* \"#utility.yul\":8370:8475   */\n      sstore\n        /* \"#utility.yul\":8288:8481   */\n      pop\n        /* \"#utility.yul\":8212:8481   */\n      pop\n      pop\n      pop\n      jump\t// out\n        /* \"#utility.yul\":8487:8560   */\n    tag_69:\n        /* \"#utility.yul\":8532:8535   */\n      0x00\n        /* \"#utility.yul\":8487:8560   */\n      swap1\n      jump\t// out\n        /* \"#utility.yul\":8566:8755   */\n    tag_70:\n        /* \"#utility.yul\":8643:8675   */\n      tag_170\n      tag_69\n      jump\t// in\n    tag_170:\n        /* \"#utility.yul\":8684:8749   */\n      tag_171\n        /* \"#utility.yul\":8742:8748   */\n      dup2\n        /* \"#utility.yul\":8734:8740   */\n      dup5\n        /* \"#utility.yul\":8728:8732   */\n      dup5\n        /* \"#utility.yul\":8684:8749   */\n      tag_68\n      jump\t// in\n    tag_171:\n        /* \"#utility.yul\":8619:8755   */\n      pop\n        /* \"#utility.yul\":8566:8755   */\n      pop\n      pop\n      jump\t// out\n        /* \"#utility.yul\":8761:8947   */\n    tag_71:\n        /* \"#utility.yul\":8821:8941   */\n    tag_173:\n        /* \"#utility.yul\":8838:8841   */\n      dup2\n        /* \"#utility.yul\":8831:8836   */\n      dup2\n        /* \"#utility.yul\":8828:8842   */\n      lt\n        /* \"#utility.yul\":8821:8941   */\n      iszero\n      tag_175\n      jumpi\n        /* \"#utility.yul\":8892:8931   */\n      tag_176\n        /* \"#utility.yul\":8929:8930   */\n      0x00\n        /* \"#utility.yul\":8922:8927   */\n      dup3\n        /* \"#utility.yul\":8892:8931   */\n      tag_70\n      jump\t// in\n    tag_176:\n        /* \"#utility.yul\":8865:8866   */\n      0x01\n        /* \"#utility.yul\":8858:8863   */\n      dup2\n        /* \"#utility.yul\":8854:8867   */\n      add\n        /* \"#utility.yul\":8845:8867   */\n      swap1\n      pop\n        /* \"#utility.yul\":8821:8941   */\n      jump(tag_173)\n    tag_175:\n        /* \"#utility.yul\":8761:8947   */\n      pop\n      pop\n      jump\t// out\n        /* \"#utility.yul\":8953:9496   */\n    tag_72:\n        /* \"#utility.yul\":9054:9056   */\n      0x1f\n        /* \"#utility.yul\":9049:9052   */\n      dup3\n        /* \"#utility.yul\":9046:9057   */\n      gt\n        /* \"#utility.yul\":9043:9489   */\n      iszero\n      tag_178\n      jumpi\n        /* \"#utility.yul\":9088:9126   */\n      tag_179\n        /* \"#utility.yul\":9120:9125   */\n      dup2\n        /* \"#utility.yul\":9088:9126   */\n      tag_60\n      jump\t// in\n    tag_179:\n        /* \"#utility.yul\":9172:9201   */\n      tag_180\n        /* \"#utility.yul\":9190:9200   */\n      dup5\n        /* \"#utility.yul\":9172:9201   */\n      tag_61\n      jump\t// in\n    tag_180:\n        /* \"#utility.yul\":9162:9170   */\n      dup2\n        /* \"#utility.yul\":9158:9202   */\n      add\n        /* \"#utility.yul\":9355:9357   */\n      0x20\n        /* \"#utility.yul\":9343:9353   */\n      dup6\n        /* \"#utility.yul\":9340:9358   */\n      lt\n        /* \"#utility.yul\":9337:9386   */\n      iszero\n      tag_181\n      jumpi\n        /* \"#utility.yul\":9376:9384   */\n      dup2\n        /* \"#utility.yul\":9361:9384   */\n      swap1\n      pop\n        /* \"#utility.yul\":9337:9386   */\n    tag_181:\n        /* \"#utility.yul\":9399:9479   */\n      tag_182\n        /* \"#utility.yul\":9455:9477   */\n      tag_183\n        /* \"#utility.yul\":9473:9476   */\n      dup6\n        /* \"#utility.yul\":9455:9477   */\n      tag_61\n      jump\t// in\n    tag_183:\n        /* \"#utility.yul\":9445:9453   */\n      dup4\n        /* \"#utility.yul\":9441:9478   */\n      add\n        /* \"#utility.yul\":9428:9439   */\n      dup3\n        /* \"#utility.yul\":9399:9479   */\n      tag_71\n      jump\t// in\n    tag_182:\n        /* \"#utility.yul\":9058:9489   */\n      pop\n      pop\n        /* \"#utility.yul\":9043:9489   */\n    tag_178:\n        /* \"#utility.yul\":8953:9496   */\n      pop\n      pop\n      pop\n      jump\t// out\n        /* \"#utility.yul\":9502:9619   */\n    tag_73:\n        /* \"#utility.yul\":9556:9564   */\n      0x00\n        /* \"#utility.yul\":9606:9611   */\n      dup3\n        /* \"#utility.yul\":9600:9604   */\n      dup3\n        /* \"#utility.yul\":9596:9612   */\n      shr\n        /* \"#utility.yul\":9575:9612   */\n      swap1\n      pop\n        /* \"#utility.yul\":9502:9619   */\n      swap3\n      swap2\n      pop\n      pop\n      jump\t// out\n        /* \"#utility.yul\":9625:9794   */\n    tag_74:\n        /* \"#utility.yul\":9669:9675   */\n      0x00\n        /* \"#utility.yul\":9702:9753   */\n      tag_186\n        /* \"#utility.yul\":9750:9751   */\n      0x00\n        /* \"#utility.yul\":9746:9752   */\n      not\n        /* \"#utility.yul\":9738:9743   */\n      dup5\n        /* \"#utility.yul\":9735:9736   */\n      0x08\n        /* \"#utility.yul\":9731:9744   */\n      mul\n        /* \"#utility.yul\":9702:9753   */\n      tag_73\n      jump\t// in\n    tag_186:\n        /* \"#utility.yul\":9698:9754   */\n      not\n        /* \"#utility.yul\":9783:9787   */\n      dup1\n        /* \"#utility.yul\":9777:9781   */\n      dup4\n        /* \"#utility.yul\":9773:9788   */\n      and\n        /* \"#utility.yul\":9763:9788   */\n      swap2\n      pop\n        /* \"#utility.yul\":9676:9794   */\n      pop\n        /* \"#utility.yul\":9625:9794   */\n      swap3\n      swap2\n      pop\n      pop\n      jump\t// out\n        /* \"#utility.yul\":9799:10094   */\n    tag_75:\n        /* \"#utility.yul\":9875:9879   */\n      0x00\n        /* \"#utility.yul\":10021:10050   */\n      tag_188\n        /* \"#utility.yul\":10046:10049   */\n      dup4\n        /* \"#utility.yul\":10040:10044   */\n      dup4\n        /* \"#utility.yul\":10021:10050   */\n      tag_74\n      jump\t// in\n    tag_188:\n        /* \"#utility.yul\":10013:10050   */\n      swap2\n      pop\n        /* \"#utility.yul\":10083:10086   */\n      dup3\n        /* \"#utility.yul\":10080:10081   */\n      0x02\n        /* \"#utility.yul\":10076:10087   */\n      mul\n        /* \"#utility.yul\":10070:10074   */\n      dup3\n        /* \"#utility.yul\":10067:10088   */\n      or\n        /* \"#utility.yul\":10059:10088   */\n      swap1\n      pop\n        /* \"#utility.yul\":9799:10094   */\n      swap3\n      swap2\n      pop\n      pop\n      jump\t// out\n        /* \"#utility.yul\":10099:11494   */\n    tag_30:\n        /* \"#utility.yul\":10216:10253   */\n      tag_190\n        /* \"#utility.yul\":10249:10252   */\n      dup3\n        /* \"#utility.yul\":10216:10253   */\n      tag_53\n      jump\t// in\n    tag_190:\n        /* \"#utility.yul\":10318:10336   */\n      0xffffffffffffffff\n        /* \"#utility.yul\":10310:10316   */\n      dup2\n        /* \"#utility.yul\":10307:10337   */\n      gt\n        /* \"#utility.yul\":10304:10360   */\n      iszero\n      tag_191\n      jumpi\n        /* \"#utility.yul\":10340:10358   */\n      tag_192\n      tag_43\n      jump\t// in\n    tag_192:\n        /* \"#utility.yul\":10304:10360   */\n    tag_191:\n        /* \"#utility.yul\":10384:10422   */\n      tag_193\n        /* \"#utility.yul\":10416:10420   */\n      dup3\n        /* \"#utility.yul\":10410:10421   */\n      sload\n        /* \"#utility.yul\":10384:10422   */\n      tag_32\n      jump\t// in\n    tag_193:\n        /* \"#utility.yul\":10469:10536   */\n      tag_194\n        /* \"#utility.yul\":10529:10535   */\n      dup3\n        /* \"#utility.yul\":10521:10527   */\n      dup3\n        /* \"#utility.yul\":10515:10519   */\n      dup6\n        /* \"#utility.yul\":10469:10536   */\n      tag_72\n      jump\t// in\n    tag_194:\n        /* \"#utility.yul\":10563:10564   */\n      0x00\n        /* \"#utility.yul\":10587:10591   */\n      0x20\n        /* \"#utility.yul\":10574:10591   */\n      swap1\n      pop\n        /* \"#utility.yul\":10619:10621   */\n      0x1f\n        /* \"#utility.yul\":10611:10617   */\n      dup4\n        /* \"#utility.yul\":10608:10622   */\n      gt\n        /* \"#utility.yul\":10636:10637   */\n      0x01\n        /* \"#utility.yul\":10631:11249   */\n      dup2\n      eq\n      tag_196\n      jumpi\n        /* \"#utility.yul\":11293:11294   */\n      0x00\n        /* \"#utility.yul\":11310:11316   */\n      dup5\n        /* \"#utility.yul\":11307:11384   */\n      iszero\n      tag_197\n      jumpi\n        /* \"#utility.yul\":11359:11368   */\n      dup3\n        /* \"#utility.yul\":11354:11357   */\n      dup8\n        /* \"#utility.yul\":11350:11369   */\n      add\n        /* \"#utility.yul\":11344:11370   */\n      mload\n        /* \"#utility.yul\":11335:11370   */\n      swap1\n      pop\n        /* \"#utility.yul\":11307:11384   */\n    tag_197:\n        /* \"#utility.yul\":11410:11477   */\n      tag_198\n        /* \"#utility.yul\":11470:11476   */\n      dup6\n        /* \"#utility.yul\":11463:11468   */\n      dup3\n        /* \"#utility.yul\":11410:11477   */\n      tag_75\n      jump\t// in\n    tag_198:\n        /* \"#utility.yul\":11404:11408   */\n      dup7\n        /* \"#utility.yul\":11397:11478   */\n      sstore\n        /* \"#utility.yul\":11266:11488   */\n      pop\n        /* \"#utility.yul\":10601:11488   */\n      jump(tag_195)\n        /* \"#utility.yul\":10631:11249   */\n    tag_196:\n        /* \"#utility.yul\":10683:10687   */\n      0x1f\n        /* \"#utility.yul\":10679:10688   */\n      not\n        /* \"#utility.yul\":10671:10677   */\n      dup5\n        /* \"#utility.yul\":10667:10689   */\n      and\n        /* \"#utility.yul\":10717:10754   */\n      tag_199\n        /* \"#utility.yul\":10749:10753   */\n      dup7\n        /* \"#utility.yul\":10717:10754   */\n      tag_60\n      jump\t// in\n    tag_199:\n        /* \"#utility.yul\":10776:10777   */\n      0x00\n        /* \"#utility.yul\":10790:10998   */\n    tag_200:\n        /* \"#utility.yul\":10804:10811   */\n      dup3\n        /* \"#utility.yul\":10801:10802   */\n      dup2\n        /* \"#utility.yul\":10798:10812   */\n      lt\n        /* \"#utility.yul\":10790:10998   */\n      iszero\n      tag_202\n      jumpi\n        /* \"#utility.yul\":10883:10892   */\n      dup5\n        /* \"#utility.yul\":10878:10881   */\n      dup10\n        /* \"#utility.yul\":10874:10893   */\n      add\n        /* \"#utility.yul\":10868:10894   */\n      mload\n        /* \"#utility.yul\":10860:10866   */\n      dup3\n        /* \"#utility.yul\":10853:10895   */\n      sstore\n        /* \"#utility.yul\":10934:10935   */\n      0x01\n        /* \"#utility.yul\":10926:10932   */\n      dup3\n        /* \"#utility.yul\":10922:10936   */\n      add\n        /* \"#utility.yul\":10912:10936   */\n      swap2\n      pop\n        /* \"#utility.yul\":10981:10983   */\n      0x20\n        /* \"#utility.yul\":10970:10979   */\n      dup6\n        /* \"#utility.yul\":10966:10984   */\n      add\n        /* \"#utility.yul\":10953:10984   */\n      swap5\n      pop\n        /* \"#utility.yul\":10827:10831   */\n      0x20\n        /* \"#utility.yul\":10824:10825   */\n      dup2\n        /* \"#utility.yul\":10820:10832   */\n      add\n        /* \"#utility.yul\":10815:10832   */\n      swap1\n      pop\n        /* \"#utility.yul\":10790:10998   */\n      jump(tag_200)\n    tag_202:\n        /* \"#utility.yul\":11026:11032   */\n      dup7\n        /* \"#utility.yul\":11017:11024   */\n      dup4\n        /* \"#utility.yul\":11014:11033   */\n      lt\n        /* \"#utility.yul\":11011:11190   */\n      iszero\n      tag_203\n      jumpi\n        /* \"#utility.yul\":11084:11093   */\n      dup5\n        /* \"#utility.yul\":11079:11082   */\n      dup10\n        /* \"#utility.yul\":11075:11094   */\n      add\n        /* \"#utility.yul\":11069:11095   */\n      mload\n        /* \"#utility.yul\":11127:11175   */\n      tag_204\n        /* \"#utility.yul\":11169:11173   */\n      0x1f\n        /* \"#utility.yul\":11161:11167   */\n      dup10\n        /* \"#utility.yul\":11157:11174   */\n      and\n        /* \"#utility.yul\":11146:11155   */\n      dup3\n        /* \"#utility.yul\":11127:11175   */\n      tag_74\n      jump\t// in\n    tag_204:\n        /* \"#utility.yul\":11119:11125   */\n      dup4\n        /* \"#utility.yul\":11112:11176   */\n      sstore\n        /* \"#utility.yul\":11034:11190   */\n      pop\n        /* \"#utility.yul\":11011:11190   */\n    tag_203:\n        /* \"#utility.yul\":11236:11237   */\n      0x01\n        /* \"#utility.yul\":11232:11233   */\n      0x02\n        /* \"#utility.yul\":11224:11230   */\n      dup9\n        /* \"#utility.yul\":11220:11234   */\n      mul\n        /* \"#utility.yul\":11216:11238   */\n      add\n        /* \"#utility.yul\":11210:11214   */\n      dup9\n        /* \"#utility.yul\":11203:11239   */\n      sstore\n        /* \"#utility.yul\":10638:11249   */\n      pop\n      pop\n      pop\n        /* \"#utility.yul\":10601:11488   */\n    tag_195:\n      pop\n        /* \"#utility.yul\":10191:11494   */\n      pop\n      pop\n      pop\n        /* \"#utility.yul\":10099:11494   */\n      pop\n      pop\n      jump\t// out\n    stop\n\n    sub_0: assembly {\n            /* \"FakeProdIden.sol\":652:3634  contract FakeProdIden... */\n          mstore(0x40, 0x80)\n          callvalue\n          dup1\n          iszero\n          tag_1\n          jumpi\n          0x00\n          dup1\n          revert\n        tag_1:\n          pop\n          dataSize(sub_0)\n          dup1\n          dataOffset(sub_0)\n          0x00\n          codecopy\n          0x00\n          return\n        stop\n\n        sub_0: assembly {\n                /* \"FakeProdIden.sol\":652:3634  contract FakeProdIden... */\n              mstore(0x40, 0x80)\n              callvalue\n              dup1\n              iszero\n              tag_1\n              jumpi\n              0x00\n              dup1\n              revert\n            tag_1:\n              pop\n              jumpi(tag_2, lt(calldatasize, 0x04))\n              shr(0xe0, calldataload(0x00))\n              dup1\n              0xc0effb7d\n              gt\n              tag_11\n              jumpi\n              dup1\n              0xc0effb7d\n              eq\n              tag_7\n              jumpi\n              dup1\n              0xd8ce6572\n              eq\n              tag_8\n              jumpi\n              dup1\n              0xe47766ff\n              eq\n              tag_9\n              jumpi\n              dup1\n              0xea42c7ef\n              eq\n              tag_10\n              jumpi\n              jump(tag_2)\n            tag_11:\n              dup1\n              0x0e34b00e\n              eq\n              tag_3\n              jumpi\n              dup1\n              0x220f8ade\n              eq\n              tag_4\n              jumpi\n              dup1\n              0x7f975a37\n              eq\n              tag_5\n              jumpi\n              dup1\n              0xb15bf255\n              eq\n              tag_6\n              jumpi\n            tag_2:\n              0x00\n              dup1\n              revert\n                /* \"FakeProdIden.sol\":1661:1888  function addProduct(string memory id, string memory name, string memory brandName) public... */\n            tag_3:\n              tag_12\n              0x04\n              dup1\n              calldatasize\n              sub\n              dup2\n              add\n              swap1\n              tag_13\n              swap2\n              swap1\n              tag_14\n              jump\t// in\n            tag_13:\n              tag_15\n              jump\t// in\n            tag_12:\n              stop\n                /* \"FakeProdIden.sol\":3012:3629  function productVerification(string memory prodId, uint32 consumerCode) public view returns(bool) ... */\n            tag_4:\n              tag_16\n              0x04\n              dup1\n              calldatasize\n              sub\n              dup2\n              add\n              swap1\n              tag_17\n              swap2\n              swap1\n              tag_18\n              jump\t// in\n            tag_17:\n              tag_19\n              jump\t// in\n            tag_16:\n              mload(0x40)\n              tag_20\n              swap2\n              swap1\n              tag_21\n              jump\t// in\n            tag_20:\n              mload(0x40)\n              dup1\n              swap2\n              sub\n              swap1\n              return\n                /* \"FakeProdIden.sol\":2639:2953  function sellToConsumer(string memory prodId, uint32 consumerCode) public ... */\n            tag_5:\n              tag_22\n              0x04\n              dup1\n              calldatasize\n              sub\n              dup2\n              add\n              swap1\n              tag_23\n              swap2\n              swap1\n              tag_18\n              jump\t// in\n            tag_23:\n              tag_24\n              jump\t// in\n            tag_22:\n              stop\n                /* \"FakeProdIden.sol\":1409:1457  mapping(string => Product) public productStorage */\n            tag_6:\n              tag_25\n              0x04\n              dup1\n              calldatasize\n              sub\n              dup2\n              add\n              swap1\n              tag_26\n              swap2\n              swap1\n              tag_27\n              jump\t// in\n            tag_26:\n              tag_28\n              jump\t// in\n            tag_25:\n              mload(0x40)\n              tag_29\n              swap6\n              swap5\n              swap4\n              swap3\n              swap2\n              swap1\n              tag_30\n              jump\t// in\n            tag_29:\n              mload(0x40)\n              dup1\n              swap2\n              sub\n              swap1\n              return\n                /* \"FakeProdIden.sol\":1960:2346  function sellToSeller(string memory prodId, string memory sellerid) public ... */\n            tag_7:\n              tag_31\n              0x04\n              dup1\n              calldatasize\n              sub\n              dup2\n              add\n              swap1\n              tag_32\n              swap2\n              swap1\n              tag_33\n              jump\t// in\n            tag_32:\n              tag_34\n              jump\t// in\n            tag_31:\n              stop\n                /* \"FakeProdIden.sol\":1221:1277  mapping(string => reachSeller) public hasReachedToSeller */\n            tag_8:\n              tag_35\n              0x04\n              dup1\n              calldatasize\n              sub\n              dup2\n              add\n              swap1\n              tag_36\n              swap2\n              swap1\n              tag_27\n              jump\t// in\n            tag_36:\n              tag_37\n              jump\t// in\n            tag_35:\n              mload(0x40)\n              tag_38\n              swap3\n              swap2\n              swap1\n              tag_39\n              jump\t// in\n            tag_38:\n              mload(0x40)\n              dup1\n              swap2\n              sub\n              swap1\n              return\n                /* \"FakeProdIden.sol\":2440:2569  function addSellers(string memory sellerId) public ... */\n            tag_9:\n              tag_40\n              0x04\n              dup1\n              calldatasize\n              sub\n              dup2\n              add\n              swap1\n              tag_41\n              swap2\n              swap1\n              tag_27\n              jump\t// in\n            tag_41:\n              tag_42\n              jump\t// in\n            tag_40:\n              stop\n                /* \"FakeProdIden.sol\":1507:1558  mapping(string => SellerInfo) public allSellersInfo */\n            tag_10:\n              tag_43\n              0x04\n              dup1\n              calldatasize\n              sub\n              dup2\n              add\n              swap1\n              tag_44\n              swap2\n              swap1\n              tag_27\n              jump\t// in\n            tag_44:\n              tag_45\n              jump\t// in\n            tag_43:\n              mload(0x40)\n              tag_46\n              swap3\n              swap2\n              swap1\n              tag_39\n              jump\t// in\n            tag_46:\n              mload(0x40)\n              dup1\n              swap2\n              sub\n              swap1\n              return\n                /* \"FakeProdIden.sol\":1661:1888  function addProduct(string memory id, string memory name, string memory brandName) public... */\n            tag_15:\n                /* \"FakeProdIden.sol\":1805:1810  false */\n              0x00\n                /* \"FakeProdIden.sol\":1775:1810  productStorage[id].hasmade == false */\n              iszero\n              iszero\n                /* \"FakeProdIden.sol\":1775:1789  productStorage */\n              0x01\n                /* \"FakeProdIden.sol\":1790:1792  id */\n              dup5\n                /* \"FakeProdIden.sol\":1775:1793  productStorage[id] */\n              mload(0x40)\n              tag_48\n              swap2\n              swap1\n              tag_49\n              jump\t// in\n            tag_48:\n              swap1\n              dup2\n              mstore\n              0x20\n              add\n              mload(0x40)\n              dup1\n              swap2\n              sub\n              swap1\n              keccak256\n                /* \"FakeProdIden.sol\":1775:1801  productStorage[id].hasmade */\n              0x03\n              add\n              0x00\n              swap1\n              sload\n              swap1\n              0x0100\n              exp\n              swap1\n              div\n              0xff\n              and\n                /* \"FakeProdIden.sol\":1775:1810  productStorage[id].hasmade == false */\n              iszero\n              iszero\n              eq\n                /* \"FakeProdIden.sol\":1767:1811  require(productStorage[id].hasmade == false) */\n              tag_50\n              jumpi\n              0x00\n              dup1\n              revert\n            tag_50:\n                /* \"FakeProdIden.sol\":1843:1880  Product(id, name, brandName, true, 0) */\n              mload(0x40)\n              dup1\n              0xa0\n              add\n              0x40\n              mstore\n              dup1\n                /* \"FakeProdIden.sol\":1851:1853  id */\n              dup5\n                /* \"FakeProdIden.sol\":1843:1880  Product(id, name, brandName, true, 0) */\n              dup2\n              mstore\n              0x20\n              add\n                /* \"FakeProdIden.sol\":1855:1859  name */\n              dup4\n                /* \"FakeProdIden.sol\":1843:1880  Product(id, name, brandName, true, 0) */\n              dup2\n              mstore\n              0x20\n              add\n                /* \"FakeProdIden.sol\":1861:1870  brandName */\n              dup3\n                /* \"FakeProdIden.sol\":1843:1880  Product(id, name, brandName, true, 0) */\n              dup2\n              mstore\n              0x20\n              add\n                /* \"FakeProdIden.sol\":1872:1876  true */\n              0x01\n                /* \"FakeProdIden.sol\":1843:1880  Product(id, name, brandName, true, 0) */\n              iszero\n              iszero\n              dup2\n              mstore\n              0x20\n              add\n                /* \"FakeProdIden.sol\":1878:1879  0 */\n              0x00\n                /* \"FakeProdIden.sol\":1843:1880  Product(id, name, brandName, true, 0) */\n              0xffffffff\n              and\n              dup2\n              mstore\n              pop\n                /* \"FakeProdIden.sol\":1822:1836  productStorage */\n              0x01\n                /* \"FakeProdIden.sol\":1837:1839  id */\n              dup5\n                /* \"FakeProdIden.sol\":1822:1840  productStorage[id] */\n              mload(0x40)\n              tag_51\n              swap2\n              swap1\n              tag_49\n              jump\t// in\n            tag_51:\n              swap1\n              dup2\n              mstore\n              0x20\n              add\n              mload(0x40)\n              dup1\n              swap2\n              sub\n              swap1\n              keccak256\n                /* \"FakeProdIden.sol\":1822:1880  productStorage[id] = Product(id, name, brandName, true, 0) */\n              0x00\n              dup3\n              add\n              mload\n              dup2\n              0x00\n              add\n              swap1\n              dup2\n              tag_52\n              swap2\n              swap1\n              tag_53\n              jump\t// in\n            tag_52:\n              pop\n              0x20\n              dup3\n              add\n              mload\n              dup2\n              0x01\n              add\n              swap1\n              dup2\n              tag_54\n              swap2\n              swap1\n              tag_53\n              jump\t// in\n            tag_54:\n              pop\n              0x40\n              dup3\n              add\n              mload\n              dup2\n              0x02\n              add\n              swap1\n              dup2\n              tag_55\n              swap2\n              swap1\n              tag_53\n              jump\t// in\n            tag_55:\n              pop\n              0x60\n              dup3\n              add\n              mload\n              dup2\n              0x03\n              add\n              exp(0x0100, 0x00)\n              dup2\n              sload\n              dup2\n              0xff\n              mul\n              not\n              and\n              swap1\n              dup4\n              iszero\n              iszero\n              mul\n              or\n              swap1\n              sstore\n              pop\n              0x80\n              dup3\n              add\n              mload\n              dup2\n              0x03\n              add\n              exp(0x0100, 0x01)\n              dup2\n              sload\n              dup2\n              0xffffffff\n              mul\n              not\n              and\n              swap1\n              dup4\n              0xffffffff\n              and\n              mul\n              or\n              swap1\n              sstore\n              pop\n              swap1\n              pop\n              pop\n                /* \"FakeProdIden.sol\":1661:1888  function addProduct(string memory id, string memory name, string memory brandName) public... */\n              pop\n              pop\n              pop\n              jump\t// out\n                /* \"FakeProdIden.sol\":3012:3629  function productVerification(string memory prodId, uint32 consumerCode) public view returns(bool) ... */\n            tag_19:\n                /* \"FakeProdIden.sol\":3104:3108  bool */\n              0x00\n                /* \"FakeProdIden.sol\":3450:3454  true */\n              0x01\n                /* \"FakeProdIden.sol\":3409:3454  hasReachedToSeller[prodId].hasReached == true */\n              iszero\n              iszero\n                /* \"FakeProdIden.sol\":3409:3427  hasReachedToSeller */\n              0x00\n                /* \"FakeProdIden.sol\":3428:3434  prodId */\n              dup5\n                /* \"FakeProdIden.sol\":3409:3435  hasReachedToSeller[prodId] */\n              mload(0x40)\n              tag_57\n              swap2\n              swap1\n              tag_49\n              jump\t// in\n            tag_57:\n              swap1\n              dup2\n              mstore\n              0x20\n              add\n              mload(0x40)\n              dup1\n              swap2\n              sub\n              swap1\n              keccak256\n                /* \"FakeProdIden.sol\":3409:3446  hasReachedToSeller[prodId].hasReached */\n              0x01\n              add\n              0x00\n              swap1\n              sload\n              swap1\n              0x0100\n              exp\n              swap1\n              div\n              0xff\n              and\n                /* \"FakeProdIden.sol\":3409:3454  hasReachedToSeller[prodId].hasReached == true */\n              iszero\n              iszero\n              eq\n                /* \"FakeProdIden.sol\":3409:3510  hasReachedToSeller[prodId].hasReached == true  && productStorage[prodId].consumerCode == consumerCode */\n              dup1\n              iszero\n              tag_58\n              jumpi\n              pop\n                /* \"FakeProdIden.sol\":3498:3510  consumerCode */\n              dup2\n                /* \"FakeProdIden.sol\":3459:3510  productStorage[prodId].consumerCode == consumerCode */\n              0xffffffff\n              and\n                /* \"FakeProdIden.sol\":3459:3473  productStorage */\n              0x01\n                /* \"FakeProdIden.sol\":3474:3480  prodId */\n              dup5\n                /* \"FakeProdIden.sol\":3459:3481  productStorage[prodId] */\n              mload(0x40)\n              tag_59\n              swap2\n              swap1\n              tag_49\n              jump\t// in\n            tag_59:\n              swap1\n              dup2\n              mstore\n              0x20\n              add\n              mload(0x40)\n              dup1\n              swap2\n              sub\n              swap1\n              keccak256\n                /* \"FakeProdIden.sol\":3459:3494  productStorage[prodId].consumerCode */\n              0x03\n              add\n              0x01\n              swap1\n              sload\n              swap1\n              0x0100\n              exp\n              swap1\n              div\n              0xffffffff\n              and\n                /* \"FakeProdIden.sol\":3459:3510  productStorage[prodId].consumerCode == consumerCode */\n              0xffffffff\n              and\n              eq\n                /* \"FakeProdIden.sol\":3409:3510  hasReachedToSeller[prodId].hasReached == true  && productStorage[prodId].consumerCode == consumerCode */\n            tag_58:\n                /* \"FakeProdIden.sol\":3406:3622  if(hasReachedToSeller[prodId].hasReached == true  && productStorage[prodId].consumerCode == consumerCode)... */\n              iszero\n              tag_60\n              jumpi\n                /* \"FakeProdIden.sol\":3543:3547  true */\n              0x01\n                /* \"FakeProdIden.sol\":3536:3547  return true */\n              swap1\n              pop\n              jump(tag_56)\n                /* \"FakeProdIden.sol\":3406:3622  if(hasReachedToSeller[prodId].hasReached == true  && productStorage[prodId].consumerCode == consumerCode)... */\n            tag_60:\n                /* \"FakeProdIden.sol\":3605:3610  false */\n              0x00\n                /* \"FakeProdIden.sol\":3598:3610  return false */\n              swap1\n              pop\n                /* \"FakeProdIden.sol\":3012:3629  function productVerification(string memory prodId, uint32 consumerCode) public view returns(bool) ... */\n            tag_56:\n              swap3\n              swap2\n              pop\n              pop\n              jump\t// out\n                /* \"FakeProdIden.sol\":2639:2953  function sellToConsumer(string memory prodId, uint32 consumerCode) public ... */\n            tag_24:\n                /* \"FakeProdIden.sol\":2772:2776  true */\n              0x01\n                /* \"FakeProdIden.sol\":2738:2776  productStorage[prodId].hasmade == true */\n              iszero\n              iszero\n                /* \"FakeProdIden.sol\":2738:2752  productStorage */\n              0x01\n                /* \"FakeProdIden.sol\":2753:2759  prodId */\n              dup4\n                /* \"FakeProdIden.sol\":2738:2760  productStorage[prodId] */\n              mload(0x40)\n              tag_63\n              swap2\n              swap1\n              tag_49\n              jump\t// in\n            tag_63:\n              swap1\n              dup2\n              mstore\n              0x20\n              add\n              mload(0x40)\n              dup1\n              swap2\n              sub\n              swap1\n              keccak256\n                /* \"FakeProdIden.sol\":2738:2768  productStorage[prodId].hasmade */\n              0x03\n              add\n              0x00\n              swap1\n              sload\n              swap1\n              0x0100\n              exp\n              swap1\n              div\n              0xff\n              and\n                /* \"FakeProdIden.sol\":2738:2776  productStorage[prodId].hasmade == true */\n              iszero\n              iszero\n              eq\n                /* \"FakeProdIden.sol\":2730:2777  require(productStorage[prodId].hasmade == true) */\n              tag_64\n              jumpi\n              0x00\n              dup1\n              revert\n            tag_64:\n                /* \"FakeProdIden.sol\":2933:2945  consumerCode */\n              dup1\n                /* \"FakeProdIden.sol\":2895:2909  productStorage */\n              0x01\n                /* \"FakeProdIden.sol\":2910:2916  prodId */\n              dup4\n                /* \"FakeProdIden.sol\":2895:2917  productStorage[prodId] */\n              mload(0x40)\n              tag_65\n              swap2\n              swap1\n              tag_49\n              jump\t// in\n            tag_65:\n              swap1\n              dup2\n              mstore\n              0x20\n              add\n              mload(0x40)\n              dup1\n              swap2\n              sub\n              swap1\n              keccak256\n                /* \"FakeProdIden.sol\":2895:2930  productStorage[prodId].consumerCode */\n              0x03\n              add\n              0x01\n                /* \"FakeProdIden.sol\":2895:2945  productStorage[prodId].consumerCode = consumerCode */\n              0x0100\n              exp\n              dup2\n              sload\n              dup2\n              0xffffffff\n              mul\n              not\n              and\n              swap1\n              dup4\n              0xffffffff\n              and\n              mul\n              or\n              swap1\n              sstore\n              pop\n                /* \"FakeProdIden.sol\":2639:2953  function sellToConsumer(string memory prodId, uint32 consumerCode) public ... */\n              pop\n              pop\n              jump\t// out\n                /* \"FakeProdIden.sol\":1409:1457  mapping(string => Product) public productStorage */\n            tag_28:\n              0x01\n              dup2\n              dup1\n              mload\n              0x20\n              dup2\n              add\n              dup3\n              add\n              dup1\n              mload\n              dup5\n              dup3\n              mstore\n              0x20\n              dup4\n              add\n              0x20\n              dup6\n              add\n              keccak256\n              dup2\n              dup4\n              mstore\n              dup1\n              swap6\n              pop\n              pop\n              pop\n              pop\n              pop\n              pop\n              0x00\n              swap2\n              pop\n              swap1\n              pop\n              dup1\n              0x00\n              add\n              dup1\n              sload\n              tag_66\n              swap1\n              tag_67\n              jump\t// in\n            tag_66:\n              dup1\n              0x1f\n              add\n              0x20\n              dup1\n              swap2\n              div\n              mul\n              0x20\n              add\n              mload(0x40)\n              swap1\n              dup2\n              add\n              0x40\n              mstore\n              dup1\n              swap3\n              swap2\n              swap1\n              dup2\n              dup2\n              mstore\n              0x20\n              add\n              dup3\n              dup1\n              sload\n              tag_68\n              swap1\n              tag_67\n              jump\t// in\n            tag_68:\n              dup1\n              iszero\n              tag_69\n              jumpi\n              dup1\n              0x1f\n              lt\n              tag_70\n              jumpi\n              0x0100\n              dup1\n              dup4\n              sload\n              div\n              mul\n              dup4\n              mstore\n              swap2\n              0x20\n              add\n              swap2\n              jump(tag_69)\n            tag_70:\n              dup3\n              add\n              swap2\n              swap1\n              0x00\n              mstore\n              keccak256(0x00, 0x20)\n              swap1\n            tag_71:\n              dup2\n              sload\n              dup2\n              mstore\n              swap1\n              0x01\n              add\n              swap1\n              0x20\n              add\n              dup1\n              dup4\n              gt\n              tag_71\n              jumpi\n              dup3\n              swap1\n              sub\n              0x1f\n              and\n              dup3\n              add\n              swap2\n            tag_69:\n              pop\n              pop\n              pop\n              pop\n              pop\n              swap1\n              dup1\n              0x01\n              add\n              dup1\n              sload\n              tag_72\n              swap1\n              tag_67\n              jump\t// in\n            tag_72:\n              dup1\n              0x1f\n              add\n              0x20\n              dup1\n              swap2\n              div\n              mul\n              0x20\n              add\n              mload(0x40)\n              swap1\n              dup2\n              add\n              0x40\n              mstore\n              dup1\n              swap3\n              swap2\n              swap1\n              dup2\n              dup2\n              mstore\n              0x20\n              add\n              dup3\n              dup1\n              sload\n              tag_73\n              swap1\n              tag_67\n              jump\t// in\n            tag_73:\n              dup1\n              iszero\n              tag_74\n              jumpi\n              dup1\n              0x1f\n              lt\n              tag_75\n              jumpi\n              0x0100\n              dup1\n              dup4\n              sload\n              div\n              mul\n              dup4\n              mstore\n              swap2\n              0x20\n              add\n              swap2\n              jump(tag_74)\n            tag_75:\n              dup3\n              add\n              swap2\n              swap1\n              0x00\n              mstore\n              keccak256(0x00, 0x20)\n              swap1\n            tag_76:\n              dup2\n              sload\n              dup2\n              mstore\n              swap1\n              0x01\n              add\n              swap1\n              0x20\n              add\n              dup1\n              dup4\n              gt\n              tag_76\n              jumpi\n              dup3\n              swap1\n              sub\n              0x1f\n              and\n              dup3\n              add\n              swap2\n            tag_74:\n              pop\n              pop\n              pop\n              pop\n              pop\n              swap1\n              dup1\n              0x02\n              add\n              dup1\n              sload\n              tag_77\n              swap1\n              tag_67\n              jump\t// in\n            tag_77:\n              dup1\n              0x1f\n              add\n              0x20\n              dup1\n              swap2\n              div\n              mul\n              0x20\n              add\n              mload(0x40)\n              swap1\n              dup2\n              add\n              0x40\n              mstore\n              dup1\n              swap3\n              swap2\n              swap1\n              dup2\n              dup2\n              mstore\n              0x20\n              add\n              dup3\n              dup1\n              sload\n              tag_78\n              swap1\n              tag_67\n              jump\t// in\n            tag_78:\n              dup1\n              iszero\n              tag_79\n              jumpi\n              dup1\n              0x1f\n              lt\n              tag_80\n              jumpi\n              0x0100\n              dup1\n              dup4\n              sload\n              div\n              mul\n              dup4\n              mstore\n              swap2\n              0x20\n              add\n              swap2\n              jump(tag_79)\n            tag_80:\n              dup3\n              add\n              swap2\n              swap1\n              0x00\n              mstore\n              keccak256(0x00, 0x20)\n              swap1\n            tag_81:\n              dup2\n              sload\n              dup2\n              mstore\n              swap1\n              0x01\n              add\n              swap1\n              0x20\n              add\n              dup1\n              dup4\n              gt\n              tag_81\n              jumpi\n              dup3\n              swap1\n              sub\n              0x1f\n              and\n              dup3\n              add\n              swap2\n            tag_79:\n              pop\n              pop\n              pop\n              pop\n              pop\n              swap1\n              dup1\n              0x03\n              add\n              0x00\n              swap1\n              sload\n              swap1\n              0x0100\n              exp\n              swap1\n              div\n              0xff\n              and\n              swap1\n              dup1\n              0x03\n              add\n              0x01\n              swap1\n              sload\n              swap1\n              0x0100\n              exp\n              swap1\n              div\n              0xffffffff\n              and\n              swap1\n              pop\n              dup6\n              jump\t// out\n                /* \"FakeProdIden.sol\":1960:2346  function sellToSeller(string memory prodId, string memory sellerid) public ... */\n            tag_34:\n                /* \"FakeProdIden.sol\":2094:2098  true */\n              0x01\n                /* \"FakeProdIden.sol\":2060:2098  productStorage[prodId].hasmade == true */\n              iszero\n              iszero\n                /* \"FakeProdIden.sol\":2060:2074  productStorage */\n              0x01\n                /* \"FakeProdIden.sol\":2075:2081  prodId */\n              dup4\n                /* \"FakeProdIden.sol\":2060:2082  productStorage[prodId] */\n              mload(0x40)\n              tag_83\n              swap2\n              swap1\n              tag_49\n              jump\t// in\n            tag_83:\n              swap1\n              dup2\n              mstore\n              0x20\n              add\n              mload(0x40)\n              dup1\n              swap2\n              sub\n              swap1\n              keccak256\n                /* \"FakeProdIden.sol\":2060:2090  productStorage[prodId].hasmade */\n              0x03\n              add\n              0x00\n              swap1\n              sload\n              swap1\n              0x0100\n              exp\n              swap1\n              div\n              0xff\n              and\n                /* \"FakeProdIden.sol\":2060:2098  productStorage[prodId].hasmade == true */\n              iszero\n              iszero\n              eq\n                /* \"FakeProdIden.sol\":2052:2099  require(productStorage[prodId].hasmade == true) */\n              tag_84\n              jumpi\n              0x00\n              dup1\n              revert\n            tag_84:\n                /* \"FakeProdIden.sol\":2159:2164  false */\n              0x00\n                /* \"FakeProdIden.sol\":2118:2164  hasReachedToSeller[prodId].hasReached == false */\n              iszero\n              iszero\n                /* \"FakeProdIden.sol\":2118:2136  hasReachedToSeller */\n              0x00\n                /* \"FakeProdIden.sol\":2137:2143  prodId */\n              dup4\n                /* \"FakeProdIden.sol\":2118:2144  hasReachedToSeller[prodId] */\n              mload(0x40)\n              tag_85\n              swap2\n              swap1\n              tag_49\n              jump\t// in\n            tag_85:\n              swap1\n              dup2\n              mstore\n              0x20\n              add\n              mload(0x40)\n              dup1\n              swap2\n              sub\n              swap1\n              keccak256\n                /* \"FakeProdIden.sol\":2118:2155  hasReachedToSeller[prodId].hasReached */\n              0x01\n              add\n              0x00\n              swap1\n              sload\n              swap1\n              0x0100\n              exp\n              swap1\n              div\n              0xff\n              and\n                /* \"FakeProdIden.sol\":2118:2164  hasReachedToSeller[prodId].hasReached == false */\n              iszero\n              iszero\n              eq\n                /* \"FakeProdIden.sol\":2110:2165  require(hasReachedToSeller[prodId].hasReached == false) */\n              tag_86\n              jumpi\n              0x00\n              dup1\n              revert\n            tag_86:\n                /* \"FakeProdIden.sol\":2218:2222  true */\n              0x01\n                /* \"FakeProdIden.sol\":2184:2222  allSellersInfo[sellerid].exist == true */\n              iszero\n              iszero\n                /* \"FakeProdIden.sol\":2184:2198  allSellersInfo */\n              0x02\n                /* \"FakeProdIden.sol\":2199:2207  sellerid */\n              dup3\n                /* \"FakeProdIden.sol\":2184:2208  allSellersInfo[sellerid] */\n              mload(0x40)\n              tag_87\n              swap2\n              swap1\n              tag_49\n              jump\t// in\n            tag_87:\n              swap1\n              dup2\n              mstore\n              0x20\n              add\n              mload(0x40)\n              dup1\n              swap2\n              sub\n              swap1\n              keccak256\n                /* \"FakeProdIden.sol\":2184:2214  allSellersInfo[sellerid].exist */\n              0x01\n              add\n              0x00\n              swap1\n              sload\n              swap1\n              0x0100\n              exp\n              swap1\n              div\n              0xff\n              and\n                /* \"FakeProdIden.sol\":2184:2222  allSellersInfo[sellerid].exist == true */\n              iszero\n              iszero\n              eq\n                /* \"FakeProdIden.sol\":2176:2223  require(allSellersInfo[sellerid].exist == true) */\n              tag_88\n              jumpi\n              0x00\n              dup1\n              revert\n            tag_88:\n                /* \"FakeProdIden.sol\":2272:2280  sellerid */\n              dup1\n                /* \"FakeProdIden.sol\":2234:2252  hasReachedToSeller */\n              0x00\n                /* \"FakeProdIden.sol\":2253:2259  prodId */\n              dup4\n                /* \"FakeProdIden.sol\":2234:2260  hasReachedToSeller[prodId] */\n              mload(0x40)\n              tag_89\n              swap2\n              swap1\n              tag_49\n              jump\t// in\n            tag_89:\n              swap1\n              dup2\n              mstore\n              0x20\n              add\n              mload(0x40)\n              dup1\n              swap2\n              sub\n              swap1\n              keccak256\n                /* \"FakeProdIden.sol\":2234:2269  hasReachedToSeller[prodId].sellerId */\n              0x00\n              add\n                /* \"FakeProdIden.sol\":2234:2280  hasReachedToSeller[prodId].sellerId = sellerid */\n              swap1\n              dup2\n              tag_90\n              swap2\n              swap1\n              tag_53\n              jump\t// in\n            tag_90:\n              pop\n                /* \"FakeProdIden.sol\":2331:2335  true */\n              0x01\n                /* \"FakeProdIden.sol\":2291:2309  hasReachedToSeller */\n              0x00\n                /* \"FakeProdIden.sol\":2310:2316  prodId */\n              dup4\n                /* \"FakeProdIden.sol\":2291:2317  hasReachedToSeller[prodId] */\n              mload(0x40)\n              tag_91\n              swap2\n              swap1\n              tag_49\n              jump\t// in\n            tag_91:\n              swap1\n              dup2\n              mstore\n              0x20\n              add\n              mload(0x40)\n              dup1\n              swap2\n              sub\n              swap1\n              keccak256\n                /* \"FakeProdIden.sol\":2291:2328  hasReachedToSeller[prodId].hasReached */\n              0x01\n              add\n              0x00\n                /* \"FakeProdIden.sol\":2291:2335  hasReachedToSeller[prodId].hasReached = true */\n              0x0100\n              exp\n              dup2\n              sload\n              dup2\n              0xff\n              mul\n              not\n              and\n              swap1\n              dup4\n              iszero\n              iszero\n              mul\n              or\n              swap1\n              sstore\n              pop\n                /* \"FakeProdIden.sol\":1960:2346  function sellToSeller(string memory prodId, string memory sellerid) public ... */\n              pop\n              pop\n              jump\t// out\n                /* \"FakeProdIden.sol\":1221:1277  mapping(string => reachSeller) public hasReachedToSeller */\n            tag_37:\n              0x00\n              dup2\n              dup1\n              mload\n              0x20\n              dup2\n              add\n              dup3\n              add\n              dup1\n              mload\n              dup5\n              dup3\n              mstore\n              0x20\n              dup4\n              add\n              0x20\n              dup6\n              add\n              keccak256\n              dup2\n              dup4\n              mstore\n              dup1\n              swap6\n              pop\n              pop\n              pop\n              pop\n              pop\n              pop\n              0x00\n              swap2\n              pop\n              swap1\n              pop\n              dup1\n              0x00\n              add\n              dup1\n              sload\n              tag_92\n              swap1\n              tag_67\n              jump\t// in\n            tag_92:\n              dup1\n              0x1f\n              add\n              0x20\n              dup1\n              swap2\n              div\n              mul\n              0x20\n              add\n              mload(0x40)\n              swap1\n              dup2\n              add\n              0x40\n              mstore\n              dup1\n              swap3\n              swap2\n              swap1\n              dup2\n              dup2\n              mstore\n              0x20\n              add\n              dup3\n              dup1\n              sload\n              tag_93\n              swap1\n              tag_67\n              jump\t// in\n            tag_93:\n              dup1\n              iszero\n              tag_94\n              jumpi\n              dup1\n              0x1f\n              lt\n              tag_95\n              jumpi\n              0x0100\n              dup1\n              dup4\n              sload\n              div\n              mul\n              dup4\n              mstore\n              swap2\n              0x20\n              add\n              swap2\n              jump(tag_94)\n            tag_95:\n              dup3\n              add\n              swap2\n              swap1\n              0x00\n              mstore\n              keccak256(0x00, 0x20)\n              swap1\n            tag_96:\n              dup2\n              sload\n              dup2\n              mstore\n              swap1\n              0x01\n              add\n              swap1\n              0x20\n              add\n              dup1\n              dup4\n              gt\n              tag_96\n              jumpi\n              dup3\n              swap1\n              sub\n              0x1f\n              and\n              dup3\n              add\n              swap2\n            tag_94:\n              pop\n              pop\n              pop\n              pop\n              pop\n              swap1\n              dup1\n              0x01\n              add\n              0x00\n              swap1\n              sload\n              swap1\n              0x0100\n              exp\n              swap1\n              div\n              0xff\n              and\n              swap1\n              pop\n              dup3\n              jump\t// out\n                /* \"FakeProdIden.sol\":2440:2569  function addSellers(string memory sellerId) public ... */\n            tag_42:\n                /* \"FakeProdIden.sol\":2535:2561  SellerInfo(sellerId, true) */\n              mload(0x40)\n              dup1\n              0x40\n              add\n              0x40\n              mstore\n              dup1\n                /* \"FakeProdIden.sol\":2546:2554  sellerId */\n              dup3\n                /* \"FakeProdIden.sol\":2535:2561  SellerInfo(sellerId, true) */\n              dup2\n              mstore\n              0x20\n              add\n                /* \"FakeProdIden.sol\":2556:2560  true */\n              0x01\n                /* \"FakeProdIden.sol\":2535:2561  SellerInfo(sellerId, true) */\n              iszero\n              iszero\n              dup2\n              mstore\n              pop\n                /* \"FakeProdIden.sol\":2508:2522  allSellersInfo */\n              0x02\n                /* \"FakeProdIden.sol\":2523:2531  sellerId */\n              dup3\n                /* \"FakeProdIden.sol\":2508:2532  allSellersInfo[sellerId] */\n              mload(0x40)\n              tag_98\n              swap2\n              swap1\n              tag_49\n              jump\t// in\n            tag_98:\n              swap1\n              dup2\n              mstore\n              0x20\n              add\n              mload(0x40)\n              dup1\n              swap2\n              sub\n              swap1\n              keccak256\n                /* \"FakeProdIden.sol\":2508:2561  allSellersInfo[sellerId] = SellerInfo(sellerId, true) */\n              0x00\n              dup3\n              add\n              mload\n              dup2\n              0x00\n              add\n              swap1\n              dup2\n              tag_99\n              swap2\n              swap1\n              tag_53\n              jump\t// in\n            tag_99:\n              pop\n              0x20\n              dup3\n              add\n              mload\n              dup2\n              0x01\n              add\n              exp(0x0100, 0x00)\n              dup2\n              sload\n              dup2\n              0xff\n              mul\n              not\n              and\n              swap1\n              dup4\n              iszero\n              iszero\n              mul\n              or\n              swap1\n              sstore\n              pop\n              swap1\n              pop\n              pop\n                /* \"FakeProdIden.sol\":2440:2569  function addSellers(string memory sellerId) public ... */\n              pop\n              jump\t// out\n                /* \"FakeProdIden.sol\":1507:1558  mapping(string => SellerInfo) public allSellersInfo */\n            tag_45:\n              0x02\n              dup2\n              dup1\n              mload\n              0x20\n              dup2\n              add\n              dup3\n              add\n              dup1\n              mload\n              dup5\n              dup3\n              mstore\n              0x20\n              dup4\n              add\n              0x20\n              dup6\n              add\n              keccak256\n              dup2\n              dup4\n              mstore\n              dup1\n              swap6\n              pop\n              pop\n              pop\n              pop\n              pop\n              pop\n              0x00\n              swap2\n              pop\n              swap1\n              pop\n              dup1\n              0x00\n              add\n              dup1\n              sload\n              tag_100\n              swap1\n              tag_67\n              jump\t// in\n            tag_100:\n              dup1\n              0x1f\n              add\n              0x20\n              dup1\n              swap2\n              div\n              mul\n              0x20\n              add\n              mload(0x40)\n              swap1\n              dup2\n              add\n              0x40\n              mstore\n              dup1\n              swap3\n              swap2\n              swap1\n              dup2\n              dup2\n              mstore\n              0x20\n              add\n              dup3\n              dup1\n              sload\n              tag_101\n              swap1\n              tag_67\n              jump\t// in\n            tag_101:\n              dup1\n              iszero\n              tag_102\n              jumpi\n              dup1\n              0x1f\n              lt\n              tag_103\n              jumpi\n              0x0100\n              dup1\n              dup4\n              sload\n              div\n              mul\n              dup4\n              mstore\n              swap2\n              0x20\n              add\n              swap2\n              jump(tag_102)\n            tag_103:\n              dup3\n              add\n              swap2\n              swap1\n              0x00\n              mstore\n              keccak256(0x00, 0x20)\n              swap1\n            tag_104:\n              dup2\n              sload\n              dup2\n              mstore\n              swap1\n              0x01\n              add\n              swap1\n              0x20\n              add\n              dup1\n              dup4\n              gt\n              tag_104\n              jumpi\n              dup3\n              swap1\n              sub\n              0x1f\n              and\n              dup3\n              add\n              swap2\n            tag_102:\n              pop\n              pop\n              pop\n              pop\n              pop\n              swap1\n              dup1\n              0x01\n              add\n              0x00\n              swap1\n              sload\n              swap1\n              0x0100\n              exp\n              swap1\n              div\n              0xff\n              and\n              swap1\n              pop\n              dup3\n              jump\t// out\n                /* \"#utility.yul\":7:82   */\n            tag_105:\n                /* \"#utility.yul\":40:46   */\n              0x00\n                /* \"#utility.yul\":73:75   */\n              0x40\n                /* \"#utility.yul\":67:76   */\n              mload\n                /* \"#utility.yul\":57:76   */\n              swap1\n              pop\n                /* \"#utility.yul\":7:82   */\n              swap1\n              jump\t// out\n                /* \"#utility.yul\":88:205   */\n            tag_106:\n                /* \"#utility.yul\":197:198   */\n              0x00\n                /* \"#utility.yul\":194:195   */\n              dup1\n                /* \"#utility.yul\":187:199   */\n              revert\n                /* \"#utility.yul\":211:328   */\n            tag_107:\n                /* \"#utility.yul\":320:321   */\n              0x00\n                /* \"#utility.yul\":317:318   */\n              dup1\n                /* \"#utility.yul\":310:322   */\n              revert\n                /* \"#utility.yul\":334:451   */\n            tag_108:\n                /* \"#utility.yul\":443:444   */\n              0x00\n                /* \"#utility.yul\":440:441   */\n              dup1\n                /* \"#utility.yul\":433:445   */\n              revert\n                /* \"#utility.yul\":457:574   */\n            tag_109:\n                /* \"#utility.yul\":566:567   */\n              0x00\n                /* \"#utility.yul\":563:564   */\n              dup1\n                /* \"#utility.yul\":556:568   */\n              revert\n                /* \"#utility.yul\":580:682   */\n            tag_110:\n                /* \"#utility.yul\":621:627   */\n              0x00\n                /* \"#utility.yul\":672:674   */\n              0x1f\n                /* \"#utility.yul\":668:675   */\n              not\n                /* \"#utility.yul\":663:665   */\n              0x1f\n                /* \"#utility.yul\":656:661   */\n              dup4\n                /* \"#utility.yul\":652:666   */\n              add\n                /* \"#utility.yul\":648:676   */\n              and\n                /* \"#utility.yul\":638:676   */\n              swap1\n              pop\n                /* \"#utility.yul\":580:682   */\n              swap2\n              swap1\n              pop\n              jump\t// out\n                /* \"#utility.yul\":688:868   */\n            tag_111:\n                /* \"#utility.yul\":736:813   */\n              0x4e487b7100000000000000000000000000000000000000000000000000000000\n                /* \"#utility.yul\":733:734   */\n              0x00\n                /* \"#utility.yul\":726:814   */\n              mstore\n                /* \"#utility.yul\":833:837   */\n              0x41\n                /* \"#utility.yul\":830:831   */\n              0x04\n                /* \"#utility.yul\":823:838   */\n              mstore\n                /* \"#utility.yul\":857:861   */\n              0x24\n                /* \"#utility.yul\":854:855   */\n              0x00\n                /* \"#utility.yul\":847:862   */\n              revert\n                /* \"#utility.yul\":874:1155   */\n            tag_112:\n                /* \"#utility.yul\":957:984   */\n              tag_156\n                /* \"#utility.yul\":979:983   */\n              dup3\n                /* \"#utility.yul\":957:984   */\n              tag_110\n              jump\t// in\n            tag_156:\n                /* \"#utility.yul\":949:955   */\n              dup2\n                /* \"#utility.yul\":945:985   */\n              add\n                /* \"#utility.yul\":1087:1093   */\n              dup2\n                /* \"#utility.yul\":1075:1085   */\n              dup2\n                /* \"#utility.yul\":1072:1094   */\n              lt\n                /* \"#utility.yul\":1051:1069   */\n              0xffffffffffffffff\n                /* \"#utility.yul\":1039:1049   */\n              dup3\n                /* \"#utility.yul\":1036:1070   */\n              gt\n                /* \"#utility.yul\":1033:1095   */\n              or\n                /* \"#utility.yul\":1030:1118   */\n              iszero\n              tag_157\n              jumpi\n                /* \"#utility.yul\":1098:1116   */\n              tag_158\n              tag_111\n              jump\t// in\n            tag_158:\n                /* \"#utility.yul\":1030:1118   */\n            tag_157:\n                /* \"#utility.yul\":1138:1148   */\n              dup1\n                /* \"#utility.yul\":1134:1136   */\n              0x40\n                /* \"#utility.yul\":1127:1149   */\n              mstore\n                /* \"#utility.yul\":917:1155   */\n              pop\n                /* \"#utility.yul\":874:1155   */\n              pop\n              pop\n              jump\t// out\n                /* \"#utility.yul\":1161:1290   */\n            tag_113:\n                /* \"#utility.yul\":1195:1201   */\n              0x00\n                /* \"#utility.yul\":1222:1242   */\n              tag_160\n              tag_105\n              jump\t// in\n            tag_160:\n                /* \"#utility.yul\":1212:1242   */\n              swap1\n              pop\n                /* \"#utility.yul\":1251:1284   */\n              tag_161\n                /* \"#utility.yul\":1279:1283   */\n              dup3\n                /* \"#utility.yul\":1271:1277   */\n              dup3\n                /* \"#utility.yul\":1251:1284   */\n              tag_112\n              jump\t// in\n            tag_161:\n                /* \"#utility.yul\":1161:1290   */\n              swap2\n              swap1\n              pop\n              jump\t// out\n                /* \"#utility.yul\":1296:1604   */\n            tag_114:\n                /* \"#utility.yul\":1358:1362   */\n              0x00\n                /* \"#utility.yul\":1448:1466   */\n              0xffffffffffffffff\n                /* \"#utility.yul\":1440:1446   */\n              dup3\n                /* \"#utility.yul\":1437:1467   */\n              gt\n                /* \"#utility.yul\":1434:1490   */\n              iszero\n              tag_163\n              jumpi\n                /* \"#utility.yul\":1470:1488   */\n              tag_164\n              tag_111\n              jump\t// in\n            tag_164:\n                /* \"#utility.yul\":1434:1490   */\n            tag_163:\n                /* \"#utility.yul\":1508:1537   */\n              tag_165\n                /* \"#utility.yul\":1530:1536   */\n              dup3\n                /* \"#utility.yul\":1508:1537   */\n              tag_110\n              jump\t// in\n            tag_165:\n                /* \"#utility.yul\":1500:1537   */\n              swap1\n              pop\n                /* \"#utility.yul\":1592:1596   */\n              0x20\n                /* \"#utility.yul\":1586:1590   */\n              dup2\n                /* \"#utility.yul\":1582:1597   */\n              add\n                /* \"#utility.yul\":1574:1597   */\n              swap1\n              pop\n                /* \"#utility.yul\":1296:1604   */\n              swap2\n              swap1\n              pop\n              jump\t// out\n                /* \"#utility.yul\":1610:1758   */\n            tag_115:\n                /* \"#utility.yul\":1708:1714   */\n              dup3\n                /* \"#utility.yul\":1703:1706   */\n              dup2\n                /* \"#utility.yul\":1698:1701   */\n              dup4\n                /* \"#utility.yul\":1685:1715   */\n              calldatacopy\n                /* \"#utility.yul\":1749:1750   */\n              0x00\n                /* \"#utility.yul\":1740:1746   */\n              dup4\n                /* \"#utility.yul\":1735:1738   */\n              dup4\n                /* \"#utility.yul\":1731:1747   */\n              add\n                /* \"#utility.yul\":1724:1751   */\n              mstore\n                /* \"#utility.yul\":1610:1758   */\n              pop\n              pop\n              pop\n              jump\t// out\n                /* \"#utility.yul\":1764:2189   */\n            tag_116:\n                /* \"#utility.yul\":1842:1847   */\n              0x00\n                /* \"#utility.yul\":1867:1933   */\n              tag_168\n                /* \"#utility.yul\":1883:1932   */\n              tag_169\n                /* \"#utility.yul\":1925:1931   */\n              dup5\n                /* \"#utility.yul\":1883:1932   */\n              tag_114\n              jump\t// in\n            tag_169:\n                /* \"#utility.yul\":1867:1933   */\n              tag_113\n              jump\t// in\n            tag_168:\n                /* \"#utility.yul\":1858:1933   */\n              swap1\n              pop\n                /* \"#utility.yul\":1956:1962   */\n              dup3\n                /* \"#utility.yul\":1949:1954   */\n              dup2\n                /* \"#utility.yul\":1942:1963   */\n              mstore\n                /* \"#utility.yul\":1994:1998   */\n              0x20\n                /* \"#utility.yul\":1987:1992   */\n              dup2\n                /* \"#utility.yul\":1983:1999   */\n              add\n                /* \"#utility.yul\":2032:2035   */\n              dup5\n                /* \"#utility.yul\":2023:2029   */\n              dup5\n                /* \"#utility.yul\":2018:2021   */\n              dup5\n                /* \"#utility.yul\":2014:2030   */\n              add\n                /* \"#utility.yul\":2011:2036   */\n              gt\n                /* \"#utility.yul\":2008:2120   */\n              iszero\n              tag_170\n              jumpi\n                /* \"#utility.yul\":2039:2118   */\n              tag_171\n              tag_109\n              jump\t// in\n            tag_171:\n                /* \"#utility.yul\":2008:2120   */\n            tag_170:\n                /* \"#utility.yul\":2129:2183   */\n              tag_172\n                /* \"#utility.yul\":2176:2182   */\n              dup5\n                /* \"#utility.yul\":2171:2174   */\n              dup3\n                /* \"#utility.yul\":2166:2169   */\n              dup6\n                /* \"#utility.yul\":2129:2183   */\n              tag_115\n              jump\t// in\n            tag_172:\n                /* \"#utility.yul\":1848:2189   */\n              pop\n                /* \"#utility.yul\":1764:2189   */\n              swap4\n              swap3\n              pop\n              pop\n              pop\n              jump\t// out\n                /* \"#utility.yul\":2209:2549   */\n            tag_117:\n                /* \"#utility.yul\":2265:2270   */\n              0x00\n                /* \"#utility.yul\":2314:2317   */\n              dup3\n                /* \"#utility.yul\":2307:2311   */\n              0x1f\n                /* \"#utility.yul\":2299:2305   */\n              dup4\n                /* \"#utility.yul\":2295:2312   */\n              add\n                /* \"#utility.yul\":2291:2318   */\n              slt\n                /* \"#utility.yul\":2281:2403   */\n              tag_174\n              jumpi\n                /* \"#utility.yul\":2322:2401   */\n              tag_175\n              tag_108\n              jump\t// in\n            tag_175:\n                /* \"#utility.yul\":2281:2403   */\n            tag_174:\n                /* \"#utility.yul\":2439:2445   */\n              dup2\n                /* \"#utility.yul\":2426:2446   */\n              calldataload\n                /* \"#utility.yul\":2464:2543   */\n              tag_176\n                /* \"#utility.yul\":2539:2542   */\n              dup5\n                /* \"#utility.yul\":2531:2537   */\n              dup3\n                /* \"#utility.yul\":2524:2528   */\n              0x20\n                /* \"#utility.yul\":2516:2522   */\n              dup7\n                /* \"#utility.yul\":2512:2529   */\n              add\n                /* \"#utility.yul\":2464:2543   */\n              tag_116\n              jump\t// in\n            tag_176:\n                /* \"#utility.yul\":2455:2543   */\n              swap2\n              pop\n                /* \"#utility.yul\":2271:2549   */\n              pop\n                /* \"#utility.yul\":2209:2549   */\n              swap3\n              swap2\n              pop\n              pop\n              jump\t// out\n                /* \"#utility.yul\":2555:3714   */\n            tag_14:\n                /* \"#utility.yul\":2662:2668   */\n              0x00\n                /* \"#utility.yul\":2670:2676   */\n              dup1\n                /* \"#utility.yul\":2678:2684   */\n              0x00\n                /* \"#utility.yul\":2727:2729   */\n              0x60\n                /* \"#utility.yul\":2715:2724   */\n              dup5\n                /* \"#utility.yul\":2706:2713   */\n              dup7\n                /* \"#utility.yul\":2702:2725   */\n              sub\n                /* \"#utility.yul\":2698:2730   */\n              slt\n                /* \"#utility.yul\":2695:2814   */\n              iszero\n              tag_178\n              jumpi\n                /* \"#utility.yul\":2733:2812   */\n              tag_179\n              tag_106\n              jump\t// in\n            tag_179:\n                /* \"#utility.yul\":2695:2814   */\n            tag_178:\n                /* \"#utility.yul\":2881:2882   */\n              0x00\n                /* \"#utility.yul\":2870:2879   */\n              dup5\n                /* \"#utility.yul\":2866:2883   */\n              add\n                /* \"#utility.yul\":2853:2884   */\n              calldataload\n                /* \"#utility.yul\":2911:2929   */\n              0xffffffffffffffff\n                /* \"#utility.yul\":2903:2909   */\n              dup2\n                /* \"#utility.yul\":2900:2930   */\n              gt\n                /* \"#utility.yul\":2897:3014   */\n              iszero\n              tag_180\n              jumpi\n                /* \"#utility.yul\":2933:3012   */\n              tag_181\n              tag_107\n              jump\t// in\n            tag_181:\n                /* \"#utility.yul\":2897:3014   */\n            tag_180:\n                /* \"#utility.yul\":3038:3101   */\n              tag_182\n                /* \"#utility.yul\":3093:3100   */\n              dup7\n                /* \"#utility.yul\":3084:3090   */\n              dup3\n                /* \"#utility.yul\":3073:3082   */\n              dup8\n                /* \"#utility.yul\":3069:3091   */\n              add\n                /* \"#utility.yul\":3038:3101   */\n              tag_117\n              jump\t// in\n            tag_182:\n                /* \"#utility.yul\":3028:3101   */\n              swap4\n              pop\n                /* \"#utility.yul\":2824:3111   */\n              pop\n                /* \"#utility.yul\":3178:3180   */\n              0x20\n                /* \"#utility.yul\":3167:3176   */\n              dup5\n                /* \"#utility.yul\":3163:3181   */\n              add\n                /* \"#utility.yul\":3150:3182   */\n              calldataload\n                /* \"#utility.yul\":3209:3227   */\n              0xffffffffffffffff\n                /* \"#utility.yul\":3201:3207   */\n              dup2\n                /* \"#utility.yul\":3198:3228   */\n              gt\n                /* \"#utility.yul\":3195:3312   */\n              iszero\n              tag_183\n              jumpi\n                /* \"#utility.yul\":3231:3310   */\n              tag_184\n              tag_107\n              jump\t// in\n            tag_184:\n                /* \"#utility.yul\":3195:3312   */\n            tag_183:\n                /* \"#utility.yul\":3336:3399   */\n              tag_185\n                /* \"#utility.yul\":3391:3398   */\n              dup7\n                /* \"#utility.yul\":3382:3388   */\n              dup3\n                /* \"#utility.yul\":3371:3380   */\n              dup8\n                /* \"#utility.yul\":3367:3389   */\n              add\n                /* \"#utility.yul\":3336:3399   */\n              tag_117\n              jump\t// in\n            tag_185:\n                /* \"#utility.yul\":3326:3399   */\n              swap3\n              pop\n                /* \"#utility.yul\":3121:3409   */\n              pop\n                /* \"#utility.yul\":3476:3478   */\n              0x40\n                /* \"#utility.yul\":3465:3474   */\n              dup5\n                /* \"#utility.yul\":3461:3479   */\n              add\n                /* \"#utility.yul\":3448:3480   */\n              calldataload\n                /* \"#utility.yul\":3507:3525   */\n              0xffffffffffffffff\n                /* \"#utility.yul\":3499:3505   */\n              dup2\n                /* \"#utility.yul\":3496:3526   */\n              gt\n                /* \"#utility.yul\":3493:3610   */\n              iszero\n              tag_186\n              jumpi\n                /* \"#utility.yul\":3529:3608   */\n              tag_187\n              tag_107\n              jump\t// in\n            tag_187:\n                /* \"#utility.yul\":3493:3610   */\n            tag_186:\n                /* \"#utility.yul\":3634:3697   */\n              tag_188\n                /* \"#utility.yul\":3689:3696   */\n              dup7\n                /* \"#utility.yul\":3680:3686   */\n              dup3\n                /* \"#utility.yul\":3669:3678   */\n              dup8\n                /* \"#utility.yul\":3665:3687   */\n              add\n                /* \"#utility.yul\":3634:3697   */\n              tag_117\n              jump\t// in\n            tag_188:\n                /* \"#utility.yul\":3624:3697   */\n              swap2\n              pop\n                /* \"#utility.yul\":3419:3707   */\n              pop\n                /* \"#utility.yul\":2555:3714   */\n              swap3\n              pop\n              swap3\n              pop\n              swap3\n              jump\t// out\n                /* \"#utility.yul\":3720:3813   */\n            tag_118:\n                /* \"#utility.yul\":3756:3763   */\n              0x00\n                /* \"#utility.yul\":3796:3806   */\n              0xffffffff\n                /* \"#utility.yul\":3789:3794   */\n              dup3\n                /* \"#utility.yul\":3785:3807   */\n              and\n                /* \"#utility.yul\":3774:3807   */\n              swap1\n              pop\n                /* \"#utility.yul\":3720:3813   */\n              swap2\n              swap1\n              pop\n              jump\t// out\n                /* \"#utility.yul\":3819:3939   */\n            tag_119:\n                /* \"#utility.yul\":3891:3914   */\n              tag_191\n                /* \"#utility.yul\":3908:3913   */\n              dup2\n                /* \"#utility.yul\":3891:3914   */\n              tag_118\n              jump\t// in\n            tag_191:\n                /* \"#utility.yul\":3884:3889   */\n              dup2\n                /* \"#utility.yul\":3881:3915   */\n              eq\n                /* \"#utility.yul\":3871:3933   */\n              tag_192\n              jumpi\n                /* \"#utility.yul\":3929:3930   */\n              0x00\n                /* \"#utility.yul\":3926:3927   */\n              dup1\n                /* \"#utility.yul\":3919:3931   */\n              revert\n                /* \"#utility.yul\":3871:3933   */\n            tag_192:\n                /* \"#utility.yul\":3819:3939   */\n              pop\n              jump\t// out\n                /* \"#utility.yul\":3945:4082   */\n            tag_120:\n                /* \"#utility.yul\":3990:3995   */\n              0x00\n                /* \"#utility.yul\":4028:4034   */\n              dup2\n                /* \"#utility.yul\":4015:4035   */\n              calldataload\n                /* \"#utility.yul\":4006:4035   */\n              swap1\n              pop\n                /* \"#utility.yul\":4044:4076   */\n              tag_194\n                /* \"#utility.yul\":4070:4075   */\n              dup2\n                /* \"#utility.yul\":4044:4076   */\n              tag_119\n              jump\t// in\n            tag_194:\n                /* \"#utility.yul\":3945:4082   */\n              swap3\n              swap2\n              pop\n              pop\n              jump\t// out\n                /* \"#utility.yul\":4088:4740   */\n            tag_18:\n                /* \"#utility.yul\":4165:4171   */\n              0x00\n                /* \"#utility.yul\":4173:4179   */\n              dup1\n                /* \"#utility.yul\":4222:4224   */\n              0x40\n                /* \"#utility.yul\":4210:4219   */\n              dup4\n                /* \"#utility.yul\":4201:4208   */\n              dup6\n                /* \"#utility.yul\":4197:4220   */\n              sub\n                /* \"#utility.yul\":4193:4225   */\n              slt\n                /* \"#utility.yul\":4190:4309   */\n              iszero\n              tag_196\n              jumpi\n                /* \"#utility.yul\":4228:4307   */\n              tag_197\n              tag_106\n              jump\t// in\n            tag_197:\n                /* \"#utility.yul\":4190:4309   */\n            tag_196:\n                /* \"#utility.yul\":4376:4377   */\n              0x00\n                /* \"#utility.yul\":4365:4374   */\n              dup4\n                /* \"#utility.yul\":4361:4378   */\n              add\n                /* \"#utility.yul\":4348:4379   */\n              calldataload\n                /* \"#utility.yul\":4406:4424   */\n              0xffffffffffffffff\n                /* \"#utility.yul\":4398:4404   */\n              dup2\n                /* \"#utility.yul\":4395:4425   */\n              gt\n                /* \"#utility.yul\":4392:4509   */\n              iszero\n              tag_198\n              jumpi\n                /* \"#utility.yul\":4428:4507   */\n              tag_199\n              tag_107\n              jump\t// in\n            tag_199:\n                /* \"#utility.yul\":4392:4509   */\n            tag_198:\n                /* \"#utility.yul\":4533:4596   */\n              tag_200\n                /* \"#utility.yul\":4588:4595   */\n              dup6\n                /* \"#utility.yul\":4579:4585   */\n              dup3\n                /* \"#utility.yul\":4568:4577   */\n              dup7\n                /* \"#utility.yul\":4564:4586   */\n              add\n                /* \"#utility.yul\":4533:4596   */\n              tag_117\n              jump\t// in\n            tag_200:\n                /* \"#utility.yul\":4523:4596   */\n              swap3\n              pop\n                /* \"#utility.yul\":4319:4606   */\n              pop\n                /* \"#utility.yul\":4645:4647   */\n              0x20\n                /* \"#utility.yul\":4671:4723   */\n              tag_201\n                /* \"#utility.yul\":4715:4722   */\n              dup6\n                /* \"#utility.yul\":4706:4712   */\n              dup3\n                /* \"#utility.yul\":4695:4704   */\n              dup7\n                /* \"#utility.yul\":4691:4713   */\n              add\n                /* \"#utility.yul\":4671:4723   */\n              tag_120\n              jump\t// in\n            tag_201:\n                /* \"#utility.yul\":4661:4723   */\n              swap2\n              pop\n                /* \"#utility.yul\":4616:4733   */\n              pop\n                /* \"#utility.yul\":4088:4740   */\n              swap3\n              pop\n              swap3\n              swap1\n              pop\n              jump\t// out\n                /* \"#utility.yul\":4746:4836   */\n            tag_121:\n                /* \"#utility.yul\":4780:4787   */\n              0x00\n                /* \"#utility.yul\":4823:4828   */\n              dup2\n                /* \"#utility.yul\":4816:4829   */\n              iszero\n                /* \"#utility.yul\":4809:4830   */\n              iszero\n                /* \"#utility.yul\":4798:4830   */\n              swap1\n              pop\n                /* \"#utility.yul\":4746:4836   */\n              swap2\n              swap1\n              pop\n              jump\t// out\n                /* \"#utility.yul\":4842:4951   */\n            tag_122:\n                /* \"#utility.yul\":4923:4944   */\n              tag_204\n                /* \"#utility.yul\":4938:4943   */\n              dup2\n                /* \"#utility.yul\":4923:4944   */\n              tag_121\n              jump\t// in\n            tag_204:\n                /* \"#utility.yul\":4918:4921   */\n              dup3\n                /* \"#utility.yul\":4911:4945   */\n              mstore\n                /* \"#utility.yul\":4842:4951   */\n              pop\n              pop\n              jump\t// out\n                /* \"#utility.yul\":4957:5167   */\n            tag_21:\n                /* \"#utility.yul\":5044:5048   */\n              0x00\n                /* \"#utility.yul\":5082:5084   */\n              0x20\n                /* \"#utility.yul\":5071:5080   */\n              dup3\n                /* \"#utility.yul\":5067:5085   */\n              add\n                /* \"#utility.yul\":5059:5085   */\n              swap1\n              pop\n                /* \"#utility.yul\":5095:5160   */\n              tag_206\n                /* \"#utility.yul\":5157:5158   */\n              0x00\n                /* \"#utility.yul\":5146:5155   */\n              dup4\n                /* \"#utility.yul\":5142:5159   */\n              add\n                /* \"#utility.yul\":5133:5139   */\n              dup5\n                /* \"#utility.yul\":5095:5160   */\n              tag_122\n              jump\t// in\n            tag_206:\n                /* \"#utility.yul\":4957:5167   */\n              swap3\n              swap2\n              pop\n              pop\n              jump\t// out\n                /* \"#utility.yul\":5173:5682   */\n            tag_27:\n                /* \"#utility.yul\":5242:5248   */\n              0x00\n                /* \"#utility.yul\":5291:5293   */\n              0x20\n                /* \"#utility.yul\":5279:5288   */\n              dup3\n                /* \"#utility.yul\":5270:5277   */\n              dup5\n                /* \"#utility.yul\":5266:5289   */\n              sub\n                /* \"#utility.yul\":5262:5294   */\n              slt\n                /* \"#utility.yul\":5259:5378   */\n              iszero\n              tag_208\n              jumpi\n                /* \"#utility.yul\":5297:5376   */\n              tag_209\n              tag_106\n              jump\t// in\n            tag_209:\n                /* \"#utility.yul\":5259:5378   */\n            tag_208:\n                /* \"#utility.yul\":5445:5446   */\n              0x00\n                /* \"#utility.yul\":5434:5443   */\n              dup3\n                /* \"#utility.yul\":5430:5447   */\n              add\n                /* \"#utility.yul\":5417:5448   */\n              calldataload\n                /* \"#utility.yul\":5475:5493   */\n              0xffffffffffffffff\n                /* \"#utility.yul\":5467:5473   */\n              dup2\n                /* \"#utility.yul\":5464:5494   */\n              gt\n                /* \"#utility.yul\":5461:5578   */\n              iszero\n              tag_210\n              jumpi\n                /* \"#utility.yul\":5497:5576   */\n              tag_211\n              tag_107\n              jump\t// in\n            tag_211:\n                /* \"#utility.yul\":5461:5578   */\n            tag_210:\n                /* \"#utility.yul\":5602:5665   */\n              tag_212\n                /* \"#utility.yul\":5657:5664   */\n              dup5\n                /* \"#utility.yul\":5648:5654   */\n              dup3\n                /* \"#utility.yul\":5637:5646   */\n              dup6\n                /* \"#utility.yul\":5633:5655   */\n              add\n                /* \"#utility.yul\":5602:5665   */\n              tag_117\n              jump\t// in\n            tag_212:\n                /* \"#utility.yul\":5592:5665   */\n              swap2\n              pop\n                /* \"#utility.yul\":5388:5675   */\n              pop\n                /* \"#utility.yul\":5173:5682   */\n              swap3\n              swap2\n              pop\n              pop\n              jump\t// out\n                /* \"#utility.yul\":5688:5787   */\n            tag_123:\n                /* \"#utility.yul\":5740:5746   */\n              0x00\n                /* \"#utility.yul\":5774:5779   */\n              dup2\n                /* \"#utility.yul\":5768:5780   */\n              mload\n                /* \"#utility.yul\":5758:5780   */\n              swap1\n              pop\n                /* \"#utility.yul\":5688:5787   */\n              swap2\n              swap1\n              pop\n              jump\t// out\n                /* \"#utility.yul\":5793:5962   */\n            tag_124:\n                /* \"#utility.yul\":5877:5888   */\n              0x00\n                /* \"#utility.yul\":5911:5917   */\n              dup3\n                /* \"#utility.yul\":5906:5909   */\n              dup3\n                /* \"#utility.yul\":5899:5918   */\n              mstore\n                /* \"#utility.yul\":5951:5955   */\n              0x20\n                /* \"#utility.yul\":5946:5949   */\n              dup3\n                /* \"#utility.yul\":5942:5956   */\n              add\n                /* \"#utility.yul\":5927:5956   */\n              swap1\n              pop\n                /* \"#utility.yul\":5793:5962   */\n              swap3\n              swap2\n              pop\n              pop\n              jump\t// out\n                /* \"#utility.yul\":5968:6107   */\n            tag_125:\n                /* \"#utility.yul\":6057:6063   */\n              dup3\n                /* \"#utility.yul\":6052:6055   */\n              dup2\n                /* \"#utility.yul\":6047:6050   */\n              dup4\n                /* \"#utility.yul\":6041:6064   */\n              mcopy\n                /* \"#utility.yul\":6098:6099   */\n              0x00\n                /* \"#utility.yul\":6089:6095   */\n              dup4\n                /* \"#utility.yul\":6084:6087   */\n              dup4\n                /* \"#utility.yul\":6080:6096   */\n              add\n                /* \"#utility.yul\":6073:6100   */\n              mstore\n                /* \"#utility.yul\":5968:6107   */\n              pop\n              pop\n              pop\n              jump\t// out\n                /* \"#utility.yul\":6113:6490   */\n            tag_126:\n                /* \"#utility.yul\":6201:6204   */\n              0x00\n                /* \"#utility.yul\":6229:6268   */\n              tag_217\n                /* \"#utility.yul\":6262:6267   */\n              dup3\n                /* \"#utility.yul\":6229:6268   */\n              tag_123\n              jump\t// in\n            tag_217:\n                /* \"#utility.yul\":6284:6355   */\n              tag_218\n                /* \"#utility.yul\":6348:6354   */\n              dup2\n                /* \"#utility.yul\":6343:6346   */\n              dup6\n                /* \"#utility.yul\":6284:6355   */\n              tag_124\n              jump\t// in\n            tag_218:\n                /* \"#utility.yul\":6277:6355   */\n              swap4\n              pop\n                /* \"#utility.yul\":6364:6429   */\n              tag_219\n                /* \"#utility.yul\":6422:6428   */\n              dup2\n                /* \"#utility.yul\":6417:6420   */\n              dup6\n                /* \"#utility.yul\":6410:6414   */\n              0x20\n                /* \"#utility.yul\":6403:6408   */\n              dup7\n                /* \"#utility.yul\":6399:6415   */\n              add\n                /* \"#utility.yul\":6364:6429   */\n              tag_125\n              jump\t// in\n            tag_219:\n                /* \"#utility.yul\":6454:6483   */\n              tag_220\n                /* \"#utility.yul\":6476:6482   */\n              dup2\n                /* \"#utility.yul\":6454:6483   */\n              tag_110\n              jump\t// in\n            tag_220:\n                /* \"#utility.yul\":6449:6452   */\n              dup5\n                /* \"#utility.yul\":6445:6484   */\n              add\n                /* \"#utility.yul\":6438:6484   */\n              swap2\n              pop\n                /* \"#utility.yul\":6205:6490   */\n              pop\n                /* \"#utility.yul\":6113:6490   */\n              swap3\n              swap2\n              pop\n              pop\n              jump\t// out\n                /* \"#utility.yul\":6496:6611   */\n            tag_127:\n                /* \"#utility.yul\":6581:6604   */\n              tag_222\n                /* \"#utility.yul\":6598:6603   */\n              dup2\n                /* \"#utility.yul\":6581:6604   */\n              tag_118\n              jump\t// in\n            tag_222:\n                /* \"#utility.yul\":6576:6579   */\n              dup3\n                /* \"#utility.yul\":6569:6605   */\n              mstore\n                /* \"#utility.yul\":6496:6611   */\n              pop\n              pop\n              jump\t// out\n                /* \"#utility.yul\":6617:7538   */\n            tag_30:\n                /* \"#utility.yul\":6874:6878   */\n              0x00\n                /* \"#utility.yul\":6912:6915   */\n              0xa0\n                /* \"#utility.yul\":6901:6910   */\n              dup3\n                /* \"#utility.yul\":6897:6916   */\n              add\n                /* \"#utility.yul\":6889:6916   */\n              swap1\n              pop\n                /* \"#utility.yul\":6962:6971   */\n              dup2\n                /* \"#utility.yul\":6956:6960   */\n              dup2\n                /* \"#utility.yul\":6952:6972   */\n              sub\n                /* \"#utility.yul\":6948:6949   */\n              0x00\n                /* \"#utility.yul\":6937:6946   */\n              dup4\n                /* \"#utility.yul\":6933:6950   */\n              add\n                /* \"#utility.yul\":6926:6973   */\n              mstore\n                /* \"#utility.yul\":6990:7068   */\n              tag_224\n                /* \"#utility.yul\":7063:7067   */\n              dup2\n                /* \"#utility.yul\":7054:7060   */\n              dup9\n                /* \"#utility.yul\":6990:7068   */\n              tag_126\n              jump\t// in\n            tag_224:\n                /* \"#utility.yul\":6982:7068   */\n              swap1\n              pop\n                /* \"#utility.yul\":7115:7124   */\n              dup2\n                /* \"#utility.yul\":7109:7113   */\n              dup2\n                /* \"#utility.yul\":7105:7125   */\n              sub\n                /* \"#utility.yul\":7100:7102   */\n              0x20\n                /* \"#utility.yul\":7089:7098   */\n              dup4\n                /* \"#utility.yul\":7085:7103   */\n              add\n                /* \"#utility.yul\":7078:7126   */\n              mstore\n                /* \"#utility.yul\":7143:7221   */\n              tag_225\n                /* \"#utility.yul\":7216:7220   */\n              dup2\n                /* \"#utility.yul\":7207:7213   */\n              dup8\n                /* \"#utility.yul\":7143:7221   */\n              tag_126\n              jump\t// in\n            tag_225:\n                /* \"#utility.yul\":7135:7221   */\n              swap1\n              pop\n                /* \"#utility.yul\":7268:7277   */\n              dup2\n                /* \"#utility.yul\":7262:7266   */\n              dup2\n                /* \"#utility.yul\":7258:7278   */\n              sub\n                /* \"#utility.yul\":7253:7255   */\n              0x40\n                /* \"#utility.yul\":7242:7251   */\n              dup4\n                /* \"#utility.yul\":7238:7256   */\n              add\n                /* \"#utility.yul\":7231:7279   */\n              mstore\n                /* \"#utility.yul\":7296:7374   */\n              tag_226\n                /* \"#utility.yul\":7369:7373   */\n              dup2\n                /* \"#utility.yul\":7360:7366   */\n              dup7\n                /* \"#utility.yul\":7296:7374   */\n              tag_126\n              jump\t// in\n            tag_226:\n                /* \"#utility.yul\":7288:7374   */\n              swap1\n              pop\n                /* \"#utility.yul\":7384:7450   */\n              tag_227\n                /* \"#utility.yul\":7446:7448   */\n              0x60\n                /* \"#utility.yul\":7435:7444   */\n              dup4\n                /* \"#utility.yul\":7431:7449   */\n              add\n                /* \"#utility.yul\":7422:7428   */\n              dup6\n                /* \"#utility.yul\":7384:7450   */\n              tag_122\n              jump\t// in\n            tag_227:\n                /* \"#utility.yul\":7460:7531   */\n              tag_228\n                /* \"#utility.yul\":7526:7529   */\n              0x80\n                /* \"#utility.yul\":7515:7524   */\n              dup4\n                /* \"#utility.yul\":7511:7530   */\n              add\n                /* \"#utility.yul\":7502:7508   */\n              dup5\n                /* \"#utility.yul\":7460:7531   */\n              tag_127\n              jump\t// in\n            tag_228:\n                /* \"#utility.yul\":6617:7538   */\n              swap7\n              swap6\n              pop\n              pop\n              pop\n              pop\n              pop\n              pop\n              jump\t// out\n                /* \"#utility.yul\":7544:8378   */\n            tag_33:\n                /* \"#utility.yul\":7632:7638   */\n              0x00\n                /* \"#utility.yul\":7640:7646   */\n              dup1\n                /* \"#utility.yul\":7689:7691   */\n              0x40\n                /* \"#utility.yul\":7677:7686   */\n              dup4\n                /* \"#utility.yul\":7668:7675   */\n              dup6\n                /* \"#utility.yul\":7664:7687   */\n              sub\n                /* \"#utility.yul\":7660:7692   */\n              slt\n                /* \"#utility.yul\":7657:7776   */\n              iszero\n              tag_230\n              jumpi\n                /* \"#utility.yul\":7695:7774   */\n              tag_231\n              tag_106\n              jump\t// in\n            tag_231:\n                /* \"#utility.yul\":7657:7776   */\n            tag_230:\n                /* \"#utility.yul\":7843:7844   */\n              0x00\n                /* \"#utility.yul\":7832:7841   */\n              dup4\n                /* \"#utility.yul\":7828:7845   */\n              add\n                /* \"#utility.yul\":7815:7846   */\n              calldataload\n                /* \"#utility.yul\":7873:7891   */\n              0xffffffffffffffff\n                /* \"#utility.yul\":7865:7871   */\n              dup2\n                /* \"#utility.yul\":7862:7892   */\n              gt\n                /* \"#utility.yul\":7859:7976   */\n              iszero\n              tag_232\n              jumpi\n                /* \"#utility.yul\":7895:7974   */\n              tag_233\n              tag_107\n              jump\t// in\n            tag_233:\n                /* \"#utility.yul\":7859:7976   */\n            tag_232:\n                /* \"#utility.yul\":8000:8063   */\n              tag_234\n                /* \"#utility.yul\":8055:8062   */\n              dup6\n                /* \"#utility.yul\":8046:8052   */\n              dup3\n                /* \"#utility.yul\":8035:8044   */\n              dup7\n                /* \"#utility.yul\":8031:8053   */\n              add\n                /* \"#utility.yul\":8000:8063   */\n              tag_117\n              jump\t// in\n            tag_234:\n                /* \"#utility.yul\":7990:8063   */\n              swap3\n              pop\n                /* \"#utility.yul\":7786:8073   */\n              pop\n                /* \"#utility.yul\":8140:8142   */\n              0x20\n                /* \"#utility.yul\":8129:8138   */\n              dup4\n                /* \"#utility.yul\":8125:8143   */\n              add\n                /* \"#utility.yul\":8112:8144   */\n              calldataload\n                /* \"#utility.yul\":8171:8189   */\n              0xffffffffffffffff\n                /* \"#utility.yul\":8163:8169   */\n              dup2\n                /* \"#utility.yul\":8160:8190   */\n              gt\n                /* \"#utility.yul\":8157:8274   */\n              iszero\n              tag_235\n              jumpi\n                /* \"#utility.yul\":8193:8272   */\n              tag_236\n              tag_107\n              jump\t// in\n            tag_236:\n                /* \"#utility.yul\":8157:8274   */\n            tag_235:\n                /* \"#utility.yul\":8298:8361   */\n              tag_237\n                /* \"#utility.yul\":8353:8360   */\n              dup6\n                /* \"#utility.yul\":8344:8350   */\n              dup3\n                /* \"#utility.yul\":8333:8342   */\n              dup7\n                /* \"#utility.yul\":8329:8351   */\n              add\n                /* \"#utility.yul\":8298:8361   */\n              tag_117\n              jump\t// in\n            tag_237:\n                /* \"#utility.yul\":8288:8361   */\n              swap2\n              pop\n                /* \"#utility.yul\":8083:8371   */\n              pop\n                /* \"#utility.yul\":7544:8378   */\n              swap3\n              pop\n              swap3\n              swap1\n              pop\n              jump\t// out\n                /* \"#utility.yul\":8384:8795   */\n            tag_39:\n                /* \"#utility.yul\":8519:8523   */\n              0x00\n                /* \"#utility.yul\":8557:8559   */\n              0x40\n                /* \"#utility.yul\":8546:8555   */\n              dup3\n                /* \"#utility.yul\":8542:8560   */\n              add\n                /* \"#utility.yul\":8534:8560   */\n              swap1\n              pop\n                /* \"#utility.yul\":8606:8615   */\n              dup2\n                /* \"#utility.yul\":8600:8604   */\n              dup2\n                /* \"#utility.yul\":8596:8616   */\n              sub\n                /* \"#utility.yul\":8592:8593   */\n              0x00\n                /* \"#utility.yul\":8581:8590   */\n              dup4\n                /* \"#utility.yul\":8577:8594   */\n              add\n                /* \"#utility.yul\":8570:8617   */\n              mstore\n                /* \"#utility.yul\":8634:8712   */\n              tag_239\n                /* \"#utility.yul\":8707:8711   */\n              dup2\n                /* \"#utility.yul\":8698:8704   */\n              dup6\n                /* \"#utility.yul\":8634:8712   */\n              tag_126\n              jump\t// in\n            tag_239:\n                /* \"#utility.yul\":8626:8712   */\n              swap1\n              pop\n                /* \"#utility.yul\":8722:8788   */\n              tag_240\n                /* \"#utility.yul\":8784:8786   */\n              0x20\n                /* \"#utility.yul\":8773:8782   */\n              dup4\n                /* \"#utility.yul\":8769:8787   */\n              add\n                /* \"#utility.yul\":8760:8766   */\n              dup5\n                /* \"#utility.yul\":8722:8788   */\n              tag_122\n              jump\t// in\n            tag_240:\n                /* \"#utility.yul\":8384:8795   */\n              swap4\n              swap3\n              pop\n              pop\n              pop\n              jump\t// out\n                /* \"#utility.yul\":8801:8949   */\n            tag_128:\n                /* \"#utility.yul\":8903:8914   */\n              0x00\n                /* \"#utility.yul\":8940:8943   */\n              dup2\n                /* \"#utility.yul\":8925:8943   */\n              swap1\n              pop\n                /* \"#utility.yul\":8801:8949   */\n              swap3\n              swap2\n              pop\n              pop\n              jump\t// out\n                /* \"#utility.yul\":8955:9345   */\n            tag_129:\n                /* \"#utility.yul\":9061:9064   */\n              0x00\n                /* \"#utility.yul\":9089:9128   */\n              tag_243\n                /* \"#utility.yul\":9122:9127   */\n              dup3\n                /* \"#utility.yul\":9089:9128   */\n              tag_123\n              jump\t// in\n            tag_243:\n                /* \"#utility.yul\":9144:9233   */\n              tag_244\n                /* \"#utility.yul\":9226:9232   */\n              dup2\n                /* \"#utility.yul\":9221:9224   */\n              dup6\n                /* \"#utility.yul\":9144:9233   */\n              tag_128\n              jump\t// in\n            tag_244:\n                /* \"#utility.yul\":9137:9233   */\n              swap4\n              pop\n                /* \"#utility.yul\":9242:9307   */\n              tag_245\n                /* \"#utility.yul\":9300:9306   */\n              dup2\n                /* \"#utility.yul\":9295:9298   */\n              dup6\n                /* \"#utility.yul\":9288:9292   */\n              0x20\n                /* \"#utility.yul\":9281:9286   */\n              dup7\n                /* \"#utility.yul\":9277:9293   */\n              add\n                /* \"#utility.yul\":9242:9307   */\n              tag_125\n              jump\t// in\n            tag_245:\n                /* \"#utility.yul\":9332:9338   */\n              dup1\n                /* \"#utility.yul\":9327:9330   */\n              dup5\n                /* \"#utility.yul\":9323:9339   */\n              add\n                /* \"#utility.yul\":9316:9339   */\n              swap2\n              pop\n                /* \"#utility.yul\":9065:9345   */\n              pop\n                /* \"#utility.yul\":8955:9345   */\n              swap3\n              swap2\n              pop\n              pop\n              jump\t// out\n                /* \"#utility.yul\":9351:9626   */\n            tag_49:\n                /* \"#utility.yul\":9483:9486   */\n              0x00\n                /* \"#utility.yul\":9505:9600   */\n              tag_247\n                /* \"#utility.yul\":9596:9599   */\n              dup3\n                /* \"#utility.yul\":9587:9593   */\n              dup5\n                /* \"#utility.yul\":9505:9600   */\n              tag_129\n              jump\t// in\n            tag_247:\n                /* \"#utility.yul\":9498:9600   */\n              swap2\n              pop\n                /* \"#utility.yul\":9617:9620   */\n              dup2\n                /* \"#utility.yul\":9610:9620   */\n              swap1\n              pop\n                /* \"#utility.yul\":9351:9626   */\n              swap3\n              swap2\n              pop\n              pop\n              jump\t// out\n                /* \"#utility.yul\":9632:9812   */\n            tag_130:\n                /* \"#utility.yul\":9680:9757   */\n              0x4e487b7100000000000000000000000000000000000000000000000000000000\n                /* \"#utility.yul\":9677:9678   */\n              0x00\n                /* \"#utility.yul\":9670:9758   */\n              mstore\n                /* \"#utility.yul\":9777:9781   */\n              0x22\n                /* \"#utility.yul\":9774:9775   */\n              0x04\n                /* \"#utility.yul\":9767:9782   */\n              mstore\n                /* \"#utility.yul\":9801:9805   */\n              0x24\n                /* \"#utility.yul\":9798:9799   */\n              0x00\n                /* \"#utility.yul\":9791:9806   */\n              revert\n                /* \"#utility.yul\":9818:10138   */\n            tag_67:\n                /* \"#utility.yul\":9862:9868   */\n              0x00\n                /* \"#utility.yul\":9899:9900   */\n              0x02\n                /* \"#utility.yul\":9893:9897   */\n              dup3\n                /* \"#utility.yul\":9889:9901   */\n              div\n                /* \"#utility.yul\":9879:9901   */\n              swap1\n              pop\n                /* \"#utility.yul\":9946:9947   */\n              0x01\n                /* \"#utility.yul\":9940:9944   */\n              dup3\n                /* \"#utility.yul\":9936:9948   */\n              and\n                /* \"#utility.yul\":9967:9985   */\n              dup1\n                /* \"#utility.yul\":9957:10038   */\n              tag_250\n              jumpi\n                /* \"#utility.yul\":10023:10027   */\n              0x7f\n                /* \"#utility.yul\":10015:10021   */\n              dup3\n                /* \"#utility.yul\":10011:10028   */\n              and\n                /* \"#utility.yul\":10001:10028   */\n              swap2\n              pop\n                /* \"#utility.yul\":9957:10038   */\n            tag_250:\n                /* \"#utility.yul\":10085:10087   */\n              0x20\n                /* \"#utility.yul\":10077:10083   */\n              dup3\n                /* \"#utility.yul\":10074:10088   */\n              lt\n                /* \"#utility.yul\":10054:10072   */\n              dup2\n                /* \"#utility.yul\":10051:10089   */\n              sub\n                /* \"#utility.yul\":10048:10132   */\n              tag_251\n              jumpi\n                /* \"#utility.yul\":10104:10122   */\n              tag_252\n              tag_130\n              jump\t// in\n            tag_252:\n                /* \"#utility.yul\":10048:10132   */\n            tag_251:\n                /* \"#utility.yul\":9869:10138   */\n              pop\n                /* \"#utility.yul\":9818:10138   */\n              swap2\n              swap1\n              pop\n              jump\t// out\n                /* \"#utility.yul\":10144:10285   */\n            tag_131:\n                /* \"#utility.yul\":10193:10197   */\n              0x00\n                /* \"#utility.yul\":10216:10219   */\n              dup2\n                /* \"#utility.yul\":10208:10219   */\n              swap1\n              pop\n                /* \"#utility.yul\":10239:10242   */\n              dup2\n                /* \"#utility.yul\":10236:10237   */\n              0x00\n                /* \"#utility.yul\":10229:10243   */\n              mstore\n                /* \"#utility.yul\":10273:10277   */\n              0x20\n                /* \"#utility.yul\":10270:10271   */\n              0x00\n                /* \"#utility.yul\":10260:10278   */\n              keccak256\n                /* \"#utility.yul\":10252:10278   */\n              swap1\n              pop\n                /* \"#utility.yul\":10144:10285   */\n              swap2\n              swap1\n              pop\n              jump\t// out\n                /* \"#utility.yul\":10291:10384   */\n            tag_132:\n                /* \"#utility.yul\":10328:10334   */\n              0x00\n                /* \"#utility.yul\":10375:10377   */\n              0x20\n                /* \"#utility.yul\":10370:10372   */\n              0x1f\n                /* \"#utility.yul\":10363:10368   */\n              dup4\n                /* \"#utility.yul\":10359:10373   */\n              add\n                /* \"#utility.yul\":10355:10378   */\n              div\n                /* \"#utility.yul\":10345:10378   */\n              swap1\n              pop\n                /* \"#utility.yul\":10291:10384   */\n              swap2\n              swap1\n              pop\n              jump\t// out\n                /* \"#utility.yul\":10390:10497   */\n            tag_133:\n                /* \"#utility.yul\":10434:10442   */\n              0x00\n                /* \"#utility.yul\":10484:10489   */\n              dup3\n                /* \"#utility.yul\":10478:10482   */\n              dup3\n                /* \"#utility.yul\":10474:10490   */\n              shl\n                /* \"#utility.yul\":10453:10490   */\n              swap1\n              pop\n                /* \"#utility.yul\":10390:10497   */\n              swap3\n              swap2\n              pop\n              pop\n              jump\t// out\n                /* \"#utility.yul\":10503:10896   */\n            tag_134:\n                /* \"#utility.yul\":10572:10578   */\n              0x00\n                /* \"#utility.yul\":10622:10623   */\n              0x08\n                /* \"#utility.yul\":10610:10620   */\n              dup4\n                /* \"#utility.yul\":10606:10624   */\n              mul\n                /* \"#utility.yul\":10645:10742   */\n              tag_257\n                /* \"#utility.yul\":10675:10741   */\n              0xffffffffffffffffffffffffffffffffffffffffffffffffffffffffffffffff\n                /* \"#utility.yul\":10664:10673   */\n              dup3\n                /* \"#utility.yul\":10645:10742   */\n              tag_133\n              jump\t// in\n            tag_257:\n                /* \"#utility.yul\":10763:10802   */\n              tag_258\n                /* \"#utility.yul\":10793:10801   */\n              dup7\n                /* \"#utility.yul\":10782:10791   */\n              dup4\n                /* \"#utility.yul\":10763:10802   */\n              tag_133\n              jump\t// in\n            tag_258:\n                /* \"#utility.yul\":10751:10802   */\n              swap6\n              pop\n                /* \"#utility.yul\":10835:10839   */\n              dup1\n                /* \"#utility.yul\":10831:10840   */\n              not\n                /* \"#utility.yul\":10824:10829   */\n              dup5\n                /* \"#utility.yul\":10820:10841   */\n              and\n                /* \"#utility.yul\":10811:10841   */\n              swap4\n              pop\n                /* \"#utility.yul\":10884:10888   */\n              dup1\n                /* \"#utility.yul\":10874:10882   */\n              dup7\n                /* \"#utility.yul\":10870:10889   */\n              and\n                /* \"#utility.yul\":10863:10868   */\n              dup5\n                /* \"#utility.yul\":10860:10890   */\n              or\n                /* \"#utility.yul\":10850:10890   */\n              swap3\n              pop\n                /* \"#utility.yul\":10579:10896   */\n              pop\n              pop\n                /* \"#utility.yul\":10503:10896   */\n              swap4\n              swap3\n              pop\n              pop\n              pop\n              jump\t// out\n                /* \"#utility.yul\":10902:10979   */\n            tag_135:\n                /* \"#utility.yul\":10939:10946   */\n              0x00\n                /* \"#utility.yul\":10968:10973   */\n              dup2\n                /* \"#utility.yul\":10957:10973   */\n              swap1\n              pop\n                /* \"#utility.yul\":10902:10979   */\n              swap2\n              swap1\n              pop\n              jump\t// out\n                /* \"#utility.yul\":10985:11045   */\n            tag_136:\n                /* \"#utility.yul\":11013:11016   */\n              0x00\n                /* \"#utility.yul\":11034:11039   */\n              dup2\n                /* \"#utility.yul\":11027:11039   */\n              swap1\n              pop\n                /* \"#utility.yul\":10985:11045   */\n              swap2\n              swap1\n              pop\n              jump\t// out\n                /* \"#utility.yul\":11051:11193   */\n            tag_137:\n                /* \"#utility.yul\":11101:11110   */\n              0x00\n                /* \"#utility.yul\":11134:11187   */\n              tag_262\n                /* \"#utility.yul\":11152:11186   */\n              tag_263\n                /* \"#utility.yul\":11161:11185   */\n              tag_264\n                /* \"#utility.yul\":11179:11184   */\n              dup5\n                /* \"#utility.yul\":11161:11185   */\n              tag_135\n              jump\t// in\n            tag_264:\n                /* \"#utility.yul\":11152:11186   */\n              tag_136\n              jump\t// in\n            tag_263:\n                /* \"#utility.yul\":11134:11187   */\n              tag_135\n              jump\t// in\n            tag_262:\n                /* \"#utility.yul\":11121:11187   */\n              swap1\n              pop\n                /* \"#utility.yul\":11051:11193   */\n              swap2\n              swap1\n              pop\n              jump\t// out\n                /* \"#utility.yul\":11199:11274   */\n            tag_138:\n                /* \"#utility.yul\":11242:11245   */\n              0x00\n                /* \"#utility.yul\":11263:11268   */\n              dup2\n                /* \"#utility.yul\":11256:11268   */\n              swap1\n              pop\n                /* \"#utility.yul\":11199:11274   */\n              swap2\n              swap1\n              pop\n              jump\t// out\n                /* \"#utility.yul\":11280:11549   */\n            tag_139:\n                /* \"#utility.yul\":11390:11429   */\n              tag_267\n                /* \"#utility.yul\":11421:11428   */\n              dup4\n                /* \"#utility.yul\":11390:11429   */\n              tag_137\n              jump\t// in\n            tag_267:\n                /* \"#utility.yul\":11451:11542   */\n              tag_268\n                /* \"#utility.yul\":11500:11541   */\n              tag_269\n                /* \"#utility.yul\":11524:11540   */\n              dup3\n                /* \"#utility.yul\":11500:11541   */\n              tag_138\n              jump\t// in\n            tag_269:\n                /* \"#utility.yul\":11492:11498   */\n              dup5\n                /* \"#utility.yul\":11485:11489   */\n              dup5\n                /* \"#utility.yul\":11479:11490   */\n              sload\n                /* \"#utility.yul\":11451:11542   */\n              tag_134\n              jump\t// in\n            tag_268:\n                /* \"#utility.yul\":11445:11449   */\n              dup3\n                /* \"#utility.yul\":11438:11543   */\n              sstore\n                /* \"#utility.yul\":11356:11549   */\n              pop\n                /* \"#utility.yul\":11280:11549   */\n              pop\n              pop\n              pop\n              jump\t// out\n                /* \"#utility.yul\":11555:11628   */\n            tag_140:\n                /* \"#utility.yul\":11600:11603   */\n              0x00\n                /* \"#utility.yul\":11555:11628   */\n              swap1\n              jump\t// out\n                /* \"#utility.yul\":11634:11823   */\n            tag_141:\n                /* \"#utility.yul\":11711:11743   */\n              tag_272\n              tag_140\n              jump\t// in\n            tag_272:\n                /* \"#utility.yul\":11752:11817   */\n              tag_273\n                /* \"#utility.yul\":11810:11816   */\n              dup2\n                /* \"#utility.yul\":11802:11808   */\n              dup5\n                /* \"#utility.yul\":11796:11800   */\n              dup5\n                /* \"#utility.yul\":11752:11817   */\n              tag_139\n              jump\t// in\n            tag_273:\n                /* \"#utility.yul\":11687:11823   */\n              pop\n                /* \"#utility.yul\":11634:11823   */\n              pop\n              pop\n              jump\t// out\n                /* \"#utility.yul\":11829:12015   */\n            tag_142:\n                /* \"#utility.yul\":11889:12009   */\n            tag_275:\n                /* \"#utility.yul\":11906:11909   */\n              dup2\n                /* \"#utility.yul\":11899:11904   */\n              dup2\n                /* \"#utility.yul\":11896:11910   */\n              lt\n                /* \"#utility.yul\":11889:12009   */\n              iszero\n              tag_277\n              jumpi\n                /* \"#utility.yul\":11960:11999   */\n              tag_278\n                /* \"#utility.yul\":11997:11998   */\n              0x00\n                /* \"#utility.yul\":11990:11995   */\n              dup3\n                /* \"#utility.yul\":11960:11999   */\n              tag_141\n              jump\t// in\n            tag_278:\n                /* \"#utility.yul\":11933:11934   */\n              0x01\n                /* \"#utility.yul\":11926:11931   */\n              dup2\n                /* \"#utility.yul\":11922:11935   */\n              add\n                /* \"#utility.yul\":11913:11935   */\n              swap1\n              pop\n                /* \"#utility.yul\":11889:12009   */\n              jump(tag_275)\n            tag_277:\n                /* \"#utility.yul\":11829:12015   */\n              pop\n              pop\n              jump\t// out\n                /* \"#utility.yul\":12021:12564   */\n            tag_143:\n                /* \"#utility.yul\":12122:12124   */\n              0x1f\n                /* \"#utility.yul\":12117:12120   */\n              dup3\n                /* \"#utility.yul\":12114:12125   */\n              gt\n                /* \"#utility.yul\":12111:12557   */\n              iszero\n              tag_280\n              jumpi\n                /* \"#utility.yul\":12156:12194   */\n              tag_281\n                /* \"#utility.yul\":12188:12193   */\n              dup2\n                /* \"#utility.yul\":12156:12194   */\n              tag_131\n              jump\t// in\n            tag_281:\n                /* \"#utility.yul\":12240:12269   */\n              tag_282\n                /* \"#utility.yul\":12258:12268   */\n              dup5\n                /* \"#utility.yul\":12240:12269   */\n              tag_132\n              jump\t// in\n            tag_282:\n                /* \"#utility.yul\":12230:12238   */\n              dup2\n                /* \"#utility.yul\":12226:12270   */\n              add\n                /* \"#utility.yul\":12423:12425   */\n              0x20\n                /* \"#utility.yul\":12411:12421   */\n              dup6\n                /* \"#utility.yul\":12408:12426   */\n              lt\n                /* \"#utility.yul\":12405:12454   */\n              iszero\n              tag_283\n              jumpi\n                /* \"#utility.yul\":12444:12452   */\n              dup2\n                /* \"#utility.yul\":12429:12452   */\n              swap1\n              pop\n                /* \"#utility.yul\":12405:12454   */\n            tag_283:\n                /* \"#utility.yul\":12467:12547   */\n              tag_284\n                /* \"#utility.yul\":12523:12545   */\n              tag_285\n                /* \"#utility.yul\":12541:12544   */\n              dup6\n                /* \"#utility.yul\":12523:12545   */\n              tag_132\n              jump\t// in\n            tag_285:\n                /* \"#utility.yul\":12513:12521   */\n              dup4\n                /* \"#utility.yul\":12509:12546   */\n              add\n                /* \"#utility.yul\":12496:12507   */\n              dup3\n                /* \"#utility.yul\":12467:12547   */\n              tag_142\n              jump\t// in\n            tag_284:\n                /* \"#utility.yul\":12126:12557   */\n              pop\n              pop\n                /* \"#utility.yul\":12111:12557   */\n            tag_280:\n                /* \"#utility.yul\":12021:12564   */\n              pop\n              pop\n              pop\n              jump\t// out\n                /* \"#utility.yul\":12570:12687   */\n            tag_144:\n                /* \"#utility.yul\":12624:12632   */\n              0x00\n                /* \"#utility.yul\":12674:12679   */\n              dup3\n                /* \"#utility.yul\":12668:12672   */\n              dup3\n                /* \"#utility.yul\":12664:12680   */\n              shr\n                /* \"#utility.yul\":12643:12680   */\n              swap1\n              pop\n                /* \"#utility.yul\":12570:12687   */\n              swap3\n              swap2\n              pop\n              pop\n              jump\t// out\n                /* \"#utility.yul\":12693:12862   */\n            tag_145:\n                /* \"#utility.yul\":12737:12743   */\n              0x00\n                /* \"#utility.yul\":12770:12821   */\n              tag_288\n                /* \"#utility.yul\":12818:12819   */\n              0x00\n                /* \"#utility.yul\":12814:12820   */\n              not\n                /* \"#utility.yul\":12806:12811   */\n              dup5\n                /* \"#utility.yul\":12803:12804   */\n              0x08\n                /* \"#utility.yul\":12799:12812   */\n              mul\n                /* \"#utility.yul\":12770:12821   */\n              tag_144\n              jump\t// in\n            tag_288:\n                /* \"#utility.yul\":12766:12822   */\n              not\n                /* \"#utility.yul\":12851:12855   */\n              dup1\n                /* \"#utility.yul\":12845:12849   */\n              dup4\n                /* \"#utility.yul\":12841:12856   */\n              and\n                /* \"#utility.yul\":12831:12856   */\n              swap2\n              pop\n                /* \"#utility.yul\":12744:12862   */\n              pop\n                /* \"#utility.yul\":12693:12862   */\n              swap3\n              swap2\n              pop\n              pop\n              jump\t// out\n                /* \"#utility.yul\":12867:13162   */\n            tag_146:\n                /* \"#utility.yul\":12943:12947   */\n              0x00\n                /* \"#utility.yul\":13089:13118   */\n              tag_290\n                /* \"#utility.yul\":13114:13117   */\n              dup4\n                /* \"#utility.yul\":13108:13112   */\n              dup4\n                /* \"#utility.yul\":13089:13118   */\n              tag_145\n              jump\t// in\n            tag_290:\n                /* \"#utility.yul\":13081:13118   */\n              swap2\n              pop\n                /* \"#utility.yul\":13151:13154   */\n              dup3\n                /* \"#utility.yul\":13148:13149   */\n              0x02\n                /* \"#utility.yul\":13144:13155   */\n              mul\n                /* \"#utility.yul\":13138:13142   */\n              dup3\n                /* \"#utility.yul\":13135:13156   */\n              or\n                /* \"#utility.yul\":13127:13156   */\n              swap1\n              pop\n                /* \"#utility.yul\":12867:13162   */\n              swap3\n              swap2\n              pop\n              pop\n              jump\t// out\n                /* \"#utility.yul\":13167:14562   */\n            tag_53:\n                /* \"#utility.yul\":13284:13321   */\n              tag_292\n                /* \"#utility.yul\":13317:13320   */\n              dup3\n                /* \"#utility.yul\":13284:13321   */\n              tag_123\n              jump\t// in\n            tag_292:\n                /* \"#utility.yul\":13386:13404   */\n              0xffffffffffffffff\n                /* \"#utility.yul\":13378:13384   */\n              dup2\n                /* \"#utility.yul\":13375:13405   */\n              gt\n                /* \"#utility.yul\":13372:13428   */\n              iszero\n              tag_293\n              jumpi\n                /* \"#utility.yul\":13408:13426   */\n              tag_294\n              tag_111\n              jump\t// in\n            tag_294:\n                /* \"#utility.yul\":13372:13428   */\n            tag_293:\n                /* \"#utility.yul\":13452:13490   */\n              tag_295\n                /* \"#utility.yul\":13484:13488   */\n              dup3\n                /* \"#utility.yul\":13478:13489   */\n              sload\n                /* \"#utility.yul\":13452:13490   */\n              tag_67\n              jump\t// in\n            tag_295:\n                /* \"#utility.yul\":13537:13604   */\n              tag_296\n                /* \"#utility.yul\":13597:13603   */\n              dup3\n                /* \"#utility.yul\":13589:13595   */\n              dup3\n                /* \"#utility.yul\":13583:13587   */\n              dup6\n                /* \"#utility.yul\":13537:13604   */\n              tag_143\n              jump\t// in\n            tag_296:\n                /* \"#utility.yul\":13631:13632   */\n              0x00\n                /* \"#utility.yul\":13655:13659   */\n              0x20\n                /* \"#utility.yul\":13642:13659   */\n              swap1\n              pop\n                /* \"#utility.yul\":13687:13689   */\n              0x1f\n                /* \"#utility.yul\":13679:13685   */\n              dup4\n                /* \"#utility.yul\":13676:13690   */\n              gt\n                /* \"#utility.yul\":13704:13705   */\n              0x01\n                /* \"#utility.yul\":13699:14317   */\n              dup2\n              eq\n              tag_298\n              jumpi\n                /* \"#utility.yul\":14361:14362   */\n              0x00\n                /* \"#utility.yul\":14378:14384   */\n              dup5\n                /* \"#utility.yul\":14375:14452   */\n              iszero\n              tag_299\n              jumpi\n                /* \"#utility.yul\":14427:14436   */\n              dup3\n                /* \"#utility.yul\":14422:14425   */\n              dup8\n                /* \"#utility.yul\":14418:14437   */\n              add\n                /* \"#utility.yul\":14412:14438   */\n              mload\n                /* \"#utility.yul\":14403:14438   */\n              swap1\n              pop\n                /* \"#utility.yul\":14375:14452   */\n            tag_299:\n                /* \"#utility.yul\":14478:14545   */\n              tag_300\n                /* \"#utility.yul\":14538:14544   */\n              dup6\n                /* \"#utility.yul\":14531:14536   */\n              dup3\n                /* \"#utility.yul\":14478:14545   */\n              tag_146\n              jump\t// in\n            tag_300:\n                /* \"#utility.yul\":14472:14476   */\n              dup7\n                /* \"#utility.yul\":14465:14546   */\n              sstore\n                /* \"#utility.yul\":14334:14556   */\n              pop\n                /* \"#utility.yul\":13669:14556   */\n              jump(tag_297)\n                /* \"#utility.yul\":13699:14317   */\n            tag_298:\n                /* \"#utility.yul\":13751:13755   */\n              0x1f\n                /* \"#utility.yul\":13747:13756   */\n              not\n                /* \"#utility.yul\":13739:13745   */\n              dup5\n                /* \"#utility.yul\":13735:13757   */\n              and\n                /* \"#utility.yul\":13785:13822   */\n              tag_301\n                /* \"#utility.yul\":13817:13821   */\n              dup7\n                /* \"#utility.yul\":13785:13822   */\n              tag_131\n              jump\t// in\n            tag_301:\n                /* \"#utility.yul\":13844:13845   */\n              0x00\n                /* \"#utility.yul\":13858:14066   */\n            tag_302:\n                /* \"#utility.yul\":13872:13879   */\n              dup3\n                /* \"#utility.yul\":13869:13870   */\n              dup2\n                /* \"#utility.yul\":13866:13880   */\n              lt\n                /* \"#utility.yul\":13858:14066   */\n              iszero\n              tag_304\n              jumpi\n                /* \"#utility.yul\":13951:13960   */\n              dup5\n                /* \"#utility.yul\":13946:13949   */\n              dup10\n                /* \"#utility.yul\":13942:13961   */\n              add\n                /* \"#utility.yul\":13936:13962   */\n              mload\n                /* \"#utility.yul\":13928:13934   */\n              dup3\n                /* \"#utility.yul\":13921:13963   */\n              sstore\n                /* \"#utility.yul\":14002:14003   */\n              0x01\n                /* \"#utility.yul\":13994:14000   */\n              dup3\n                /* \"#utility.yul\":13990:14004   */\n              add\n                /* \"#utility.yul\":13980:14004   */\n              swap2\n              pop\n                /* \"#utility.yul\":14049:14051   */\n              0x20\n                /* \"#utility.yul\":14038:14047   */\n              dup6\n                /* \"#utility.yul\":14034:14052   */\n              add\n                /* \"#utility.yul\":14021:14052   */\n              swap5\n              pop\n                /* \"#utility.yul\":13895:13899   */\n              0x20\n                /* \"#utility.yul\":13892:13893   */\n              dup2\n                /* \"#utility.yul\":13888:13900   */\n              add\n                /* \"#utility.yul\":13883:13900   */\n              swap1\n              pop\n                /* \"#utility.yul\":13858:14066   */\n              jump(tag_302)\n            tag_304:\n                /* \"#utility.yul\":14094:14100   */\n              dup7\n                /* \"#utility.yul\":14085:14092   */\n              dup4\n                /* \"#utility.yul\":14082:14101   */\n              lt\n                /* \"#utility.yul\":14079:14258   */\n              iszero\n              tag_305\n              jumpi\n                /* \"#utility.yul\":14152:14161   */\n              dup5\n                /* \"#utility.yul\":14147:14150   */\n              dup10\n                /* \"#utility.yul\":14143:14162   */\n              add\n                /* \"#utility.yul\":14137:14163   */\n              mload\n                /* \"#utility.yul\":14195:14243   */\n              tag_306\n                /* \"#utility.yul\":14237:14241   */\n              0x1f\n                /* \"#utility.yul\":14229:14235   */\n              dup10\n                /* \"#utility.yul\":14225:14242   */\n              and\n                /* \"#utility.yul\":14214:14223   */\n              dup3\n                /* \"#utility.yul\":14195:14243   */\n              tag_145\n              jump\t// in\n            tag_306:\n                /* \"#utility.yul\":14187:14193   */\n              dup4\n                /* \"#utility.yul\":14180:14244   */\n              sstore\n                /* \"#utility.yul\":14102:14258   */\n              pop\n                /* \"#utility.yul\":14079:14258   */\n            tag_305:\n                /* \"#utility.yul\":14304:14305   */\n              0x01\n                /* \"#utility.yul\":14300:14301   */\n              0x02\n                /* \"#utility.yul\":14292:14298   */\n              dup9\n                /* \"#utility.yul\":14288:14302   */\n              mul\n                /* \"#utility.yul\":14284:14306   */\n              add\n                /* \"#utility.yul\":14278:14282   */\n              dup9\n                /* \"#utility.yul\":14271:14307   */\n              sstore\n                /* \"#utility.yul\":13706:14317   */\n              pop\n              pop\n              pop\n                /* \"#utility.yul\":13669:14556   */\n            tag_297:\n              pop\n                /* \"#utility.yul\":13259:14562   */\n              pop\n              pop\n              pop\n                /* \"#utility.yul\":13167:14562   */\n              pop\n              pop\n              jump\t// out\n\n            auxdata: 0xa2646970667358221220097527c2ee3f83a2e017b8dbe7e0fb87f122666d3c987eb32045ae01969d83a064736f6c63430008190033\n        }\n    }\n\n    auxdata: 0xa264697066735822122020627aa35b0de89e411aa50394cb7ac19906e87de20f5b7fdc14685c12c69dca64736f6c63430008190033\n}\n","bytecode":{"linkReferences":{},"object":"6080604052348015600e575f80fd5b506119fd8061001c5f395ff3fe608060405234801561000f575f80fd5b506004361061003f575f3560e01c806308ac800c1461004357806380b29bec14610073578063c0900bea1461008f575b5f80fd5b61005d60048036038101906100589190610411565b6100c0565b60405161006a9190610497565b60405180910390f35b61008d600480360381019061008891906104b0565b610108565b005b6100a960048036038101906100a49190610411565b6101db565b6040516100b7929190610586565b60405180910390f35b5f80826040516100d091906105ee565b90815260200160405180910390206001015f9054906101000a900473ffffffffffffffffffffffffffffffffffffffff169050919050565b5f604051610115906102b7565b604051809103905ff08015801561012e573d5f803e3d5ffd5b50905060405180604001604052808481526020018273ffffffffffffffffffffffffffffffffffffffff168152505f8360405161016b91906105ee565b90815260200160405180910390205f820151815f01908161018c9190610807565b506020820151816001015f6101000a81548173ffffffffffffffffffffffffffffffffffffffff021916908373ffffffffffffffffffffffffffffffffffffffff160217905550905050505050565b5f818051602081018201805184825260208301602085012081835280955050505050505f91509050805f01805461021190610631565b80601f016020809104026020016040519081016040528092919081815260200182805461023d90610631565b80156102885780601f1061025f57610100808354040283529160200191610288565b820191905f5260205f20905b81548152906001019060200180831161026b57829003601f168201915b505050505090806001015f9054906101000a900473ffffffffffffffffffffffffffffffffffffffff16905082565b6110f1806108d783390190565b5f604051905090565b5f80fd5b5f80fd5b5f80fd5b5f80fd5b5f601f19601f8301169050919050565b7f4e487b71000000000000000000000000000000000000000000000000000000005f52604160045260245ffd5b610323826102dd565b810181811067ffffffffffffffff82111715610342576103416102ed565b5b80604052505050565b5f6103546102c4565b9050610360828261031a565b919050565b5f67ffffffffffffffff82111561037f5761037e6102ed565b5b610388826102dd565b9050602081019050919050565b828183375f83830152505050565b5f6103b56103b084610365565b61034b565b9050828152602081018484840111156103d1576103d06102d9565b5b6103dc848285610395565b509392505050565b5f82601f8301126103f8576103f76102d5565b5b81356104088482602086016103a3565b91505092915050565b5f60208284031215610426576104256102cd565b5b5f82013567ffffffffffffffff811115610443576104426102d1565b5b61044f848285016103e4565b91505092915050565b5f73ffffffffffffffffffffffffffffffffffffffff82169050919050565b5f61048182610458565b9050919050565b61049181610477565b82525050565b5f6020820190506104aa5f830184610488565b92915050565b5f80604083850312156104c6576104c56102cd565b5b5f83013567ffffffffffffffff8111156104e3576104e26102d1565b5b6104ef858286016103e4565b925050602083013567ffffffffffffffff8111156105105761050f6102d1565b5b61051c858286016103e4565b9150509250929050565b5f81519050919050565b5f82825260208201905092915050565b8281835e5f83830152505050565b5f61055882610526565b6105628185610530565b9350610572818560208601610540565b61057b816102dd565b840191505092915050565b5f6040820190508181035f83015261059e818561054e565b90506105ad6020830184610488565b9392505050565b5f81905092915050565b5f6105c882610526565b6105d281856105b4565b93506105e2818560208601610540565b80840191505092915050565b5f6105f982846105be565b915081905092915050565b7f4e487b71000000000000000000000000000000000000000000000000000000005f52602260045260245ffd5b5f600282049050600182168061064857607f821691505b60208210810361065b5761065a610604565b5b50919050565b5f819050815f5260205f209050919050565b5f6020601f8301049050919050565b5f82821b905092915050565b5f600883026106bd7fffffffffffffffffffffffffffffffffffffffffffffffffffffffffffffffff82610682565b6106c78683610682565b95508019841693508086168417925050509392505050565b5f819050919050565b5f819050919050565b5f61070b610706610701846106df565b6106e8565b6106df565b9050919050565b5f819050919050565b610724836106f1565b61073861073082610712565b84845461068e565b825550505050565b5f90565b61074c610740565b61075781848461071b565b505050565b5b8181101561077a5761076f5f82610744565b60018101905061075d565b5050565b601f8211156107bf5761079081610661565b61079984610673565b810160208510156107a8578190505b6107bc6107b485610673565b83018261075c565b50505b505050565b5f82821c905092915050565b5f6107df5f19846008026107c4565b1980831691505092915050565b5f6107f783836107d0565b9150826002028217905092915050565b61081082610526565b67ffffffffffffffff811115610829576108286102ed565b5b6108338254610631565b61083e82828561077e565b5f60209050601f83116001811461086f575f841561085d578287015190505b61086785826107ec565b8655506108ce565b601f19841661087d86610661565b5f5b828110156108a45784890151825560018201915060208501945060208101905061087f565b868310156108c157848901516108bd601f8916826107d0565b8355505b6001600288020188555050505b50505050505056fe6080604052348015600e575f80fd5b506110d58061001c5f395ff3fe608060405234801561000f575f80fd5b5060043610610086575f3560e01c8063c0effb7d11610059578063c0effb7d14610126578063d8ce657214610142578063e47766ff14610173578063ea42c7ef1461018f57610086565b80630e34b00e1461008a578063220f8ade146100a65780637f975a37146100d6578063b15bf255146100f2575b5f80fd5b6100a4600480360381019061009f9190610a53565b6101c0565b005b6100c060048036038101906100bb9190610b30565b6102d8565b6040516100cd9190610ba4565b60405180910390f35b6100f060048036038101906100eb9190610b30565b61036d565b005b61010c60048036038101906101079190610bbd565b6103ee565b60405161011d959493929190610c73565b60405180910390f35b610140600480360381019061013b9190610cd9565b6105e6565b005b61015c60048036038101906101579190610bbd565b610704565b60405161016a929190610d4f565b60405180910390f35b61018d60048036038101906101889190610bbd565b6107cd565b005b6101a960048036038101906101a49190610bbd565b61083c565b6040516101b7929190610d4f565b60405180910390f35b5f15156001846040516101d39190610db7565b90815260200160405180910390206003015f9054906101000a900460ff161515146101fc575f80fd5b6040518060a001604052808481526020018381526020018281526020016001151581526020015f63ffffffff1681525060018460405161023c9190610db7565b90815260200160405180910390205f820151815f01908161025d9190610fd0565b5060208201518160010190816102739190610fd0565b5060408201518160020190816102899190610fd0565b506060820151816003015f6101000a81548160ff02191690831515021790555060808201518160030160016101000a81548163ffffffff021916908363ffffffff160217905550905050505050565b5f600115155f846040516102ec9190610db7565b90815260200160405180910390206001015f9054906101000a900460ff16151514801561035557508163ffffffff1660018460405161032b9190610db7565b908152602001604051809103902060030160019054906101000a900463ffffffff1663ffffffff16145b156103635760019050610367565b5f90505b92915050565b600115156001836040516103819190610db7565b90815260200160405180910390206003015f9054906101000a900460ff161515146103aa575f80fd5b806001836040516103bb9190610db7565b908152602001604051809103902060030160016101000a81548163ffffffff021916908363ffffffff1602179055505050565b6001818051602081018201805184825260208301602085012081835280955050505050505f91509050805f01805461042590610dfa565b80601f016020809104026020016040519081016040528092919081815260200182805461045190610dfa565b801561049c5780601f106104735761010080835404028352916020019161049c565b820191905f5260205f20905b81548152906001019060200180831161047f57829003601f168201915b5050505050908060010180546104b190610dfa565b80601f01602080910402602001604051908101604052809291908181526020018280546104dd90610dfa565b80156105285780601f106104ff57610100808354040283529160200191610528565b820191905f5260205f20905b81548152906001019060200180831161050b57829003601f168201915b50505050509080600201805461053d90610dfa565b80601f016020809104026020016040519081016040528092919081815260200182805461056990610dfa565b80156105b45780601f1061058b576101008083540402835291602001916105b4565b820191905f5260205f20905b81548152906001019060200180831161059757829003601f168201915b505050505090806003015f9054906101000a900460ff16908060030160019054906101000a900463ffffffff16905085565b600115156001836040516105fa9190610db7565b90815260200160405180910390206003015f9054906101000a900460ff16151514610623575f80fd5b5f15155f836040516106359190610db7565b90815260200160405180910390206001015f9054906101000a900460ff1615151461065e575f80fd5b600115156002826040516106729190610db7565b90815260200160405180910390206001015f9054906101000a900460ff1615151461069b575f80fd5b805f836040516106ab9190610db7565b90815260200160405180910390205f0190816106c79190610fd0565b5060015f836040516106d99190610db7565b90815260200160405180910390206001015f6101000a81548160ff0219169083151502179055505050565b5f818051602081018201805184825260208301602085012081835280955050505050505f91509050805f01805461073a90610dfa565b80601f016020809104026020016040519081016040528092919081815260200182805461076690610dfa565b80156107b15780601f10610788576101008083540402835291602001916107b1565b820191905f5260205f20905b81548152906001019060200180831161079457829003601f168201915b505050505090806001015f9054906101000a900460ff16905082565b6040518060400160405280828152602001600115158152506002826040516107f59190610db7565b90815260200160405180910390205f820151815f0190816108169190610fd0565b506020820151816001015f6101000a81548160ff02191690831515021790555090505050565b6002818051602081018201805184825260208301602085012081835280955050505050505f91509050805f01805461087390610dfa565b80601f016020809104026020016040519081016040528092919081815260200182805461089f90610dfa565b80156108ea5780601f106108c1576101008083540402835291602001916108ea565b820191905f5260205f20905b8154815290600101906020018083116108cd57829003601f168201915b505050505090806001015f9054906101000a900460ff16905082565b5f604051905090565b5f80fd5b5f80fd5b5f80fd5b5f80fd5b5f601f19601f8301169050919050565b7f4e487b71000000000000000000000000000000000000000000000000000000005f52604160045260245ffd5b6109658261091f565b810181811067ffffffffffffffff821117156109845761098361092f565b5b80604052505050565b5f610996610906565b90506109a2828261095c565b919050565b5f67ffffffffffffffff8211156109c1576109c061092f565b5b6109ca8261091f565b9050602081019050919050565b828183375f83830152505050565b5f6109f76109f2846109a7565b61098d565b905082815260208101848484011115610a1357610a1261091b565b5b610a1e8482856109d7565b509392505050565b5f82601f830112610a3a57610a39610917565b5b8135610a4a8482602086016109e5565b91505092915050565b5f805f60608486031215610a6a57610a6961090f565b5b5f84013567ffffffffffffffff811115610a8757610a86610913565b5b610a9386828701610a26565b935050602084013567ffffffffffffffff811115610ab457610ab3610913565b5b610ac086828701610a26565b925050604084013567ffffffffffffffff811115610ae157610ae0610913565b5b610aed86828701610a26565b9150509250925092565b5f63ffffffff82169050919050565b610b0f81610af7565b8114610b19575f80fd5b50565b5f81359050610b2a81610b06565b92915050565b5f8060408385031215610b4657610b4561090f565b5b5f83013567ffffffffffffffff811115610b6357610b62610913565b5b610b6f85828601610a26565b9250506020610b8085828601610b1c565b9150509250929050565b5f8115159050919050565b610b9e81610b8a565b82525050565b5f602082019050610bb75f830184610b95565b92915050565b5f60208284031215610bd257610bd161090f565b5b5f82013567ffffffffffffffff811115610bef57610bee610913565b5b610bfb84828501610a26565b91505092915050565b5f81519050919050565b5f82825260208201905092915050565b8281835e5f83830152505050565b5f610c3682610c04565b610c408185610c0e565b9350610c50818560208601610c1e565b610c598161091f565b840191505092915050565b610c6d81610af7565b82525050565b5f60a0820190508181035f830152610c8b8188610c2c565b90508181036020830152610c9f8187610c2c565b90508181036040830152610cb38186610c2c565b9050610cc26060830185610b95565b610ccf6080830184610c64565b9695505050505050565b5f8060408385031215610cef57610cee61090f565b5b5f83013567ffffffffffffffff811115610d0c57610d0b610913565b5b610d1885828601610a26565b925050602083013567ffffffffffffffff811115610d3957610d38610913565b5b610d4585828601610a26565b9150509250929050565b5f6040820190508181035f830152610d678185610c2c565b9050610d766020830184610b95565b9392505050565b5f81905092915050565b5f610d9182610c04565b610d9b8185610d7d565b9350610dab818560208601610c1e565b80840191505092915050565b5f610dc28284610d87565b915081905092915050565b7f4e487b71000000000000000000000000000000000000000000000000000000005f52602260045260245ffd5b5f6002820490506001821680610e1157607f821691505b602082108103610e2457610e23610dcd565b5b50919050565b5f819050815f5260205f209050919050565b5f6020601f8301049050919050565b5f82821b905092915050565b5f60088302610e867fffffffffffffffffffffffffffffffffffffffffffffffffffffffffffffffff82610e4b565b610e908683610e4b565b95508019841693508086168417925050509392505050565b5f819050919050565b5f819050919050565b5f610ed4610ecf610eca84610ea8565b610eb1565b610ea8565b9050919050565b5f819050919050565b610eed83610eba565b610f01610ef982610edb565b848454610e57565b825550505050565b5f90565b610f15610f09565b610f20818484610ee4565b505050565b5b81811015610f4357610f385f82610f0d565b600181019050610f26565b5050565b601f821115610f8857610f5981610e2a565b610f6284610e3c565b81016020851015610f71578190505b610f85610f7d85610e3c565b830182610f25565b50505b505050565b5f82821c905092915050565b5f610fa85f1984600802610f8d565b1980831691505092915050565b5f610fc08383610f99565b9150826002028217905092915050565b610fd982610c04565b67ffffffffffffffff811115610ff257610ff161092f565b5b610ffc8254610dfa565b611007828285610f47565b5f60209050601f831160018114611038575f8415611026578287015190505b6110308582610fb5565b865550611097565b601f19841661104686610e2a565b5f5b8281101561106d57848901518255600182019150602085019450602081019050611048565b8683101561108a5784890151611086601f891682610f99565b8355505b6001600288020188555050505b50505050505056fea2646970667358221220097527c2ee3f83a2e017b8dbe7e0fb87f122666d3c987eb32045ae01969d83a064736f6c63430008190033a264697066735822122020627aa35b0de89e411aa50394cb7ac19906e87de20f5b7fdc14685c12c69dca64736f6c63430008190033","opcodes":"PUSH1 0x80 PUSH1 0x40 MSTORE CALLVALUE DUP1 ISZERO PUSH1 0xE JUMPI PUSH0 DUP1 REVERT JUMPDEST POP PUSH2 0x19FD DUP1 PUSH2 0x1C PUSH0 CODECOPY PUSH0 RETURN INVALID PUSH1 0x80 PUSH1 0x40 MSTORE CALLVALUE DUP1 ISZERO PUSH2 0xF JUMPI PUSH0 DUP1 REVERT JUMPDEST POP PUSH1 0x4 CALLDATASIZE LT PUSH2 0x3F JUMPI PUSH0 CALLDATALOAD PUSH1 0xE0 SHR DUP1 PUSH4 0x8AC800C EQ PUSH2 0x43 JUMPI DUP1 PUSH4 0x80B29BEC EQ PUSH2 0x73 JUMPI DUP1 PUSH4 0xC0900BEA EQ PUSH2 0x8F JUMPI JUMPDEST PUSH0 DUP1 REVERT JUMPDEST PUSH2 0x5D PUSH1 0x4 DUP1 CALLDATASIZE SUB DUP2 ADD SWAP1 PUSH2 0x58 SWAP2 SWAP1 PUSH2 0x411 JUMP JUMPDEST PUSH2 0xC0 JUMP JUMPDEST PUSH1 0x40 MLOAD PUSH2 0x6A SWAP2 SWAP1 PUSH2 0x497 JUMP JUMPDEST PUSH1 0x40 MLOAD DUP1 SWAP2 SUB SWAP1 RETURN JUMPDEST PUSH2 0x8D PUSH1 0x4 DUP1 CALLDATASIZE SUB DUP2 ADD SWAP1 PUSH2 0x88 SWAP2 SWAP1 PUSH2 0x4B0 JUMP JUMPDEST PUSH2 0x108 JUMP JUMPDEST STOP JUMPDEST PUSH2 0xA9 PUSH1 0x4 DUP1 CALLDATASIZE SUB DUP2 ADD SWAP1 PUSH2 0xA4 SWAP2 SWAP1 PUSH2 0x411 JUMP JUMPDEST PUSH2 0x1DB JUMP JUMPDEST PUSH1 0x40 MLOAD PUSH2 0xB7 SWAP3 SWAP2 SWAP1 PUSH2 0x586 JUMP JUMPDEST PUSH1 0x40 MLOAD DUP1 SWAP2 SUB SWAP1 RETURN JUMPDEST PUSH0 DUP1 DUP3 PUSH1 0x40 MLOAD PUSH2 0xD0 SWAP2 SWAP1 PUSH2 0x5EE JUMP JUMPDEST SWAP1 DUP2 MSTORE PUSH1 0x20 ADD PUSH1 0x40 MLOAD DUP1 SWAP2 SUB SWAP1 KECCAK256 PUSH1 0x1 ADD PUSH0 SWAP1 SLOAD SWAP1 PUSH2 0x100 EXP SWAP1 DIV PUSH20 0xFFFFFFFFFFFFFFFFFFFFFFFFFFFFFFFFFFFFFFFF AND SWAP1 POP SWAP2 SWAP1 POP JUMP JUMPDEST PUSH0 PUSH1 0x40 MLOAD PUSH2 0x115 SWAP1 PUSH2 0x2B7 JUMP JUMPDEST PUSH1 0x40 MLOAD DUP1 SWAP2 SUB SWAP1 PUSH0 CREATE DUP1 ISZERO DUP1 ISZERO PUSH2 0x12E JUMPI RETURNDATASIZE PUSH0 DUP1 RETURNDATACOPY RETURNDATASIZE PUSH0 REVERT JUMPDEST POP SWAP1 POP PUSH1 0x40 MLOAD DUP1 PUSH1 0x40 ADD PUSH1 0x40 MSTORE DUP1 DUP5 DUP2 MSTORE PUSH1 0x20 ADD DUP3 PUSH20 0xFFFFFFFFFFFFFFFFFFFFFFFFFFFFFFFFFFFFFFFF AND DUP2 MSTORE POP PUSH0 DUP4 PUSH1 0x40 MLOAD PUSH2 0x16B SWAP2 SWAP1 PUSH2 0x5EE JUMP JUMPDEST SWAP1 DUP2 MSTORE PUSH1 0x20 ADD PUSH1 0x40 MLOAD DUP1 SWAP2 SUB SWAP1 KECCAK256 PUSH0 DUP3 ADD MLOAD DUP2 PUSH0 ADD SWAP1 DUP2 PUSH2 0x18C SWAP2 SWAP1 PUSH2 0x807 JUMP JUMPDEST POP PUSH1 0x20 DUP3 ADD MLOAD DUP2 PUSH1 0x1 ADD PUSH0 PUSH2 0x100 EXP DUP2 SLOAD DUP2 PUSH20 0xFFFFFFFFFFFFFFFFFFFFFFFFFFFFFFFFFFFFFFFF MUL NOT AND SWAP1 DUP4 PUSH20 0xFFFFFFFFFFFFFFFFFFFFFFFFFFFFFFFFFFFFFFFF AND MUL OR SWAP1 SSTORE POP SWAP1 POP POP POP POP POP JUMP JUMPDEST PUSH0 DUP2 DUP1 MLOAD PUSH1 0x20 DUP2 ADD DUP3 ADD DUP1 MLOAD DUP5 DUP3 MSTORE PUSH1 0x20 DUP4 ADD PUSH1 0x20 DUP6 ADD KECCAK256 DUP2 DUP4 MSTORE DUP1 SWAP6 POP POP POP POP POP POP PUSH0 SWAP2 POP SWAP1 POP DUP1 PUSH0 ADD DUP1 SLOAD PUSH2 0x211 SWAP1 PUSH2 0x631 JUMP JUMPDEST DUP1 PUSH1 0x1F ADD PUSH1 0x20 DUP1 SWAP2 DIV MUL PUSH1 0x20 ADD PUSH1 0x40 MLOAD SWAP1 DUP2 ADD PUSH1 0x40 MSTORE DUP1 SWAP3 SWAP2 SWAP1 DUP2 DUP2 MSTORE PUSH1 0x20 ADD DUP3 DUP1 SLOAD PUSH2 0x23D SWAP1 PUSH2 0x631 JUMP JUMPDEST DUP1 ISZERO PUSH2 0x288 JUMPI DUP1 PUSH1 0x1F LT PUSH2 0x25F JUMPI PUSH2 0x100 DUP1 DUP4 SLOAD DIV MUL DUP4 MSTORE SWAP2 PUSH1 0x20 ADD SWAP2 PUSH2 0x288 JUMP JUMPDEST DUP3 ADD SWAP2 SWAP1 PUSH0 MSTORE PUSH1 0x20 PUSH0 KECCAK256 SWAP1 JUMPDEST DUP2 SLOAD DUP2 MSTORE SWAP1 PUSH1 0x1 ADD SWAP1 PUSH1 0x20 ADD DUP1 DUP4 GT PUSH2 0x26B JUMPI DUP3 SWAP1 SUB PUSH1 0x1F AND DUP3 ADD SWAP2 JUMPDEST POP POP POP POP POP SWAP1 DUP1 PUSH1 0x1 ADD PUSH0 SWAP1 SLOAD SWAP1 PUSH2 0x100 EXP SWAP1 DIV PUSH20 0xFFFFFFFFFFFFFFFFFFFFFFFFFFFFFFFFFFFFFFFF AND SWAP1 POP DUP3 JUMP JUMPDEST PUSH2 0x10F1 DUP1 PUSH2 0x8D7 DUP4 CODECOPY ADD SWAP1 JUMP JUMPDEST PUSH0 PUSH1 0x40 MLOAD SWAP1 POP SWAP1 JUMP JUMPDEST PUSH0 DUP1 REVERT JUMPDEST PUSH0 DUP1 REVERT JUMPDEST PUSH0 DUP1 REVERT JUMPDEST PUSH0 DUP1 REVERT JUMPDEST PUSH0 PUSH1 0x1F NOT PUSH1 0x1F DUP4 ADD AND SWAP1 POP SWAP2 SWAP1 POP JUMP JUMPDEST PUSH32 0x4E487B7100000000000000000000000000000000000000000000000000000000 PUSH0 MSTORE PUSH1 0x41 PUSH1 0x4 MSTORE PUSH1 0x24 PUSH0 REVERT JUMPDEST PUSH2 0x323 DUP3 PUSH2 0x2DD JUMP JUMPDEST DUP2 ADD DUP2 DUP2 LT PUSH8 0xFFFFFFFFFFFFFFFF DUP3 GT OR ISZERO PUSH2 0x342 JUMPI PUSH2 0x341 PUSH2 0x2ED JUMP JUMPDEST JUMPDEST DUP1 PUSH1 0x40 MSTORE POP POP POP JUMP JUMPDEST PUSH0 PUSH2 0x354 PUSH2 0x2C4 JUMP JUMPDEST SWAP1 POP PUSH2 0x360 DUP3 DUP3 PUSH2 0x31A JUMP JUMPDEST SWAP2 SWAP1 POP JUMP JUMPDEST PUSH0 PUSH8 0xFFFFFFFFFFFFFFFF DUP3 GT ISZERO PUSH2 0x37F JUMPI PUSH2 0x37E PUSH2 0x2ED JUMP JUMPDEST JUMPDEST PUSH2 0x388 DUP3 PUSH2 0x2DD JUMP JUMPDEST SWAP1 POP PUSH1 0x20 DUP2 ADD SWAP1 POP SWAP2 SWAP1 POP JUMP JUMPDEST DUP3 DUP2 DUP4 CALLDATACOPY PUSH0 DUP4 DUP4 ADD MSTORE POP POP POP JUMP JUMPDEST PUSH0 PUSH2 0x3B5 PUSH2 0x3B0 DUP5 PUSH2 0x365 JUMP JUMPDEST PUSH2 0x34B JUMP JUMPDEST SWAP1 POP DUP3 DUP2 MSTORE PUSH1 0x20 DUP2 ADD DUP5 DUP5 DUP5 ADD GT ISZERO PUSH2 0x3D1 JUMPI PUSH2 0x3D0 PUSH2 0x2D9 JUMP JUMPDEST JUMPDEST PUSH2 0x3DC DUP5 DUP3 DUP6 PUSH2 0x395 JUMP JUMPDEST POP SWAP4 SWAP3 POP POP POP JUMP JUMPDEST PUSH0 DUP3 PUSH1 0x1F DUP4 ADD SLT PUSH2 0x3F8 JUMPI PUSH2 0x3F7 PUSH2 0x2D5 JUMP JUMPDEST JUMPDEST DUP2 CALLDATALOAD PUSH2 0x408 DUP5 DUP3 PUSH1 0x20 DUP7 ADD PUSH2 0x3A3 JUMP JUMPDEST SWAP2 POP POP SWAP3 SWAP2 POP POP JUMP JUMPDEST PUSH0 PUSH1 0x20 DUP3 DUP5 SUB SLT ISZERO PUSH2 0x426 JUMPI PUSH2 0x425 PUSH2 0x2CD JUMP JUMPDEST JUMPDEST PUSH0 DUP3 ADD CALLDATALOAD PUSH8 0xFFFFFFFFFFFFFFFF DUP2 GT ISZERO PUSH2 0x443 JUMPI PUSH2 0x442 PUSH2 0x2D1 JUMP JUMPDEST JUMPDEST PUSH2 0x44F DUP5 DUP3 DUP6 ADD PUSH2 0x3E4 JUMP JUMPDEST SWAP2 POP POP SWAP3 SWAP2 POP POP JUMP JUMPDEST PUSH0 PUSH20 0xFFFFFFFFFFFFFFFFFFFFFFFFFFFFFFFFFFFFFFFF DUP3 AND SWAP1 POP SWAP2 SWAP1 POP JUMP JUMPDEST PUSH0 PUSH2 0x481 DUP3 PUSH2 0x458 JUMP JUMPDEST SWAP1 POP SWAP2 SWAP1 POP JUMP JUMPDEST PUSH2 0x491 DUP2 PUSH2 0x477 JUMP JUMPDEST DUP3 MSTORE POP POP JUMP JUMPDEST PUSH0 PUSH1 0x20 DUP3 ADD SWAP1 POP PUSH2 0x4AA PUSH0 DUP4 ADD DUP5 PUSH2 0x488 JUMP JUMPDEST SWAP3 SWAP2 POP POP JUMP JUMPDEST PUSH0 DUP1 PUSH1 0x40 DUP4 DUP6 SUB SLT ISZERO PUSH2 0x4C6 JUMPI PUSH2 0x4C5 PUSH2 0x2CD JUMP JUMPDEST JUMPDEST PUSH0 DUP4 ADD CALLDATALOAD PUSH8 0xFFFFFFFFFFFFFFFF DUP2 GT ISZERO PUSH2 0x4E3 JUMPI PUSH2 0x4E2 PUSH2 0x2D1 JUMP JUMPDEST JUMPDEST PUSH2 0x4EF DUP6 DUP3 DUP7 ADD PUSH2 0x3E4 JUMP JUMPDEST SWAP3 POP POP PUSH1 0x20 DUP4 ADD CALLDATALOAD PUSH8 0xFFFFFFFFFFFFFFFF DUP2 GT ISZERO PUSH2 0x510 JUMPI PUSH2 0x50F PUSH2 0x2D1 JUMP JUMPDEST JUMPDEST PUSH2 0x51C DUP6 DUP3 DUP7 ADD PUSH2 0x3E4 JUMP JUMPDEST SWAP2 POP POP SWAP3 POP SWAP3 SWAP1 POP JUMP JUMPDEST PUSH0 DUP2 MLOAD SWAP1 POP SWAP2 SWAP1 POP JUMP JUMPDEST PUSH0 DUP3 DUP3 MSTORE PUSH1 0x20 DUP3 ADD SWAP1 POP SWAP3 SWAP2 POP POP JUMP JUMPDEST DUP3 DUP2 DUP4 MCOPY PUSH0 DUP4 DUP4 ADD MSTORE POP POP POP JUMP JUMPDEST PUSH0 PUSH2 0x558 DUP3 PUSH2 0x526 JUMP JUMPDEST PUSH2 0x562 DUP2 DUP6 PUSH2 0x530 JUMP JUMPDEST SWAP4 POP PUSH2 0x572 DUP2 DUP6 PUSH1 0x20 DUP7 ADD PUSH2 0x540 JUMP JUMPDEST PUSH2 0x57B DUP2 PUSH2 0x2DD JUMP JUMPDEST DUP5 ADD SWAP2 POP POP SWAP3 SWAP2 POP POP JUMP JUMPDEST PUSH0 PUSH1 0x40 DUP3 ADD SWAP1 POP DUP2 DUP2 SUB PUSH0 DUP4 ADD MSTORE PUSH2 0x59E DUP2 DUP6 PUSH2 0x54E JUMP JUMPDEST SWAP1 POP PUSH2 0x5AD PUSH1 0x20 DUP4 ADD DUP5 PUSH2 0x488 JUMP JUMPDEST SWAP4 SWAP3 POP POP POP JUMP JUMPDEST PUSH0 DUP2 SWAP1 POP SWAP3 SWAP2 POP POP JUMP JUMPDEST PUSH0 PUSH2 0x5C8 DUP3 PUSH2 0x526 JUMP JUMPDEST PUSH2 0x5D2 DUP2 DUP6 PUSH2 0x5B4 JUMP JUMPDEST SWAP4 POP PUSH2 0x5E2 DUP2 DUP6 PUSH1 0x20 DUP7 ADD PUSH2 0x540 JUMP JUMPDEST DUP1 DUP5 ADD SWAP2 POP POP SWAP3 SWAP2 POP POP JUMP JUMPDEST PUSH0 PUSH2 0x5F9 DUP3 DUP5 PUSH2 0x5BE JUMP JUMPDEST SWAP2 POP DUP2 SWAP1 POP SWAP3 SWAP2 POP POP JUMP JUMPDEST PUSH32 0x4E487B7100000000000000000000000000000000000000000000000000000000 PUSH0 MSTORE PUSH1 0x22 PUSH1 0x4 MSTORE PUSH1 0x24 PUSH0 REVERT JUMPDEST PUSH0 PUSH1 0x2 DUP3 DIV SWAP1 POP PUSH1 0x1 DUP3 AND DUP1 PUSH2 0x648 JUMPI PUSH1 0x7F DUP3 AND SWAP2 POP JUMPDEST PUSH1 0x20 DUP3 LT DUP2 SUB PUSH2 0x65B JUMPI PUSH2 0x65A PUSH2 0x604 JUMP JUMPDEST JUMPDEST POP SWAP2 SWAP1 POP JUMP JUMPDEST PUSH0 DUP2 SWAP1 POP DUP2 PUSH0 MSTORE PUSH1 0x20 PUSH0 KECCAK256 SWAP1 POP SWAP2 SWAP1 POP JUMP JUMPDEST PUSH0 PUSH1 0x20 PUSH1 0x1F DUP4 ADD DIV SWAP1 POP SWAP2 SWAP1 POP JUMP JUMPDEST PUSH0 DUP3 DUP3 SHL SWAP1 POP SWAP3 SWAP2 POP POP JUMP JUMPDEST PUSH0 PUSH1 0x8 DUP4 MUL PUSH2 0x6BD PUSH32 0xFFFFFFFFFFFFFFFFFFFFFFFFFFFFFFFFFFFFFFFFFFFFFFFFFFFFFFFFFFFFFFFF DUP3 PUSH2 0x682 JUMP JUMPDEST PUSH2 0x6C7 DUP7 DUP4 PUSH2 0x682 JUMP JUMPDEST SWAP6 POP DUP1 NOT DUP5 AND SWAP4 POP DUP1 DUP7 AND DUP5 OR SWAP3 POP POP POP SWAP4 SWAP3 POP POP POP JUMP JUMPDEST PUSH0 DUP2 SWAP1 POP SWAP2 SWAP1 POP JUMP JUMPDEST PUSH0 DUP2 SWAP1 POP SWAP2 SWAP1 POP JUMP JUMPDEST PUSH0 PUSH2 0x70B PUSH2 0x706 PUSH2 0x701 DUP5 PUSH2 0x6DF JUMP JUMPDEST PUSH2 0x6E8 JUMP JUMPDEST PUSH2 0x6DF JUMP JUMPDEST SWAP1 POP SWAP2 SWAP1 POP JUMP JUMPDEST PUSH0 DUP2 SWAP1 POP SWAP2 SWAP1 POP JUMP JUMPDEST PUSH2 0x724 DUP4 PUSH2 0x6F1 JUMP JUMPDEST PUSH2 0x738 PUSH2 0x730 DUP3 PUSH2 0x712 JUMP JUMPDEST DUP5 DUP5 SLOAD PUSH2 0x68E JUMP JUMPDEST DUP3 SSTORE POP POP POP POP JUMP JUMPDEST PUSH0 SWAP1 JUMP JUMPDEST PUSH2 0x74C PUSH2 0x740 JUMP JUMPDEST PUSH2 0x757 DUP2 DUP5 DUP5 PUSH2 0x71B JUMP JUMPDEST POP POP POP JUMP JUMPDEST JUMPDEST DUP2 DUP2 LT ISZERO PUSH2 0x77A JUMPI PUSH2 0x76F PUSH0 DUP3 PUSH2 0x744 JUMP JUMPDEST PUSH1 0x1 DUP2 ADD SWAP1 POP PUSH2 0x75D JUMP JUMPDEST POP POP JUMP JUMPDEST PUSH1 0x1F DUP3 GT ISZERO PUSH2 0x7BF JUMPI PUSH2 0x790 DUP2 PUSH2 0x661 JUMP JUMPDEST PUSH2 0x799 DUP5 PUSH2 0x673 JUMP JUMPDEST DUP2 ADD PUSH1 0x20 DUP6 LT ISZERO PUSH2 0x7A8 JUMPI DUP2 SWAP1 POP JUMPDEST PUSH2 0x7BC PUSH2 0x7B4 DUP6 PUSH2 0x673 JUMP JUMPDEST DUP4 ADD DUP3 PUSH2 0x75C JUMP JUMPDEST POP POP JUMPDEST POP POP POP JUMP JUMPDEST PUSH0 DUP3 DUP3 SHR SWAP1 POP SWAP3 SWAP2 POP POP JUMP JUMPDEST PUSH0 PUSH2 0x7DF PUSH0 NOT DUP5 PUSH1 0x8 MUL PUSH2 0x7C4 JUMP JUMPDEST NOT DUP1 DUP4 AND SWAP2 POP POP SWAP3 SWAP2 POP POP JUMP JUMPDEST PUSH0 PUSH2 0x7F7 DUP4 DUP4 PUSH2 0x7D0 JUMP JUMPDEST SWAP2 POP DUP3 PUSH1 0x2 MUL DUP3 OR SWAP1 POP SWAP3 SWAP2 POP POP JUMP JUMPDEST PUSH2 0x810 DUP3 PUSH2 0x526 JUMP JUMPDEST PUSH8 0xFFFFFFFFFFFFFFFF DUP2 GT ISZERO PUSH2 0x829 JUMPI PUSH2 0x828 PUSH2 0x2ED JUMP JUMPDEST JUMPDEST PUSH2 0x833 DUP3 SLOAD PUSH2 0x631 JUMP JUMPDEST PUSH2 0x83E DUP3 DUP3 DUP6 PUSH2 0x77E JUMP JUMPDEST PUSH0 PUSH1 0x20 SWAP1 POP PUSH1 0x1F DUP4 GT PUSH1 0x1 DUP2 EQ PUSH2 0x86F JUMPI PUSH0 DUP5 ISZERO PUSH2 0x85D JUMPI DUP3 DUP8 ADD MLOAD SWAP1 POP JUMPDEST PUSH2 0x867 DUP6 DUP3 PUSH2 0x7EC JUMP JUMPDEST DUP7 SSTORE POP PUSH2 0x8CE JUMP JUMPDEST PUSH1 0x1F NOT DUP5 AND PUSH2 0x87D DUP7 PUSH2 0x661 JUMP JUMPDEST PUSH0 JUMPDEST DUP3 DUP2 LT ISZERO PUSH2 0x8A4 JUMPI DUP5 DUP10 ADD MLOAD DUP3 SSTORE PUSH1 0x1 DUP3 ADD SWAP2 POP PUSH1 0x20 DUP6 ADD SWAP5 POP PUSH1 0x20 DUP2 ADD SWAP1 POP PUSH2 0x87F JUMP JUMPDEST DUP7 DUP4 LT ISZERO PUSH2 0x8C1 JUMPI DUP5 DUP10 ADD MLOAD PUSH2 0x8BD PUSH1 0x1F DUP10 AND DUP3 PUSH2 0x7D0 JUMP JUMPDEST DUP4 SSTORE POP JUMPDEST PUSH1 0x1 PUSH1 0x2 DUP9 MUL ADD DUP9 SSTORE POP POP POP JUMPDEST POP POP POP POP POP POP JUMP INVALID PUSH1 0x80 PUSH1 0x40 MSTORE CALLVALUE DUP1 ISZERO PUSH1 0xE JUMPI PUSH0 DUP1 REVERT JUMPDEST POP PUSH2 0x10D5 DUP1 PUSH2 0x1C PUSH0 CODECOPY PUSH0 RETURN INVALID PUSH1 0x80 PUSH1 0x40 MSTORE CALLVALUE DUP1 ISZERO PUSH2 0xF JUMPI PUSH0 DUP1 REVERT JUMPDEST POP PUSH1 0x4 CALLDATASIZE LT PUSH2 0x86 JUMPI PUSH0 CALLDATALOAD PUSH1 0xE0 SHR DUP1 PUSH4 0xC0EFFB7D GT PUSH2 0x59 JUMPI DUP1 PUSH4 0xC0EFFB7D EQ PUSH2 0x126 JUMPI DUP1 PUSH4 0xD8CE6572 EQ PUSH2 0x142 JUMPI DUP1 PUSH4 0xE47766FF EQ PUSH2 0x173 JUMPI DUP1 PUSH4 0xEA42C7EF EQ PUSH2 0x18F JUMPI PUSH2 0x86 JUMP JUMPDEST DUP1 PUSH4 0xE34B00E EQ PUSH2 0x8A JUMPI DUP1 PUSH4 0x220F8ADE EQ PUSH2 0xA6 JUMPI DUP1 PUSH4 0x7F975A37 EQ PUSH2 0xD6 JUMPI DUP1 PUSH4 0xB15BF255 EQ PUSH2 0xF2 JUMPI JUMPDEST PUSH0 DUP1 REVERT JUMPDEST PUSH2 0xA4 PUSH1 0x4 DUP1 CALLDATASIZE SUB DUP2 ADD SWAP1 PUSH2 0x9F SWAP2 SWAP1 PUSH2 0xA53 JUMP JUMPDEST PUSH2 0x1C0 JUMP JUMPDEST STOP JUMPDEST PUSH2 0xC0 PUSH1 0x4 DUP1 CALLDATASIZE SUB DUP2 ADD SWAP1 PUSH2 0xBB SWAP2 SWAP1 PUSH2 0xB30 JUMP JUMPDEST PUSH2 0x2D8 JUMP JUMPDEST PUSH1 0x40 MLOAD PUSH2 0xCD SWAP2 SWAP1 PUSH2 0xBA4 JUMP JUMPDEST PUSH1 0x40 MLOAD DUP1 SWAP2 SUB SWAP1 RETURN JUMPDEST PUSH2 0xF0 PUSH1 0x4 DUP1 CALLDATASIZE SUB DUP2 ADD SWAP1 PUSH2 0xEB SWAP2 SWAP1 PUSH2 0xB30 JUMP JUMPDEST PUSH2 0x36D JUMP JUMPDEST STOP JUMPDEST PUSH2 0x10C PUSH1 0x4 DUP1 CALLDATASIZE SUB DUP2 ADD SWAP1 PUSH2 0x107 SWAP2 SWAP1 PUSH2 0xBBD JUMP JUMPDEST PUSH2 0x3EE JUMP JUMPDEST PUSH1 0x40 MLOAD PUSH2 0x11D SWAP6 SWAP5 SWAP4 SWAP3 SWAP2 SWAP1 PUSH2 0xC73 JUMP JUMPDEST PUSH1 0x40 MLOAD DUP1 SWAP2 SUB SWAP1 RETURN JUMPDEST PUSH2 0x140 PUSH1 0x4 DUP1 CALLDATASIZE SUB DUP2 ADD SWAP1 PUSH2 0x13B SWAP2 SWAP1 PUSH2 0xCD9 JUMP JUMPDEST PUSH2 0x5E6 JUMP JUMPDEST STOP JUMPDEST PUSH2 0x15C PUSH1 0x4 DUP1 CALLDATASIZE SUB DUP2 ADD SWAP1 PUSH2 0x157 SWAP2 SWAP1 PUSH2 0xBBD JUMP JUMPDEST PUSH2 0x704 JUMP JUMPDEST PUSH1 0x40 MLOAD PUSH2 0x16A SWAP3 SWAP2 SWAP1 PUSH2 0xD4F JUMP JUMPDEST PUSH1 0x40 MLOAD DUP1 SWAP2 SUB SWAP1 RETURN JUMPDEST PUSH2 0x18D PUSH1 0x4 DUP1 CALLDATASIZE SUB DUP2 ADD SWAP1 PUSH2 0x188 SWAP2 SWAP1 PUSH2 0xBBD JUMP JUMPDEST PUSH2 0x7CD JUMP JUMPDEST STOP JUMPDEST PUSH2 0x1A9 PUSH1 0x4 DUP1 CALLDATASIZE SUB DUP2 ADD SWAP1 PUSH2 0x1A4 SWAP2 SWAP1 PUSH2 0xBBD JUMP JUMPDEST PUSH2 0x83C JUMP JUMPDEST PUSH1 0x40 MLOAD PUSH2 0x1B7 SWAP3 SWAP2 SWAP1 PUSH2 0xD4F JUMP JUMPDEST PUSH1 0x40 MLOAD DUP1 SWAP2 SUB SWAP1 RETURN JUMPDEST PUSH0 ISZERO ISZERO PUSH1 0x1 DUP5 PUSH1 0x40 MLOAD PUSH2 0x1D3 SWAP2 SWAP1 PUSH2 0xDB7 JUMP JUMPDEST SWAP1 DUP2 MSTORE PUSH1 0x20 ADD PUSH1 0x40 MLOAD DUP1 SWAP2 SUB SWAP1 KECCAK256 PUSH1 0x3 ADD PUSH0 SWAP1 SLOAD SWAP1 PUSH2 0x100 EXP SWAP1 DIV PUSH1 0xFF AND ISZERO ISZERO EQ PUSH2 0x1FC JUMPI PUSH0 DUP1 REVERT JUMPDEST PUSH1 0x40 MLOAD DUP1 PUSH1 0xA0 ADD PUSH1 0x40 MSTORE DUP1 DUP5 DUP2 MSTORE PUSH1 0x20 ADD DUP4 DUP2 MSTORE PUSH1 0x20 ADD DUP3 DUP2 MSTORE PUSH1 0x20 ADD PUSH1 0x1 ISZERO ISZERO DUP2 MSTORE PUSH1 0x20 ADD PUSH0 PUSH4 0xFFFFFFFF AND DUP2 MSTORE POP PUSH1 0x1 DUP5 PUSH1 0x40 MLOAD PUSH2 0x23C SWAP2 SWAP1 PUSH2 0xDB7 JUMP JUMPDEST SWAP1 DUP2 MSTORE PUSH1 0x20 ADD PUSH1 0x40 MLOAD DUP1 SWAP2 SUB SWAP1 KECCAK256 PUSH0 DUP3 ADD MLOAD DUP2 PUSH0 ADD SWAP1 DUP2 PUSH2 0x25D SWAP2 SWAP1 PUSH2 0xFD0 JUMP JUMPDEST POP PUSH1 0x20 DUP3 ADD MLOAD DUP2 PUSH1 0x1 ADD SWAP1 DUP2 PUSH2 0x273 SWAP2 SWAP1 PUSH2 0xFD0 JUMP JUMPDEST POP PUSH1 0x40 DUP3 ADD MLOAD DUP2 PUSH1 0x2 ADD SWAP1 DUP2 PUSH2 0x289 SWAP2 SWAP1 PUSH2 0xFD0 JUMP JUMPDEST POP PUSH1 0x60 DUP3 ADD MLOAD DUP2 PUSH1 0x3 ADD PUSH0 PUSH2 0x100 EXP DUP2 SLOAD DUP2 PUSH1 0xFF MUL NOT AND SWAP1 DUP4 ISZERO ISZERO MUL OR SWAP1 SSTORE POP PUSH1 0x80 DUP3 ADD MLOAD DUP2 PUSH1 0x3 ADD PUSH1 0x1 PUSH2 0x100 EXP DUP2 SLOAD DUP2 PUSH4 0xFFFFFFFF MUL NOT AND SWAP1 DUP4 PUSH4 0xFFFFFFFF AND MUL OR SWAP1 SSTORE POP SWAP1 POP POP POP POP POP JUMP JUMPDEST PUSH0 PUSH1 0x1 ISZERO ISZERO PUSH0 DUP5 PUSH1 0x40 MLOAD PUSH2 0x2EC SWAP2 SWAP1 PUSH2 0xDB7 JUMP JUMPDEST SWAP1 DUP2 MSTORE PUSH1 0x20 ADD PUSH1 0x40 MLOAD DUP1 SWAP2 SUB SWAP1 KECCAK256 PUSH1 0x1 ADD PUSH0 SWAP1 SLOAD SWAP1 PUSH2 0x100 EXP SWAP1 DIV PUSH1 0xFF AND ISZERO ISZERO EQ DUP1 ISZERO PUSH2 0x355 JUMPI POP DUP2 PUSH4 0xFFFFFFFF AND PUSH1 0x1 DUP5 PUSH1 0x40 MLOAD PUSH2 0x32B SWAP2 SWAP1 PUSH2 0xDB7 JUMP JUMPDEST SWAP1 DUP2 MSTORE PUSH1 0x20 ADD PUSH1 0x40 MLOAD DUP1 SWAP2 SUB SWAP1 KECCAK256 PUSH1 0x3 ADD PUSH1 0x1 SWAP1 SLOAD SWAP1 PUSH2 0x100 EXP SWAP1 DIV PUSH4 0xFFFFFFFF AND PUSH4 0xFFFFFFFF AND EQ JUMPDEST ISZERO PUSH2 0x363 JUMPI PUSH1 0x1 SWAP1 POP PUSH2 0x367 JUMP JUMPDEST PUSH0 SWAP1 POP JUMPDEST SWAP3 SWAP2 POP POP JUMP JUMPDEST PUSH1 0x1 ISZERO ISZERO PUSH1 0x1 DUP4 PUSH1 0x40 MLOAD PUSH2 0x381 SWAP2 SWAP1 PUSH2 0xDB7 JUMP JUMPDEST SWAP1 DUP2 MSTORE PUSH1 0x20 ADD PUSH1 0x40 MLOAD DUP1 SWAP2 SUB SWAP1 KECCAK256 PUSH1 0x3 ADD PUSH0 SWAP1 SLOAD SWAP1 PUSH2 0x100 EXP SWAP1 DIV PUSH1 0xFF AND ISZERO ISZERO EQ PUSH2 0x3AA JUMPI PUSH0 DUP1 REVERT JUMPDEST DUP1 PUSH1 0x1 DUP4 PUSH1 0x40 MLOAD PUSH2 0x3BB SWAP2 SWAP1 PUSH2 0xDB7 JUMP JUMPDEST SWAP1 DUP2 MSTORE PUSH1 0x20 ADD PUSH1 0x40 MLOAD DUP1 SWAP2 SUB SWAP1 KECCAK256 PUSH1 0x3 ADD PUSH1 0x1 PUSH2 0x100 EXP DUP2 SLOAD DUP2 PUSH4 0xFFFFFFFF MUL NOT AND SWAP1 DUP4 PUSH4 0xFFFFFFFF AND MUL OR SWAP1 SSTORE POP POP POP JUMP JUMPDEST PUSH1 0x1 DUP2 DUP1 MLOAD PUSH1 0x20 DUP2 ADD DUP3 ADD DUP1 MLOAD DUP5 DUP3 MSTORE PUSH1 0x20 DUP4 ADD PUSH1 0x20 DUP6 ADD KECCAK256 DUP2 DUP4 MSTORE DUP1 SWAP6 POP POP POP POP POP POP PUSH0 SWAP2 POP SWAP1 POP DUP1 PUSH0 ADD DUP1 SLOAD PUSH2 0x425 SWAP1 PUSH2 0xDFA JUMP JUMPDEST DUP1 PUSH1 0x1F ADD PUSH1 0x20 DUP1 SWAP2 DIV MUL PUSH1 0x20 ADD PUSH1 0x40 MLOAD SWAP1 DUP2 ADD PUSH1 0x40 MSTORE DUP1 SWAP3 SWAP2 SWAP1 DUP2 DUP2 MSTORE PUSH1 0x20 ADD DUP3 DUP1 SLOAD PUSH2 0x451 SWAP1 PUSH2 0xDFA JUMP JUMPDEST DUP1 ISZERO PUSH2 0x49C JUMPI DUP1 PUSH1 0x1F LT PUSH2 0x473 JUMPI PUSH2 0x100 DUP1 DUP4 SLOAD DIV MUL DUP4 MSTORE SWAP2 PUSH1 0x20 ADD SWAP2 PUSH2 0x49C JUMP JUMPDEST DUP3 ADD SWAP2 SWAP1 PUSH0 MSTORE PUSH1 0x20 PUSH0 KECCAK256 SWAP1 JUMPDEST DUP2 SLOAD DUP2 MSTORE SWAP1 PUSH1 0x1 ADD SWAP1 PUSH1 0x20 ADD DUP1 DUP4 GT PUSH2 0x47F JUMPI DUP3 SWAP1 SUB PUSH1 0x1F AND DUP3 ADD SWAP2 JUMPDEST POP POP POP POP POP SWAP1 DUP1 PUSH1 0x1 ADD DUP1 SLOAD PUSH2 0x4B1 SWAP1 PUSH2 0xDFA JUMP JUMPDEST DUP1 PUSH1 0x1F ADD PUSH1 0x20 DUP1 SWAP2 DIV MUL PUSH1 0x20 ADD PUSH1 0x40 MLOAD SWAP1 DUP2 ADD PUSH1 0x40 MSTORE DUP1 SWAP3 SWAP2 SWAP1 DUP2 DUP2 MSTORE PUSH1 0x20 ADD DUP3 DUP1 SLOAD PUSH2 0x4DD SWAP1 PUSH2 0xDFA JUMP JUMPDEST DUP1 ISZERO PUSH2 0x528 JUMPI DUP1 PUSH1 0x1F LT PUSH2 0x4FF JUMPI PUSH2 0x100 DUP1 DUP4 SLOAD DIV MUL DUP4 MSTORE SWAP2 PUSH1 0x20 ADD SWAP2 PUSH2 0x528 JUMP JUMPDEST DUP3 ADD SWAP2 SWAP1 PUSH0 MSTORE PUSH1 0x20 PUSH0 KECCAK256 SWAP1 JUMPDEST DUP2 SLOAD DUP2 MSTORE SWAP1 PUSH1 0x1 ADD SWAP1 PUSH1 0x20 ADD DUP1 DUP4 GT PUSH2 0x50B JUMPI DUP3 SWAP1 SUB PUSH1 0x1F AND DUP3 ADD SWAP2 JUMPDEST POP POP POP POP POP SWAP1 DUP1 PUSH1 0x2 ADD DUP1 SLOAD PUSH2 0x53D SWAP1 PUSH2 0xDFA JUMP JUMPDEST DUP1 PUSH1 0x1F ADD PUSH1 0x20 DUP1 SWAP2 DIV MUL PUSH1 0x20 ADD PUSH1 0x40 MLOAD SWAP1 DUP2 ADD PUSH1 0x40 MSTORE DUP1 SWAP3 SWAP2 SWAP1 DUP2 DUP2 MSTORE PUSH1 0x20 ADD DUP3 DUP1 SLOAD PUSH2 0x569 SWAP1 PUSH2 0xDFA JUMP JUMPDEST DUP1 ISZERO PUSH2 0x5B4 JUMPI DUP1 PUSH1 0x1F LT PUSH2 0x58B JUMPI PUSH2 0x100 DUP1 DUP4 SLOAD DIV MUL DUP4 MSTORE SWAP2 PUSH1 0x20 ADD SWAP2 PUSH2 0x5B4 JUMP JUMPDEST DUP3 ADD SWAP2 SWAP1 PUSH0 MSTORE PUSH1 0x20 PUSH0 KECCAK256 SWAP1 JUMPDEST DUP2 SLOAD DUP2 MSTORE SWAP1 PUSH1 0x1 ADD SWAP1 PUSH1 0x20 ADD DUP1 DUP4 GT PUSH2 0x597 JUMPI DUP3 SWAP1 SUB PUSH1 0x1F AND DUP3 ADD SWAP2 JUMPDEST POP POP POP POP POP SWAP1 DUP1 PUSH1 0x3 ADD PUSH0 SWAP1 SLOAD SWAP1 PUSH2 0x100 EXP SWAP1 DIV PUSH1 0xFF AND SWAP1 DUP1 PUSH1 0x3 ADD PUSH1 0x1 SWAP1 SLOAD SWAP1 PUSH2 0x100 EXP SWAP1 DIV PUSH4 0xFFFFFFFF AND SWAP1 POP DUP6 JUMP JUMPDEST PUSH1 0x1 ISZERO ISZERO PUSH1 0x1 DUP4 PUSH1 0x40 MLOAD PUSH2 0x5FA SWAP2 SWAP1 PUSH2 0xDB7 JUMP JUMPDEST SWAP1 DUP2 MSTORE PUSH1 0x20 ADD PUSH1 0x40 MLOAD DUP1 SWAP2 SUB SWAP1 KECCAK256 PUSH1 0x3 ADD PUSH0 SWAP1 SLOAD SWAP1 PUSH2 0x100 EXP SWAP1 DIV PUSH1 0xFF AND ISZERO ISZERO EQ PUSH2 0x623 JUMPI PUSH0 DUP1 REVERT JUMPDEST PUSH0 ISZERO ISZERO PUSH0 DUP4 PUSH1 0x40 MLOAD PUSH2 0x635 SWAP2 SWAP1 PUSH2 0xDB7 JUMP JUMPDEST SWAP1 DUP2 MSTORE PUSH1 0x20 ADD PUSH1 0x40 MLOAD DUP1 SWAP2 SUB SWAP1 KECCAK256 PUSH1 0x1 ADD PUSH0 SWAP1 SLOAD SWAP1 PUSH2 0x100 EXP SWAP1 DIV PUSH1 0xFF AND ISZERO ISZERO EQ PUSH2 0x65E JUMPI PUSH0 DUP1 REVERT JUMPDEST PUSH1 0x1 ISZERO ISZERO PUSH1 0x2 DUP3 PUSH1 0x40 MLOAD PUSH2 0x672 SWAP2 SWAP1 PUSH2 0xDB7 JUMP JUMPDEST SWAP1 DUP2 MSTORE PUSH1 0x20 ADD PUSH1 0x40 MLOAD DUP1 SWAP2 SUB SWAP1 KECCAK256 PUSH1 0x1 ADD PUSH0 SWAP1 SLOAD SWAP1 PUSH2 0x100 EXP SWAP1 DIV PUSH1 0xFF AND ISZERO ISZERO EQ PUSH2 0x69B JUMPI PUSH0 DUP1 REVERT JUMPDEST DUP1 PUSH0 DUP4 PUSH1 0x40 MLOAD PUSH2 0x6AB SWAP2 SWAP1 PUSH2 0xDB7 JUMP JUMPDEST SWAP1 DUP2 MSTORE PUSH1 0x20 ADD PUSH1 0x40 MLOAD DUP1 SWAP2 SUB SWAP1 KECCAK256 PUSH0 ADD SWAP1 DUP2 PUSH2 0x6C7 SWAP2 SWAP1 PUSH2 0xFD0 JUMP JUMPDEST POP PUSH1 0x1 PUSH0 DUP4 PUSH1 0x40 MLOAD PUSH2 0x6D9 SWAP2 SWAP1 PUSH2 0xDB7 JUMP JUMPDEST SWAP1 DUP2 MSTORE PUSH1 0x20 ADD PUSH1 0x40 MLOAD DUP1 SWAP2 SUB SWAP1 KECCAK256 PUSH1 0x1 ADD PUSH0 PUSH2 0x100 EXP DUP2 SLOAD DUP2 PUSH1 0xFF MUL NOT AND SWAP1 DUP4 ISZERO ISZERO MUL OR SWAP1 SSTORE POP POP POP JUMP JUMPDEST PUSH0 DUP2 DUP1 MLOAD PUSH1 0x20 DUP2 ADD DUP3 ADD DUP1 MLOAD DUP5 DUP3 MSTORE PUSH1 0x20 DUP4 ADD PUSH1 0x20 DUP6 ADD KECCAK256 DUP2 DUP4 MSTORE DUP1 SWAP6 POP POP POP POP POP POP PUSH0 SWAP2 POP SWAP1 POP DUP1 PUSH0 ADD DUP1 SLOAD PUSH2 0x73A SWAP1 PUSH2 0xDFA JUMP JUMPDEST DUP1 PUSH1 0x1F ADD PUSH1 0x20 DUP1 SWAP2 DIV MUL PUSH1 0x20 ADD PUSH1 0x40 MLOAD SWAP1 DUP2 ADD PUSH1 0x40 MSTORE DUP1 SWAP3 SWAP2 SWAP1 DUP2 DUP2 MSTORE PUSH1 0x20 ADD DUP3 DUP1 SLOAD PUSH2 0x766 SWAP1 PUSH2 0xDFA JUMP JUMPDEST DUP1 ISZERO PUSH2 0x7B1 JUMPI DUP1 PUSH1 0x1F LT PUSH2 0x788 JUMPI PUSH2 0x100 DUP1 DUP4 SLOAD DIV MUL DUP4 MSTORE SWAP2 PUSH1 0x20 ADD SWAP2 PUSH2 0x7B1 JUMP JUMPDEST DUP3 ADD SWAP2 SWAP1 PUSH0 MSTORE PUSH1 0x20 PUSH0 KECCAK256 SWAP1 JUMPDEST DUP2 SLOAD DUP2 MSTORE SWAP1 PUSH1 0x1 ADD SWAP1 PUSH1 0x20 ADD DUP1 DUP4 GT PUSH2 0x794 JUMPI DUP3 SWAP1 SUB PUSH1 0x1F AND DUP3 ADD SWAP2 JUMPDEST POP POP POP POP POP SWAP1 DUP1 PUSH1 0x1 ADD PUSH0 SWAP1 SLOAD SWAP1 PUSH2 0x100 EXP SWAP1 DIV PUSH1 0xFF AND SWAP1 POP DUP3 JUMP JUMPDEST PUSH1 0x40 MLOAD DUP1 PUSH1 0x40 ADD PUSH1 0x40 MSTORE DUP1 DUP3 DUP2 MSTORE PUSH1 0x20 ADD PUSH1 0x1 ISZERO ISZERO DUP2 MSTORE POP PUSH1 0x2 DUP3 PUSH1 0x40 MLOAD PUSH2 0x7F5 SWAP2 SWAP1 PUSH2 0xDB7 JUMP JUMPDEST SWAP1 DUP2 MSTORE PUSH1 0x20 ADD PUSH1 0x40 MLOAD DUP1 SWAP2 SUB SWAP1 KECCAK256 PUSH0 DUP3 ADD MLOAD DUP2 PUSH0 ADD SWAP1 DUP2 PUSH2 0x816 SWAP2 SWAP1 PUSH2 0xFD0 JUMP JUMPDEST POP PUSH1 0x20 DUP3 ADD MLOAD DUP2 PUSH1 0x1 ADD PUSH0 PUSH2 0x100 EXP DUP2 SLOAD DUP2 PUSH1 0xFF MUL NOT AND SWAP1 DUP4 ISZERO ISZERO MUL OR SWAP1 SSTORE POP SWAP1 POP POP POP JUMP JUMPDEST PUSH1 0x2 DUP2 DUP1 MLOAD PUSH1 0x20 DUP2 ADD DUP3 ADD DUP1 MLOAD DUP5 DUP3 MSTORE PUSH1 0x20 DUP4 ADD PUSH1 0x20 DUP6 ADD KECCAK256 DUP2 DUP4 MSTORE DUP1 SWAP6 POP POP POP POP POP POP PUSH0 SWAP2 POP SWAP1 POP DUP1 PUSH0 ADD DUP1 SLOAD PUSH2 0x873 SWAP1 PUSH2 0xDFA JUMP JUMPDEST DUP1 PUSH1 0x1F ADD PUSH1 0x20 DUP1 SWAP2 DIV MUL PUSH1 0x20 ADD PUSH1 0x40 MLOAD SWAP1 DUP2 ADD PUSH1 0x40 MSTORE DUP1 SWAP3 SWAP2 SWAP1 DUP2 DUP2 MSTORE PUSH1 0x20 ADD DUP3 DUP1 SLOAD PUSH2 0x89F SWAP1 PUSH2 0xDFA JUMP JUMPDEST DUP1 ISZERO PUSH2 0x8EA JUMPI DUP1 PUSH1 0x1F LT PUSH2 0x8C1 JUMPI PUSH2 0x100 DUP1 DUP4 SLOAD DIV MUL DUP4 MSTORE SWAP2 PUSH1 0x20 ADD SWAP2 PUSH2 0x8EA JUMP JUMPDEST DUP3 ADD SWAP2 SWAP1 PUSH0 MSTORE PUSH1 0x20 PUSH0 KECCAK256 SWAP1 JUMPDEST DUP2 SLOAD DUP2 MSTORE SWAP1 PUSH1 0x1 ADD SWAP1 PUSH1 0x20 ADD DUP1 DUP4 GT PUSH2 0x8CD JUMPI DUP3 SWAP1 SUB PUSH1 0x1F AND DUP3 ADD SWAP2 JUMPDEST POP POP POP POP POP SWAP1 DUP1 PUSH1 0x1 ADD PUSH0 SWAP1 SLOAD SWAP1 PUSH2 0x100 EXP SWAP1 DIV PUSH1 0xFF AND SWAP1 POP DUP3 JUMP JUMPDEST PUSH0 PUSH1 0x40 MLOAD SWAP1 POP SWAP1 JUMP JUMPDEST PUSH0 DUP1 REVERT JUMPDEST PUSH0 DUP1 REVERT JUMPDEST PUSH0 DUP1 REVERT JUMPDEST PUSH0 DUP1 REVERT JUMPDEST PUSH0 PUSH1 0x1F NOT PUSH1 0x1F DUP4 ADD AND SWAP1 POP SWAP2 SWAP1 POP JUMP JUMPDEST PUSH32 0x4E487B7100000000000000000000000000000000000000000000000000000000 PUSH0 MSTORE PUSH1 0x41 PUSH1 0x4 MSTORE PUSH1 0x24 PUSH0 REVERT JUMPDEST PUSH2 0x965 DUP3 PUSH2 0x91F JUMP JUMPDEST DUP2 ADD DUP2 DUP2 LT PUSH8 0xFFFFFFFFFFFFFFFF DUP3 GT OR ISZERO PUSH2 0x984 JUMPI PUSH2 0x983 PUSH2 0x92F JUMP JUMPDEST JUMPDEST DUP1 PUSH1 0x40 MSTORE POP POP POP JUMP JUMPDEST PUSH0 PUSH2 0x996 PUSH2 0x906 JUMP JUMPDEST SWAP1 POP PUSH2 0x9A2 DUP3 DUP3 PUSH2 0x95C JUMP JUMPDEST SWAP2 SWAP1 POP JUMP JUMPDEST PUSH0 PUSH8 0xFFFFFFFFFFFFFFFF DUP3 GT ISZERO PUSH2 0x9C1 JUMPI PUSH2 0x9C0 PUSH2 0x92F JUMP JUMPDEST JUMPDEST PUSH2 0x9CA DUP3 PUSH2 0x91F JUMP JUMPDEST SWAP1 POP PUSH1 0x20 DUP2 ADD SWAP1 POP SWAP2 SWAP1 POP JUMP JUMPDEST DUP3 DUP2 DUP4 CALLDATACOPY PUSH0 DUP4 DUP4 ADD MSTORE POP POP POP JUMP JUMPDEST PUSH0 PUSH2 0x9F7 PUSH2 0x9F2 DUP5 PUSH2 0x9A7 JUMP JUMPDEST PUSH2 0x98D JUMP JUMPDEST SWAP1 POP DUP3 DUP2 MSTORE PUSH1 0x20 DUP2 ADD DUP5 DUP5 DUP5 ADD GT ISZERO PUSH2 0xA13 JUMPI PUSH2 0xA12 PUSH2 0x91B JUMP JUMPDEST JUMPDEST PUSH2 0xA1E DUP5 DUP3 DUP6 PUSH2 0x9D7 JUMP JUMPDEST POP SWAP4 SWAP3 POP POP POP JUMP JUMPDEST PUSH0 DUP3 PUSH1 0x1F DUP4 ADD SLT PUSH2 0xA3A JUMPI PUSH2 0xA39 PUSH2 0x917 JUMP JUMPDEST JUMPDEST DUP2 CALLDATALOAD PUSH2 0xA4A DUP5 DUP3 PUSH1 0x20 DUP7 ADD PUSH2 0x9E5 JUMP JUMPDEST SWAP2 POP POP SWAP3 SWAP2 POP POP JUMP JUMPDEST PUSH0 DUP1 PUSH0 PUSH1 0x60 DUP5 DUP7 SUB SLT ISZERO PUSH2 0xA6A JUMPI PUSH2 0xA69 PUSH2 0x90F JUMP JUMPDEST JUMPDEST PUSH0 DUP5 ADD CALLDATALOAD PUSH8 0xFFFFFFFFFFFFFFFF DUP2 GT ISZERO PUSH2 0xA87 JUMPI PUSH2 0xA86 PUSH2 0x913 JUMP JUMPDEST JUMPDEST PUSH2 0xA93 DUP7 DUP3 DUP8 ADD PUSH2 0xA26 JUMP JUMPDEST SWAP4 POP POP PUSH1 0x20 DUP5 ADD CALLDATALOAD PUSH8 0xFFFFFFFFFFFFFFFF DUP2 GT ISZERO PUSH2 0xAB4 JUMPI PUSH2 0xAB3 PUSH2 0x913 JUMP JUMPDEST JUMPDEST PUSH2 0xAC0 DUP7 DUP3 DUP8 ADD PUSH2 0xA26 JUMP JUMPDEST SWAP3 POP POP PUSH1 0x40 DUP5 ADD CALLDATALOAD PUSH8 0xFFFFFFFFFFFFFFFF DUP2 GT ISZERO PUSH2 0xAE1 JUMPI PUSH2 0xAE0 PUSH2 0x913 JUMP JUMPDEST JUMPDEST PUSH2 0xAED DUP7 DUP3 DUP8 ADD PUSH2 0xA26 JUMP JUMPDEST SWAP2 POP POP SWAP3 POP SWAP3 POP SWAP3 JUMP JUMPDEST PUSH0 PUSH4 0xFFFFFFFF DUP3 AND SWAP1 POP SWAP2 SWAP1 POP JUMP JUMPDEST PUSH2 0xB0F DUP2 PUSH2 0xAF7 JUMP JUMPDEST DUP2 EQ PUSH2 0xB19 JUMPI PUSH0 DUP1 REVERT JUMPDEST POP JUMP JUMPDEST PUSH0 DUP2 CALLDATALOAD SWAP1 POP PUSH2 0xB2A DUP2 PUSH2 0xB06 JUMP JUMPDEST SWAP3 SWAP2 POP POP JUMP JUMPDEST PUSH0 DUP1 PUSH1 0x40 DUP4 DUP6 SUB SLT ISZERO PUSH2 0xB46 JUMPI PUSH2 0xB45 PUSH2 0x90F JUMP JUMPDEST JUMPDEST PUSH0 DUP4 ADD CALLDATALOAD PUSH8 0xFFFFFFFFFFFFFFFF DUP2 GT ISZERO PUSH2 0xB63 JUMPI PUSH2 0xB62 PUSH2 0x913 JUMP JUMPDEST JUMPDEST PUSH2 0xB6F DUP6 DUP3 DUP7 ADD PUSH2 0xA26 JUMP JUMPDEST SWAP3 POP POP PUSH1 0x20 PUSH2 0xB80 DUP6 DUP3 DUP7 ADD PUSH2 0xB1C JUMP JUMPDEST SWAP2 POP POP SWAP3 POP SWAP3 SWAP1 POP JUMP JUMPDEST PUSH0 DUP2 ISZERO ISZERO SWAP1 POP SWAP2 SWAP1 POP JUMP JUMPDEST PUSH2 0xB9E DUP2 PUSH2 0xB8A JUMP JUMPDEST DUP3 MSTORE POP POP JUMP JUMPDEST PUSH0 PUSH1 0x20 DUP3 ADD SWAP1 POP PUSH2 0xBB7 PUSH0 DUP4 ADD DUP5 PUSH2 0xB95 JUMP JUMPDEST SWAP3 SWAP2 POP POP JUMP JUMPDEST PUSH0 PUSH1 0x20 DUP3 DUP5 SUB SLT ISZERO PUSH2 0xBD2 JUMPI PUSH2 0xBD1 PUSH2 0x90F JUMP JUMPDEST JUMPDEST PUSH0 DUP3 ADD CALLDATALOAD PUSH8 0xFFFFFFFFFFFFFFFF DUP2 GT ISZERO PUSH2 0xBEF JUMPI PUSH2 0xBEE PUSH2 0x913 JUMP JUMPDEST JUMPDEST PUSH2 0xBFB DUP5 DUP3 DUP6 ADD PUSH2 0xA26 JUMP JUMPDEST SWAP2 POP POP SWAP3 SWAP2 POP POP JUMP JUMPDEST PUSH0 DUP2 MLOAD SWAP1 POP SWAP2 SWAP1 POP JUMP JUMPDEST PUSH0 DUP3 DUP3 MSTORE PUSH1 0x20 DUP3 ADD SWAP1 POP SWAP3 SWAP2 POP POP JUMP JUMPDEST DUP3 DUP2 DUP4 MCOPY PUSH0 DUP4 DUP4 ADD MSTORE POP POP POP JUMP JUMPDEST PUSH0 PUSH2 0xC36 DUP3 PUSH2 0xC04 JUMP JUMPDEST PUSH2 0xC40 DUP2 DUP6 PUSH2 0xC0E JUMP JUMPDEST SWAP4 POP PUSH2 0xC50 DUP2 DUP6 PUSH1 0x20 DUP7 ADD PUSH2 0xC1E JUMP JUMPDEST PUSH2 0xC59 DUP2 PUSH2 0x91F JUMP JUMPDEST DUP5 ADD SWAP2 POP POP SWAP3 SWAP2 POP POP JUMP JUMPDEST PUSH2 0xC6D DUP2 PUSH2 0xAF7 JUMP JUMPDEST DUP3 MSTORE POP POP JUMP JUMPDEST PUSH0 PUSH1 0xA0 DUP3 ADD SWAP1 POP DUP2 DUP2 SUB PUSH0 DUP4 ADD MSTORE PUSH2 0xC8B DUP2 DUP9 PUSH2 0xC2C JUMP JUMPDEST SWAP1 POP DUP2 DUP2 SUB PUSH1 0x20 DUP4 ADD MSTORE PUSH2 0xC9F DUP2 DUP8 PUSH2 0xC2C JUMP JUMPDEST SWAP1 POP DUP2 DUP2 SUB PUSH1 0x40 DUP4 ADD MSTORE PUSH2 0xCB3 DUP2 DUP7 PUSH2 0xC2C JUMP JUMPDEST SWAP1 POP PUSH2 0xCC2 PUSH1 0x60 DUP4 ADD DUP6 PUSH2 0xB95 JUMP JUMPDEST PUSH2 0xCCF PUSH1 0x80 DUP4 ADD DUP5 PUSH2 0xC64 JUMP JUMPDEST SWAP7 SWAP6 POP POP POP POP POP POP JUMP JUMPDEST PUSH0 DUP1 PUSH1 0x40 DUP4 DUP6 SUB SLT ISZERO PUSH2 0xCEF JUMPI PUSH2 0xCEE PUSH2 0x90F JUMP JUMPDEST JUMPDEST PUSH0 DUP4 ADD CALLDATALOAD PUSH8 0xFFFFFFFFFFFFFFFF DUP2 GT ISZERO PUSH2 0xD0C JUMPI PUSH2 0xD0B PUSH2 0x913 JUMP JUMPDEST JUMPDEST PUSH2 0xD18 DUP6 DUP3 DUP7 ADD PUSH2 0xA26 JUMP JUMPDEST SWAP3 POP POP PUSH1 0x20 DUP4 ADD CALLDATALOAD PUSH8 0xFFFFFFFFFFFFFFFF DUP2 GT ISZERO PUSH2 0xD39 JUMPI PUSH2 0xD38 PUSH2 0x913 JUMP JUMPDEST JUMPDEST PUSH2 0xD45 DUP6 DUP3 DUP7 ADD PUSH2 0xA26 JUMP JUMPDEST SWAP2 POP POP SWAP3 POP SWAP3 SWAP1 POP JUMP JUMPDEST PUSH0 PUSH1 0x40 DUP3 ADD SWAP1 POP DUP2 DUP2 SUB PUSH0 DUP4 ADD MSTORE PUSH2 0xD67 DUP2 DUP6 PUSH2 0xC2C JUMP JUMPDEST SWAP1 POP PUSH2 0xD76 PUSH1 0x20 DUP4 ADD DUP5 PUSH2 0xB95 JUMP JUMPDEST SWAP4 SWAP3 POP POP POP JUMP JUMPDEST PUSH0 DUP2 SWAP1 POP SWAP3 SWAP2 POP POP JUMP JUMPDEST PUSH0 PUSH2 0xD91 DUP3 PUSH2 0xC04 JUMP JUMPDEST PUSH2 0xD9B DUP2 DUP6 PUSH2 0xD7D JUMP JUMPDEST SWAP4 POP PUSH2 0xDAB DUP2 DUP6 PUSH1 0x20 DUP7 ADD PUSH2 0xC1E JUMP JUMPDEST DUP1 DUP5 ADD SWAP2 POP POP SWAP3 SWAP2 POP POP JUMP JUMPDEST PUSH0 PUSH2 0xDC2 DUP3 DUP5 PUSH2 0xD87 JUMP JUMPDEST SWAP2 POP DUP2 SWAP1 POP SWAP3 SWAP2 POP POP JUMP JUMPDEST PUSH32 0x4E487B7100000000000000000000000000000000000000000000000000000000 PUSH0 MSTORE PUSH1 0x22 PUSH1 0x4 MSTORE PUSH1 0x24 PUSH0 REVERT JUMPDEST PUSH0 PUSH1 0x2 DUP3 DIV SWAP1 POP PUSH1 0x1 DUP3 AND DUP1 PUSH2 0xE11 JUMPI PUSH1 0x7F DUP3 AND SWAP2 POP JUMPDEST PUSH1 0x20 DUP3 LT DUP2 SUB PUSH2 0xE24 JUMPI PUSH2 0xE23 PUSH2 0xDCD JUMP JUMPDEST JUMPDEST POP SWAP2 SWAP1 POP JUMP JUMPDEST PUSH0 DUP2 SWAP1 POP DUP2 PUSH0 MSTORE PUSH1 0x20 PUSH0 KECCAK256 SWAP1 POP SWAP2 SWAP1 POP JUMP JUMPDEST PUSH0 PUSH1 0x20 PUSH1 0x1F DUP4 ADD DIV SWAP1 POP SWAP2 SWAP1 POP JUMP JUMPDEST PUSH0 DUP3 DUP3 SHL SWAP1 POP SWAP3 SWAP2 POP POP JUMP JUMPDEST PUSH0 PUSH1 0x8 DUP4 MUL PUSH2 0xE86 PUSH32 0xFFFFFFFFFFFFFFFFFFFFFFFFFFFFFFFFFFFFFFFFFFFFFFFFFFFFFFFFFFFFFFFF DUP3 PUSH2 0xE4B JUMP JUMPDEST PUSH2 0xE90 DUP7 DUP4 PUSH2 0xE4B JUMP JUMPDEST SWAP6 POP DUP1 NOT DUP5 AND SWAP4 POP DUP1 DUP7 AND DUP5 OR SWAP3 POP POP POP SWAP4 SWAP3 POP POP POP JUMP JUMPDEST PUSH0 DUP2 SWAP1 POP SWAP2 SWAP1 POP JUMP JUMPDEST PUSH0 DUP2 SWAP1 POP SWAP2 SWAP1 POP JUMP JUMPDEST PUSH0 PUSH2 0xED4 PUSH2 0xECF PUSH2 0xECA DUP5 PUSH2 0xEA8 JUMP JUMPDEST PUSH2 0xEB1 JUMP JUMPDEST PUSH2 0xEA8 JUMP JUMPDEST SWAP1 POP SWAP2 SWAP1 POP JUMP JUMPDEST PUSH0 DUP2 SWAP1 POP SWAP2 SWAP1 POP JUMP JUMPDEST PUSH2 0xEED DUP4 PUSH2 0xEBA JUMP JUMPDEST PUSH2 0xF01 PUSH2 0xEF9 DUP3 PUSH2 0xEDB JUMP JUMPDEST DUP5 DUP5 SLOAD PUSH2 0xE57 JUMP JUMPDEST DUP3 SSTORE POP POP POP POP JUMP JUMPDEST PUSH0 SWAP1 JUMP JUMPDEST PUSH2 0xF15 PUSH2 0xF09 JUMP JUMPDEST PUSH2 0xF20 DUP2 DUP5 DUP5 PUSH2 0xEE4 JUMP JUMPDEST POP POP POP JUMP JUMPDEST JUMPDEST DUP2 DUP2 LT ISZERO PUSH2 0xF43 JUMPI PUSH2 0xF38 PUSH0 DUP3 PUSH2 0xF0D JUMP JUMPDEST PUSH1 0x1 DUP2 ADD SWAP1 POP PUSH2 0xF26 JUMP JUMPDEST POP POP JUMP JUMPDEST PUSH1 0x1F DUP3 GT ISZERO PUSH2 0xF88 JUMPI PUSH2 0xF59 DUP2 PUSH2 0xE2A JUMP JUMPDEST PUSH2 0xF62 DUP5 PUSH2 0xE3C JUMP JUMPDEST DUP2 ADD PUSH1 0x20 DUP6 LT ISZERO PUSH2 0xF71 JUMPI DUP2 SWAP1 POP JUMPDEST PUSH2 0xF85 PUSH2 0xF7D DUP6 PUSH2 0xE3C JUMP JUMPDEST DUP4 ADD DUP3 PUSH2 0xF25 JUMP JUMPDEST POP POP JUMPDEST POP POP POP JUMP JUMPDEST PUSH0 DUP3 DUP3 SHR SWAP1 POP SWAP3 SWAP2 POP POP JUMP JUMPDEST PUSH0 PUSH2 0xFA8 PUSH0 NOT DUP5 PUSH1 0x8 MUL PUSH2 0xF8D JUMP JUMPDEST NOT DUP1 DUP4 AND SWAP2 POP POP SWAP3 SWAP2 POP POP JUMP JUMPDEST PUSH0 PUSH2 0xFC0 DUP4 DUP4 PUSH2 0xF99 JUMP JUMPDEST SWAP2 POP DUP3 PUSH1 0x2 MUL DUP3 OR SWAP1 POP SWAP3 SWAP2 POP POP JUMP JUMPDEST PUSH2 0xFD9 DUP3 PUSH2 0xC04 JUMP JUMPDEST PUSH8 0xFFFFFFFFFFFFFFFF DUP2 GT ISZERO PUSH2 0xFF2 JUMPI PUSH2 0xFF1 PUSH2 0x92F JUMP JUMPDEST JUMPDEST PUSH2 0xFFC DUP3 SLOAD PUSH2 0xDFA JUMP JUMPDEST PUSH2 0x1007 DUP3 DUP3 DUP6 PUSH2 0xF47 JUMP JUMPDEST PUSH0 PUSH1 0x20 SWAP1 POP PUSH1 0x1F DUP4 GT PUSH1 0x1 DUP2 EQ PUSH2 0x1038 JUMPI PUSH0 DUP5 ISZERO PUSH2 0x1026 JUMPI DUP3 DUP8 ADD MLOAD SWAP1 POP JUMPDEST PUSH2 0x1030 DUP6 DUP3 PUSH2 0xFB5 JUMP JUMPDEST DUP7 SSTORE POP PUSH2 0x1097 JUMP JUMPDEST PUSH1 0x1F NOT DUP5 AND PUSH2 0x1046 DUP7 PUSH2 0xE2A JUMP JUMPDEST PUSH0 JUMPDEST DUP3 DUP2 LT ISZERO PUSH2 0x106D JUMPI DUP5 DUP10 ADD MLOAD DUP3 SSTORE PUSH1 0x1 DUP3 ADD SWAP2 POP PUSH1 0x20 DUP6 ADD SWAP5 POP PUSH1 0x20 DUP2 ADD SWAP1 POP PUSH2 0x1048 JUMP JUMPDEST DUP7 DUP4 LT ISZERO PUSH2 0x108A JUMPI DUP5 DUP10 ADD MLOAD PUSH2 0x1086 PUSH1 0x1F DUP10 AND DUP3 PUSH2 0xF99 JUMP JUMPDEST DUP4 SSTORE POP JUMPDEST PUSH1 0x1 PUSH1 0x2 DUP9 MUL ADD DUP9 SSTORE POP POP POP JUMPDEST POP POP POP POP POP POP JUMP INVALID LOG2 PUSH5 0x6970667358 0x22 SLT KECCAK256 MULMOD PUSH22 0x27C2EE3F83A2E017B8DBE7E0FB87F122666D3C987EB3 KECCAK256 GASLIMIT 0xAE ADD SWAP7 SWAP14 DUP4 LOG0 PUSH5 0x736F6C6343 STOP ADDMOD NOT STOP CALLER LOG2 PUSH5 0x6970667358 0x22 SLT KECCAK256 KECCAK256 PUSH3 0x7AA35B 0xD 0xE8 SWAP15 COINBASE BYTE 0xA5 SUB SWAP5 0xCB PUSH27 0xC19906E87DE20F5B7FDC14685C12C69DCA64736F6C634300081900 CALLER "},"gasEstimates":{"creation":{"codeDepositCost":"1330600","executionCost":"1381","totalCost":"1331981"},"external":{"createManufacturer(string,string)":"infinite","getManufacturerInstance(string)":"infinite","manufacturersField(string)":"infinite"}},"methodIdentifiers":{"createManufacturer(string,string)":"80b29bec","getManufacturerInstance(string)":"08ac800c","manufacturersField(string)":"c0900bea"}},"storageLayout":{"storage":[{"astId":11,"contract":"FakeProdIden.sol:manufacturerFactory","label":"manufacturersField","offset":0,"slot":"0","type":"t_mapping(t_string_memory_ptr,t_struct(manufacturer)6_storage)"}],"types":{"t_address":{"encoding":"inplace","label":"address","numberOfBytes":"20"},"t_mapping(t_string_memory_ptr,t_struct(manufacturer)6_storage)":{"encoding":"mapping","key":"t_string_memory_ptr","label":"mapping(string => struct manufacturerFactory.manufacturer)","numberOfBytes":"32","value":"t_struct(manufacturer)6_storage"},"t_string_memory_ptr":{"encoding":"bytes","label":"string","numberOfBytes":"32"},"t_string_storage":{"encoding":"bytes","label":"string","numberOfBytes":"32"},"t_struct(manufacturer)6_storage":{"encoding":"inplace","label":"struct manufacturerFactory.manufacturer","members":[{"astId":3,"contract":"FakeProdIden.sol:manufacturerFactory","label":"id","offset":0,"slot":"0","type":"t_string_storage"},{"astId":5,"contract":"FakeProdIden.sol:manufacturerFactory","label":"instance","offset":0,"slot":"1","type":"t_address"}],"numberOfBytes":"64"}}},"userdoc":{"kind":"user","methods":{},"version":1}}